{"contracts/DiamondFactory.sol":{"DiamondFactory":{"abi":[{"anonymous":false,"inputs":[{"indexed":true,"internalType":"address","name":"previousOwner","type":"address"},{"indexed":true,"internalType":"address","name":"newOwner","type":"address"}],"name":"OwnershipTransferred","type":"event"},{"anonymous":false,"inputs":[{"indexed":true,"internalType":"address","name":"token0","type":"address"},{"indexed":true,"internalType":"address","name":"token1","type":"address"},{"indexed":false,"internalType":"address","name":"pair","type":"address"},{"indexed":false,"internalType":"uint256","name":"","type":"uint256"}],"name":"PairCreated","type":"event"},{"inputs":[{"internalType":"uint256","name":"","type":"uint256"}],"name":"allPairs","outputs":[{"internalType":"address","name":"","type":"address"}],"stateMutability":"view","type":"function"},{"inputs":[],"name":"allPairsLength","outputs":[{"internalType":"uint256","name":"","type":"uint256"}],"stateMutability":"view","type":"function"},{"inputs":[{"internalType":"address","name":"tokenA","type":"address"},{"internalType":"address","name":"tokenB","type":"address"}],"name":"createPair","outputs":[{"internalType":"address","name":"pair","type":"address"}],"stateMutability":"nonpayable","type":"function"},{"inputs":[],"name":"feeTo","outputs":[{"internalType":"address","name":"","type":"address"}],"stateMutability":"view","type":"function"},{"inputs":[{"internalType":"address","name":"","type":"address"},{"internalType":"address","name":"","type":"address"}],"name":"getPair","outputs":[{"internalType":"address","name":"","type":"address"}],"stateMutability":"view","type":"function"},{"inputs":[],"name":"owner","outputs":[{"internalType":"address","name":"","type":"address"}],"stateMutability":"view","type":"function"},{"inputs":[],"name":"protocolFeeDenominator","outputs":[{"internalType":"uint256","name":"","type":"uint256"}],"stateMutability":"view","type":"function"},{"inputs":[],"name":"renounceOwnership","outputs":[],"stateMutability":"nonpayable","type":"function"},{"inputs":[{"internalType":"address","name":"_feeTo","type":"address"}],"name":"setFeeTo","outputs":[],"stateMutability":"nonpayable","type":"function"},{"inputs":[{"internalType":"uint256","name":"_protocolFeeDenominator","type":"uint256"}],"name":"setProtocolFeeDenominator","outputs":[],"stateMutability":"nonpayable","type":"function"},{"inputs":[{"internalType":"address","name":"newOwner","type":"address"}],"name":"transferOwnership","outputs":[],"stateMutability":"nonpayable","type":"function"}],"evm":{"bytecode":{"linkReferences":{},"object":"6080604052600560045534801561001557600080fd5b5061001f33610024565b610074565b600080546001600160a01b038381166001600160a01b0319831681178455604051919092169283917f8be0079c531659141344cd1fd0a4f28419497f9722a3daafe3b4186f6b6457e09190a35050565b612b6c806100836000396000f3fe608060405234801561001057600080fd5b50600436106100a95760003560e01c806375adcf2c1161007157806375adcf2c1461011a5780638da5cb5b1461012d578063c9c653961461013e578063e6a4390514610151578063f2fde38b14610185578063f46901ed1461019857600080fd5b8063017e7e58146100ae5780631e3dd18b146100de5780632ff7042a146100f1578063574f2ba314610108578063715018a614610110575b600080fd5b6003546100c1906001600160a01b031681565b6040516001600160a01b0390911681526020015b60405180910390f35b6100c16100ec3660046106c1565b6101ab565b6100fa60045481565b6040519081526020016100d5565b6002546100fa565b6101186101d5565b005b6101186101283660046106c1565b6101e9565b6000546001600160a01b03166100c1565b6100c161014c3660046106f6565b610257565b6100c161015f3660046106f6565b60016020908152600092835260408084209091529082529020546001600160a01b031681565b610118610193366004610729565b610567565b6101186101a6366004610729565b6105e0565b600281815481106101bb57600080fd5b6000918252602090912001546001600160a01b0316905081565b6101dd61060a565b6101e76000610664565b565b6101f161060a565b600081116102525760405162461bcd60e51b815260206004820152602360248201527f4469616d6f6e64466163746f72793a20494e56414c49445f44454e4f4d494e416044820152622a27a960e91b60648201526084015b60405180910390fd5b600455565b6000816001600160a01b0316836001600160a01b0316036102c65760405162461bcd60e51b815260206004820152602360248201527f4469616d6f6e64466163746f72793a204944454e544943414c5f41444452455360448201526253455360e81b6064820152608401610249565b600080836001600160a01b0316856001600160a01b0316106102e95783856102ec565b84845b90925090506001600160a01b0382166103475760405162461bcd60e51b815260206004820152601c60248201527f4469616d6f6e64466163746f72793a205a45524f5f41444452455353000000006044820152606401610249565b6001600160a01b038281166000908152600160209081526040808320858516845290915290205416156103bc5760405162461bcd60e51b815260206004820152601b60248201527f4469616d6f6e64466163746f72793a20504149525f45584953545300000000006044820152606401610249565b6000604051806020016103ce906106b4565b601f1982820381018352601f9091011660408190526bffffffffffffffffffffffff19606086811b8216602084015285901b166034820152909150600090604801604051602081830303815290604052805190602001209050808251602084016000f560405163485cc95560e01b81526001600160a01b03868116600483015285811660248301529196509086169063485cc95590604401600060405180830381600087803b15801561048057600080fd5b505af1158015610494573d6000803e3d6000fd5b505050506001600160a01b0384811660008181526001602081815260408084208987168086529083528185208054978d166001600160a01b0319988916811790915584845282862087875284528286208054891682179055600280549586018155958690527f405787fa12a823e0f2b7631cc41b3ba8828b3321ca811111fa75cd3aa3bb5ace9094018054909716841790965592548351928352908201527f0d3648bd0f6ba80134a33ba9275ac585d9d315f0ad8355cddefde31afa28d0e9910160405180910390a35050505092915050565b61056f61060a565b6001600160a01b0381166105d45760405162461bcd60e51b815260206004820152602660248201527f4f776e61626c653a206e6577206f776e657220697320746865207a65726f206160448201526564647265737360d01b6064820152608401610249565b6105dd81610664565b50565b6105e861060a565b600380546001600160a01b0319166001600160a01b0392909216919091179055565b6000546001600160a01b031633146101e75760405162461bcd60e51b815260206004820181905260248201527f4f776e61626c653a2063616c6c6572206973206e6f7420746865206f776e65726044820152606401610249565b600080546001600160a01b038381166001600160a01b0319831681178455604051919092169283917f8be0079c531659141344cd1fd0a4f28419497f9722a3daafe3b4186f6b6457e09190a35050565b6123eb8061074c83390190565b6000602082840312156106d357600080fd5b5035919050565b80356001600160a01b03811681146106f157600080fd5b919050565b6000806040838503121561070957600080fd5b610712836106da565b9150610720602084016106da565b90509250929050565b60006020828403121561073b57600080fd5b610744826106da565b939250505056fe60806040523480156200001157600080fd5b50604051806040016040528060118152602001702234b0b6b7b7323d102628102a37b5b2b760791b815250604051806040016040528060078152602001660444d445a2d4c560cc1b81525081600390816200006d919062000141565b5060046200007c828262000141565b5050600160055550600680546001600160a01b031916331790556200020d565b634e487b7160e01b600052604160045260246000fd5b600181811c90821680620000c757607f821691505b602082108103620000e857634e487b7160e01b600052602260045260246000fd5b50919050565b601f8211156200013c57600081815260208120601f850160051c81016020861015620001175750805b601f850160051c820191505b81811015620001385782815560010162000123565b5050505b505050565b81516001600160401b038111156200015d576200015d6200009c565b62000175816200016e8454620000b2565b84620000ee565b602080601f831160018114620001ad5760008415620001945750858301515b600019600386901b1c1916600185901b17855562000138565b600085815260208120601f198616915b82811015620001de57888601518255948401946001909101908401620001bd565b5085821015620001fd5787850151600019600388901b60f8161c191681555b5050505050600190811b01905550565b6121ce806200021d6000396000f3fe608060405234801561001057600080fd5b50600436106101735760003560e01c80636a627842116100de578063a9059cbb11610097578063c45a015511610071578063c45a015514610350578063d21220a714610363578063dd62ed3e14610376578063fff6cae91461038957600080fd5b8063a9059cbb14610321578063ba9a7a5614610334578063bc25cf771461033d57600080fd5b80636a6278421461029957806370a08231146102ac5780637464fc3d146102d557806389afcb44146102de57806395d89b4114610306578063a457c2d71461030e57600080fd5b806323b872dd1161013057806323b872dd1461023f578063313ce567146102525780633950935114610261578063485cc955146102745780635909c0d5146102875780635a3d54931461029057600080fd5b8063022c0d9f1461017857806306fdde031461018d5780630902f1ac146101ab578063095ea7b3146101df5780630dfe16811461020257806318160ddd1461022d575b600080fd5b61018b610186366004611e3f565b610391565b005b61019561088b565b6040516101a29190611ef9565b60405180910390f35b6101b361091d565b604080516001600160701b03948516815293909216602084015263ffffffff16908201526060016101a2565b6101f26101ed366004611f2c565b610947565b60405190151581526020016101a2565b600754610215906001600160a01b031681565b6040516001600160a01b0390911681526020016101a2565b6002545b6040519081526020016101a2565b6101f261024d366004611f58565b610961565b604051601281526020016101a2565b6101f261026f366004611f2c565b610985565b61018b610282366004611f99565b6109a7565b610231600a5481565b610231600b5481565b6102316102a7366004611fd2565b610a28565b6102316102ba366004611fd2565b6001600160a01b031660009081526020819052604090205490565b610231600c5481565b6102f16102ec366004611fd2565b610ce0565b604080519283526020830191909152016101a2565b610195611034565b6101f261031c366004611f2c565b611043565b6101f261032f366004611f2c565b6110be565b6102316103e881565b61018b61034b366004611fd2565b6110cc565b600654610215906001600160a01b031681565b600854610215906001600160a01b031681565b610231610384366004611f99565b6111c6565b61018b6111f1565b6103996112fb565b60008511806103a85750600084115b6104095760405162461bcd60e51b815260206004820152602760248201527f4469616d6f6e64506169723a20494e53554646494349454e545f4f555450555460448201526617d05353d5539560ca1b60648201526084015b60405180910390fd5b60008061041461091d565b5091509150816001600160701b0316871080156104395750806001600160701b031686105b6104915760405162461bcd60e51b815260206004820152602360248201527f4469616d6f6e64506169723a20494e53554646494349454e545f4c495155494460448201526249545960e81b6064820152608401610400565b60075460085460009182916001600160a01b039182169190811690891682148015906104cf5750806001600160a01b0316896001600160a01b031614155b61051b5760405162461bcd60e51b815260206004820152601760248201527f4469616d6f6e64506169723a20494e56414c49445f544f0000000000000000006044820152606401610400565b8a1561052c5761052c828a8d611354565b891561053d5761053d818a8c611354565b86156105aa57604051637d80065360e11b81526001600160a01b038a169063fb000ca6906105779033908f908f908e908e90600401611fef565b600060405180830381600087803b15801561059157600080fd5b505af11580156105a5573d6000803e3d6000fd5b505050505b6040516370a0823160e01b81523060048201526001600160a01b038316906370a0823190602401602060405180830381865afa1580156105ee573d6000803e3d6000fd5b505050506040513d601f19601f82011682018060405250810190610612919061203b565b6040516370a0823160e01b81523060048201529094506001600160a01b038216906370a0823190602401602060405180830381865afa158015610659573d6000803e3d6000fd5b505050506040513d601f19601f8201168201806040525081019061067d919061203b565b92505050600089856001600160701b0316610698919061206a565b83116106a55760006106c2565b6106b88a6001600160701b03871661206a565b6106c2908461206a565b905060006106d98a6001600160701b03871661206a565b83116106e6576000610703565b6106f98a6001600160701b03871661206a565b610703908461206a565b905060008211806107145750600081115b61076f5760405162461bcd60e51b815260206004820152602660248201527f4469616d6f6e64506169723a20494e53554646494349454e545f494e5055545f604482015265105353d5539560d21b6064820152608401610400565b600061079161077f846003611468565b61078b876103e8611468565b9061147b565b905060006107a361077f846003611468565b90506107c8620f42406107c26001600160701b038b8116908b16611468565b90611468565b6107d28383611468565b10156108115760405162461bcd60e51b815260206004820152600e60248201526d4469616d6f6e64506169723a204b60901b6044820152606401610400565b505061081f84848888611487565b60408051838152602081018390529081018c9052606081018b90526001600160a01b038a169033907fd78ad95fa46c994b6551d0da85fc275fe613ce37657fb8d5e3d130840159d8229060800160405180910390a35050505050506108846001600555565b5050505050565b60606003805461089a9061207d565b80601f01602080910402602001604051908101604052809291908181526020018280546108c69061207d565b80156109135780601f106108e857610100808354040283529160200191610913565b820191906000526020600020905b8154815290600101906020018083116108f657829003601f168201915b5050505050905090565b6009546001600160701b0380821692600160701b830490911691600160e01b900463ffffffff1690565b6000336109558185856116bb565b60019150505b92915050565b60003361096f8582856117e0565b61097a85858561185a565b506001949350505050565b60003361095581858561099883836111c6565b6109a291906120b1565b6116bb565b6006546001600160a01b031633146109fa5760405162461bcd60e51b81526020600482015260166024820152752234b0b6b7b7322830b4b91d102327a92124a22222a760511b6044820152606401610400565b600780546001600160a01b039384166001600160a01b03199182161790915560088054929093169116179055565b6000610a326112fb565b600080610a3d61091d565b506007546040516370a0823160e01b81523060048201529294509092506000916001600160a01b03909116906370a0823190602401602060405180830381865afa158015610a8f573d6000803e3d6000fd5b505050506040513d601f19601f82011682018060405250810190610ab3919061203b565b6008546040516370a0823160e01b81523060048201529192506000916001600160a01b03909116906370a0823190602401602060405180830381865afa158015610b01573d6000803e3d6000fd5b505050506040513d601f19601f82011682018060405250810190610b25919061203b565b90506000610b3c836001600160701b03871661147b565b90506000610b53836001600160701b03871661147b565b90506000610b6187876119fe565b90506000610b6e60025490565b905080600003610ba457610b906103e861078b610b8b8787611468565b611bb0565b9850610b9f60006103e8611c1f565b610beb565b610be86001600160701b038916610bbb8684611468565b610bc591906120da565b6001600160701b038916610bd98685611468565b610be391906120da565b611cde565b98505b60008911610c4e5760405162461bcd60e51b815260206004820152602a60248201527f4469616d6f6e64506169723a20494e53554646494349454e545f4c495155494460448201526912551657d3525395115160b21b6064820152608401610400565b610c588a8a611c1f565b610c6486868a8a611487565b8115610c8e57600954610c8a906001600160701b0380821691600160701b900416611468565b600c555b604080518581526020810185905233917f4c209b5fc8ad50758f13e2e1088ba56a560dff690a1c6fef26394f4c03821c4f910160405180910390a25050505050505050610cdb6001600555565b919050565b600080610ceb6112fb565b600080610cf661091d565b506007546008546040516370a0823160e01b81523060048201529395509193506001600160a01b039081169291169060009083906370a0823190602401602060405180830381865afa158015610d50573d6000803e3d6000fd5b505050506040513d601f19601f82011682018060405250810190610d74919061203b565b6040516370a0823160e01b81523060048201529091506000906001600160a01b038416906370a0823190602401602060405180830381865afa158015610dbe573d6000803e3d6000fd5b505050506040513d601f19601f82011682018060405250810190610de2919061203b565b30600090815260208190526040812054919250610dff88886119fe565b90506000610e0c60025490565b905080610e198487611468565b610e2391906120da565b9a5080610e308486611468565b610e3a91906120da565b995060008b118015610e4c575060008a115b610eab5760405162461bcd60e51b815260206004820152602a60248201527f4469616d6f6e64506169723a20494e53554646494349454e545f4c495155494460448201526912551657d0955493915160b21b6064820152608401610400565b610eb53084611cf4565b610ec0878d8d611354565b610ecb868d8c611354565b6040516370a0823160e01b81523060048201526001600160a01b038816906370a0823190602401602060405180830381865afa158015610f0f573d6000803e3d6000fd5b505050506040513d601f19601f82011682018060405250810190610f33919061203b565b6040516370a0823160e01b81523060048201529095506001600160a01b038716906370a0823190602401602060405180830381865afa158015610f7a573d6000803e3d6000fd5b505050506040513d601f19601f82011682018060405250810190610f9e919061203b565b9350610fac85858b8b611487565b8115610fd657600954610fd2906001600160701b0380821691600160701b900416611468565b600c555b604080518c8152602081018c90526001600160a01b038e169133917fdccd412f0b1252819cb1fd330b93224ca42612892bb3f4f789976e6d81936496910160405180910390a350505050505050505061102f6001600555565b915091565b60606004805461089a9061207d565b6000338161105182866111c6565b9050838110156110b15760405162461bcd60e51b815260206004820152602560248201527f45524332303a2064656372656173656420616c6c6f77616e63652062656c6f77604482015264207a65726f60d81b6064820152608401610400565b61097a82868684036116bb565b60003361095581858561185a565b6110d46112fb565b6007546008546009546040516370a0823160e01b81523060048201526001600160a01b03938416939092169161116a9184918691611165916001600160701b039091169084906370a08231906024015b602060405180830381865afa158015611141573d6000803e3d6000fd5b505050506040513d601f19601f8201168201806040525081019061078b919061203b565b611354565b6009546040516370a0823160e01b81523060048201526111b7918391869161116591600160701b9091046001600160701b0316906001600160a01b038516906370a0823190602401611124565b50506111c36001600555565b50565b6001600160a01b03918216600090815260016020908152604080832093909416825291909152205490565b6111f96112fb565b6007546040516370a0823160e01b81523060048201526112ef916001600160a01b0316906370a0823190602401602060405180830381865afa158015611243573d6000803e3d6000fd5b505050506040513d601f19601f82011682018060405250810190611267919061203b565b6008546040516370a0823160e01b81523060048201526001600160a01b03909116906370a0823190602401602060405180830381865afa1580156112af573d6000803e3d6000fd5b505050506040513d601f19601f820116820180604052508101906112d3919061203b565b6009546001600160701b0380821691600160701b900416611487565b6112f96001600555565b565b60026005540361134d5760405162461bcd60e51b815260206004820152601f60248201527f5265656e7472616e637947756172643a207265656e7472616e742063616c6c006044820152606401610400565b6002600555565b604080516001600160a01b038481166024830152604480830185905283518084039091018152606490920183526020820180516001600160e01b031663a9059cbb60e01b17905291516000928392908716916113b091906120ee565b6000604051808303816000865af19150503d80600081146113ed576040519150601f19603f3d011682016040523d82523d6000602084013e6113f2565b606091505b509150915081801561141c57508051158061141c57508080602001905181019061141c919061210a565b6108845760405162461bcd60e51b815260206004820152601c60248201527f4469616d6f6e64506169723a205452414e534645525f4641494c4544000000006044820152606401610400565b6000611474828461212c565b9392505050565b6000611474828461206a565b6001600160701b0384118015906114a557506001600160701b038311155b6114e95760405162461bcd60e51b81526020600482015260156024820152744469616d6f6e64506169723a204f564552464c4f5760581b6044820152606401610400565b60006114fa64010000000042612143565b60095490915060009061151a90600160e01b900463ffffffff1683612157565b905060008163ffffffff1611801561153a57506001600160701b03841615155b801561154e57506001600160701b03831615155b15611623576001600160701b038416156115bb578063ffffffff16846001600160701b0316846001600160701b0316670de0b6b3a7640000611590919061212c565b61159a91906120da565b6115a4919061212c565b600a60008282546115b591906120b1565b90915550505b6001600160701b03831615611623578063ffffffff16836001600160701b0316856001600160701b0316670de0b6b3a76400006115f8919061212c565b61160291906120da565b61160c919061212c565b600b600082825461161d91906120b1565b90915550505b6009805463ffffffff8416600160e01b026001600160e01b036001600160701b03898116600160701b9081026001600160e01b03199095168c83161794909417918216831794859055604080519382169282169290921783529290930490911660208201527f1c411e9a96e071241c2f21f7726b17ae89e3cab4c78be50e062b03a9fffbbad1910160405180910390a1505050505050565b6001600160a01b03831661171d5760405162461bcd60e51b8152602060048201526024808201527f45524332303a20617070726f76652066726f6d20746865207a65726f206164646044820152637265737360e01b6064820152608401610400565b6001600160a01b03821661177e5760405162461bcd60e51b815260206004820152602260248201527f45524332303a20617070726f766520746f20746865207a65726f206164647265604482015261737360f01b6064820152608401610400565b6001600160a01b0383811660008181526001602090815260408083209487168084529482529182902085905590518481527f8c5be1e5ebec7d5bd14f71427d1e84f3dd0314c0f7b2291e5b200ac8c7c3b92591015b60405180910390a3505050565b60006117ec84846111c6565b9050600019811461185457818110156118475760405162461bcd60e51b815260206004820152601d60248201527f45524332303a20696e73756666696369656e7420616c6c6f77616e63650000006044820152606401610400565b61185484848484036116bb565b50505050565b6001600160a01b0383166118be5760405162461bcd60e51b815260206004820152602560248201527f45524332303a207472616e736665722066726f6d20746865207a65726f206164604482015264647265737360d81b6064820152608401610400565b6001600160a01b0382166119205760405162461bcd60e51b815260206004820152602360248201527f45524332303a207472616e7366657220746f20746865207a65726f206164647260448201526265737360e81b6064820152608401610400565b6001600160a01b038316600090815260208190526040902054818110156119985760405162461bcd60e51b815260206004820152602660248201527f45524332303a207472616e7366657220616d6f756e7420657863656564732062604482015265616c616e636560d01b6064820152608401610400565b6001600160a01b03848116600081815260208181526040808320878703905593871680835291849020805487019055925185815290927fddf252ad1be2c89b69c2b068fc378daa952ba7f163c4a11628f55a4df523b3ef910160405180910390a3611854565b600080600660009054906101000a90046001600160a01b03166001600160a01b031663017e7e586040518163ffffffff1660e01b8152600401602060405180830381865afa158015611a54573d6000803e3d6000fd5b505050506040513d601f19601f82011682018060405250810190611a78919061217b565b600c546001600160a01b038216158015945091925090611b9c578015611b97576000611ab3610b8b6001600160701b03888116908816611468565b90506000611ac083611bb0565b905080821115611b94576000611ae1611ad9848461147b565b6002546107c2565b90506000611b7083611b6a600660009054906101000a90046001600160a01b03166001600160a01b0316632ff7042a6040518163ffffffff1660e01b8152600401602060405180830381865afa158015611b3f573d6000803e3d6000fd5b505050506040513d601f19601f82011682018060405250810190611b63919061203b565b8790611468565b90611e1e565b90506000611b7e82846120da565b90508015611b9057611b908782611c1f565b5050505b50505b611ba8565b8015611ba8576000600c555b505092915050565b60006003821115611c115750806000611bca6002836120da565b611bd59060016120b1565b90505b81811015611c0b57905080600281611bf081866120da565b611bfa91906120b1565b611c0491906120da565b9050611bd8565b50919050565b8115610cdb57506001919050565b6001600160a01b038216611c755760405162461bcd60e51b815260206004820152601f60248201527f45524332303a206d696e7420746f20746865207a65726f2061646472657373006044820152606401610400565b8060026000828254611c8791906120b1565b90915550506001600160a01b038216600081815260208181526040808320805486019055518481527fddf252ad1be2c89b69c2b068fc378daa952ba7f163c4a11628f55a4df523b3ef910160405180910390a35050565b6000818310611ced5781611474565b5090919050565b6001600160a01b038216611d545760405162461bcd60e51b815260206004820152602160248201527f45524332303a206275726e2066726f6d20746865207a65726f206164647265736044820152607360f81b6064820152608401610400565b6001600160a01b03821660009081526020819052604090205481811015611dc85760405162461bcd60e51b815260206004820152602260248201527f45524332303a206275726e20616d6f756e7420657863656564732062616c616e604482015261636560f01b6064820152608401610400565b6001600160a01b0383166000818152602081815260408083208686039055600280548790039055518581529192917fddf252ad1be2c89b69c2b068fc378daa952ba7f163c4a11628f55a4df523b3ef91016117d3565b600061147482846120b1565b6001600160a01b03811681146111c357600080fd5b600080600080600060808688031215611e5757600080fd5b85359450602086013593506040860135611e7081611e2a565b9250606086013567ffffffffffffffff80821115611e8d57600080fd5b818801915088601f830112611ea157600080fd5b813581811115611eb057600080fd5b896020828501011115611ec257600080fd5b9699959850939650602001949392505050565b60005b83811015611ef0578181015183820152602001611ed8565b50506000910152565b6020815260008251806020840152611f18816040850160208701611ed5565b601f01601f19169190910160400192915050565b60008060408385031215611f3f57600080fd5b8235611f4a81611e2a565b946020939093013593505050565b600080600060608486031215611f6d57600080fd5b8335611f7881611e2a565b92506020840135611f8881611e2a565b929592945050506040919091013590565b60008060408385031215611fac57600080fd5b8235611fb781611e2a565b91506020830135611fc781611e2a565b809150509250929050565b600060208284031215611fe457600080fd5b813561147481611e2a565b60018060a01b038616815284602082015283604082015260806060820152816080820152818360a0830137600081830160a090810191909152601f909201601f19160101949350505050565b60006020828403121561204d57600080fd5b5051919050565b634e487b7160e01b600052601160045260246000fd5b8181038181111561095b5761095b612054565b600181811c9082168061209157607f821691505b602082108103611c0b57634e487b7160e01b600052602260045260246000fd5b8082018082111561095b5761095b612054565b634e487b7160e01b600052601260045260246000fd5b6000826120e9576120e96120c4565b500490565b60008251612100818460208701611ed5565b9190910192915050565b60006020828403121561211c57600080fd5b8151801515811461147457600080fd5b808202811582820484141761095b5761095b612054565b600082612152576121526120c4565b500690565b63ffffffff82811682821603908082111561217457612174612054565b5092915050565b60006020828403121561218d57600080fd5b815161147481611e2a56fea26469706673582212203fb0a109400bdb19ac0713e9c9dda3c15d68cb87816043e6a4e9b556e73d56c964736f6c63430008110033a264697066735822122060a72b4bb0875d228e78994913f7571d2c37833cb05e6c63cb774013a98f020c64736f6c63430008110033","opcodes":"PUSH1 0x80 PUSH1 0x40 MSTORE PUSH1 0x5 PUSH1 0x4 SSTORE CALLVALUE DUP1 ISZERO PUSH2 0x15 JUMPI PUSH1 0x0 DUP1 REVERT JUMPDEST POP PUSH2 0x1F CALLER PUSH2 0x24 JUMP JUMPDEST PUSH2 0x74 JUMP JUMPDEST PUSH1 0x0 DUP1 SLOAD PUSH1 0x1 PUSH1 0x1 PUSH1 0xA0 SHL SUB DUP4 DUP2 AND PUSH1 0x1 PUSH1 0x1 PUSH1 0xA0 SHL SUB NOT DUP4 AND DUP2 OR DUP5 SSTORE PUSH1 0x40 MLOAD SWAP2 SWAP1 SWAP3 AND SWAP3 DUP4 SWAP2 PUSH32 0x8BE0079C531659141344CD1FD0A4F28419497F9722A3DAAFE3B4186F6B6457E0 SWAP2 SWAP1 LOG3 POP POP JUMP JUMPDEST PUSH2 0x2B6C DUP1 PUSH2 0x83 PUSH1 0x0 CODECOPY PUSH1 0x0 RETURN INVALID PUSH1 0x80 PUSH1 0x40 MSTORE CALLVALUE DUP1 ISZERO PUSH2 0x10 JUMPI PUSH1 0x0 DUP1 REVERT JUMPDEST POP PUSH1 0x4 CALLDATASIZE LT PUSH2 0xA9 JUMPI PUSH1 0x0 CALLDATALOAD PUSH1 0xE0 SHR DUP1 PUSH4 0x75ADCF2C GT PUSH2 0x71 JUMPI DUP1 PUSH4 0x75ADCF2C EQ PUSH2 0x11A JUMPI DUP1 PUSH4 0x8DA5CB5B EQ PUSH2 0x12D JUMPI DUP1 PUSH4 0xC9C65396 EQ PUSH2 0x13E JUMPI DUP1 PUSH4 0xE6A43905 EQ PUSH2 0x151 JUMPI DUP1 PUSH4 0xF2FDE38B EQ PUSH2 0x185 JUMPI DUP1 PUSH4 0xF46901ED EQ PUSH2 0x198 JUMPI PUSH1 0x0 DUP1 REVERT JUMPDEST DUP1 PUSH4 0x17E7E58 EQ PUSH2 0xAE JUMPI DUP1 PUSH4 0x1E3DD18B EQ PUSH2 0xDE JUMPI DUP1 PUSH4 0x2FF7042A EQ PUSH2 0xF1 JUMPI DUP1 PUSH4 0x574F2BA3 EQ PUSH2 0x108 JUMPI DUP1 PUSH4 0x715018A6 EQ PUSH2 0x110 JUMPI JUMPDEST PUSH1 0x0 DUP1 REVERT JUMPDEST PUSH1 0x3 SLOAD PUSH2 0xC1 SWAP1 PUSH1 0x1 PUSH1 0x1 PUSH1 0xA0 SHL SUB AND DUP2 JUMP JUMPDEST PUSH1 0x40 MLOAD PUSH1 0x1 PUSH1 0x1 PUSH1 0xA0 SHL SUB SWAP1 SWAP2 AND DUP2 MSTORE PUSH1 0x20 ADD JUMPDEST PUSH1 0x40 MLOAD DUP1 SWAP2 SUB SWAP1 RETURN JUMPDEST PUSH2 0xC1 PUSH2 0xEC CALLDATASIZE PUSH1 0x4 PUSH2 0x6C1 JUMP JUMPDEST PUSH2 0x1AB JUMP JUMPDEST PUSH2 0xFA PUSH1 0x4 SLOAD DUP2 JUMP JUMPDEST PUSH1 0x40 MLOAD SWAP1 DUP2 MSTORE PUSH1 0x20 ADD PUSH2 0xD5 JUMP JUMPDEST PUSH1 0x2 SLOAD PUSH2 0xFA JUMP JUMPDEST PUSH2 0x118 PUSH2 0x1D5 JUMP JUMPDEST STOP JUMPDEST PUSH2 0x118 PUSH2 0x128 CALLDATASIZE PUSH1 0x4 PUSH2 0x6C1 JUMP JUMPDEST PUSH2 0x1E9 JUMP JUMPDEST PUSH1 0x0 SLOAD PUSH1 0x1 PUSH1 0x1 PUSH1 0xA0 SHL SUB AND PUSH2 0xC1 JUMP JUMPDEST PUSH2 0xC1 PUSH2 0x14C CALLDATASIZE PUSH1 0x4 PUSH2 0x6F6 JUMP JUMPDEST PUSH2 0x257 JUMP JUMPDEST PUSH2 0xC1 PUSH2 0x15F CALLDATASIZE PUSH1 0x4 PUSH2 0x6F6 JUMP JUMPDEST PUSH1 0x1 PUSH1 0x20 SWAP1 DUP2 MSTORE PUSH1 0x0 SWAP3 DUP4 MSTORE PUSH1 0x40 DUP1 DUP5 KECCAK256 SWAP1 SWAP2 MSTORE SWAP1 DUP3 MSTORE SWAP1 KECCAK256 SLOAD PUSH1 0x1 PUSH1 0x1 PUSH1 0xA0 SHL SUB AND DUP2 JUMP JUMPDEST PUSH2 0x118 PUSH2 0x193 CALLDATASIZE PUSH1 0x4 PUSH2 0x729 JUMP JUMPDEST PUSH2 0x567 JUMP JUMPDEST PUSH2 0x118 PUSH2 0x1A6 CALLDATASIZE PUSH1 0x4 PUSH2 0x729 JUMP JUMPDEST PUSH2 0x5E0 JUMP JUMPDEST PUSH1 0x2 DUP2 DUP2 SLOAD DUP2 LT PUSH2 0x1BB JUMPI PUSH1 0x0 DUP1 REVERT JUMPDEST PUSH1 0x0 SWAP2 DUP3 MSTORE PUSH1 0x20 SWAP1 SWAP2 KECCAK256 ADD SLOAD PUSH1 0x1 PUSH1 0x1 PUSH1 0xA0 SHL SUB AND SWAP1 POP DUP2 JUMP JUMPDEST PUSH2 0x1DD PUSH2 0x60A JUMP JUMPDEST PUSH2 0x1E7 PUSH1 0x0 PUSH2 0x664 JUMP JUMPDEST JUMP JUMPDEST PUSH2 0x1F1 PUSH2 0x60A JUMP JUMPDEST PUSH1 0x0 DUP2 GT PUSH2 0x252 JUMPI PUSH1 0x40 MLOAD PUSH3 0x461BCD PUSH1 0xE5 SHL DUP2 MSTORE PUSH1 0x20 PUSH1 0x4 DUP3 ADD MSTORE PUSH1 0x23 PUSH1 0x24 DUP3 ADD MSTORE PUSH32 0x4469616D6F6E64466163746F72793A20494E56414C49445F44454E4F4D494E41 PUSH1 0x44 DUP3 ADD MSTORE PUSH3 0x2A27A9 PUSH1 0xE9 SHL PUSH1 0x64 DUP3 ADD MSTORE PUSH1 0x84 ADD JUMPDEST PUSH1 0x40 MLOAD DUP1 SWAP2 SUB SWAP1 REVERT JUMPDEST PUSH1 0x4 SSTORE JUMP JUMPDEST PUSH1 0x0 DUP2 PUSH1 0x1 PUSH1 0x1 PUSH1 0xA0 SHL SUB AND DUP4 PUSH1 0x1 PUSH1 0x1 PUSH1 0xA0 SHL SUB AND SUB PUSH2 0x2C6 JUMPI PUSH1 0x40 MLOAD PUSH3 0x461BCD PUSH1 0xE5 SHL DUP2 MSTORE PUSH1 0x20 PUSH1 0x4 DUP3 ADD MSTORE PUSH1 0x23 PUSH1 0x24 DUP3 ADD MSTORE PUSH32 0x4469616D6F6E64466163746F72793A204944454E544943414C5F414444524553 PUSH1 0x44 DUP3 ADD MSTORE PUSH3 0x534553 PUSH1 0xE8 SHL PUSH1 0x64 DUP3 ADD MSTORE PUSH1 0x84 ADD PUSH2 0x249 JUMP JUMPDEST PUSH1 0x0 DUP1 DUP4 PUSH1 0x1 PUSH1 0x1 PUSH1 0xA0 SHL SUB AND DUP6 PUSH1 0x1 PUSH1 0x1 PUSH1 0xA0 SHL SUB AND LT PUSH2 0x2E9 JUMPI DUP4 DUP6 PUSH2 0x2EC JUMP JUMPDEST DUP5 DUP5 JUMPDEST SWAP1 SWAP3 POP SWAP1 POP PUSH1 0x1 PUSH1 0x1 PUSH1 0xA0 SHL SUB DUP3 AND PUSH2 0x347 JUMPI PUSH1 0x40 MLOAD PUSH3 0x461BCD PUSH1 0xE5 SHL DUP2 MSTORE PUSH1 0x20 PUSH1 0x4 DUP3 ADD MSTORE PUSH1 0x1C PUSH1 0x24 DUP3 ADD MSTORE PUSH32 0x4469616D6F6E64466163746F72793A205A45524F5F4144445245535300000000 PUSH1 0x44 DUP3 ADD MSTORE PUSH1 0x64 ADD PUSH2 0x249 JUMP JUMPDEST PUSH1 0x1 PUSH1 0x1 PUSH1 0xA0 SHL SUB DUP3 DUP2 AND PUSH1 0x0 SWAP1 DUP2 MSTORE PUSH1 0x1 PUSH1 0x20 SWAP1 DUP2 MSTORE PUSH1 0x40 DUP1 DUP4 KECCAK256 DUP6 DUP6 AND DUP5 MSTORE SWAP1 SWAP2 MSTORE SWAP1 KECCAK256 SLOAD AND ISZERO PUSH2 0x3BC JUMPI PUSH1 0x40 MLOAD PUSH3 0x461BCD PUSH1 0xE5 SHL DUP2 MSTORE PUSH1 0x20 PUSH1 0x4 DUP3 ADD MSTORE PUSH1 0x1B PUSH1 0x24 DUP3 ADD MSTORE PUSH32 0x4469616D6F6E64466163746F72793A20504149525F4558495354530000000000 PUSH1 0x44 DUP3 ADD MSTORE PUSH1 0x64 ADD PUSH2 0x249 JUMP JUMPDEST PUSH1 0x0 PUSH1 0x40 MLOAD DUP1 PUSH1 0x20 ADD PUSH2 0x3CE SWAP1 PUSH2 0x6B4 JUMP JUMPDEST PUSH1 0x1F NOT DUP3 DUP3 SUB DUP2 ADD DUP4 MSTORE PUSH1 0x1F SWAP1 SWAP2 ADD AND PUSH1 0x40 DUP2 SWAP1 MSTORE PUSH12 0xFFFFFFFFFFFFFFFFFFFFFFFF NOT PUSH1 0x60 DUP7 DUP2 SHL DUP3 AND PUSH1 0x20 DUP5 ADD MSTORE DUP6 SWAP1 SHL AND PUSH1 0x34 DUP3 ADD MSTORE SWAP1 SWAP2 POP PUSH1 0x0 SWAP1 PUSH1 0x48 ADD PUSH1 0x40 MLOAD PUSH1 0x20 DUP2 DUP4 SUB SUB DUP2 MSTORE SWAP1 PUSH1 0x40 MSTORE DUP1 MLOAD SWAP1 PUSH1 0x20 ADD KECCAK256 SWAP1 POP DUP1 DUP3 MLOAD PUSH1 0x20 DUP5 ADD PUSH1 0x0 CREATE2 PUSH1 0x40 MLOAD PUSH4 0x485CC955 PUSH1 0xE0 SHL DUP2 MSTORE PUSH1 0x1 PUSH1 0x1 PUSH1 0xA0 SHL SUB DUP7 DUP2 AND PUSH1 0x4 DUP4 ADD MSTORE DUP6 DUP2 AND PUSH1 0x24 DUP4 ADD MSTORE SWAP2 SWAP7 POP SWAP1 DUP7 AND SWAP1 PUSH4 0x485CC955 SWAP1 PUSH1 0x44 ADD PUSH1 0x0 PUSH1 0x40 MLOAD DUP1 DUP4 SUB DUP2 PUSH1 0x0 DUP8 DUP1 EXTCODESIZE ISZERO DUP1 ISZERO PUSH2 0x480 JUMPI PUSH1 0x0 DUP1 REVERT JUMPDEST POP GAS CALL ISZERO DUP1 ISZERO PUSH2 0x494 JUMPI RETURNDATASIZE PUSH1 0x0 DUP1 RETURNDATACOPY RETURNDATASIZE PUSH1 0x0 REVERT JUMPDEST POP POP POP POP PUSH1 0x1 PUSH1 0x1 PUSH1 0xA0 SHL SUB DUP5 DUP2 AND PUSH1 0x0 DUP2 DUP2 MSTORE PUSH1 0x1 PUSH1 0x20 DUP2 DUP2 MSTORE PUSH1 0x40 DUP1 DUP5 KECCAK256 DUP10 DUP8 AND DUP1 DUP7 MSTORE SWAP1 DUP4 MSTORE DUP2 DUP6 KECCAK256 DUP1 SLOAD SWAP8 DUP14 AND PUSH1 0x1 PUSH1 0x1 PUSH1 0xA0 SHL SUB NOT SWAP9 DUP10 AND DUP2 OR SWAP1 SWAP2 SSTORE DUP5 DUP5 MSTORE DUP3 DUP7 KECCAK256 DUP8 DUP8 MSTORE DUP5 MSTORE DUP3 DUP7 KECCAK256 DUP1 SLOAD DUP10 AND DUP3 OR SWAP1 SSTORE PUSH1 0x2 DUP1 SLOAD SWAP6 DUP7 ADD DUP2 SSTORE SWAP6 DUP7 SWAP1 MSTORE PUSH32 0x405787FA12A823E0F2B7631CC41B3BA8828B3321CA811111FA75CD3AA3BB5ACE SWAP1 SWAP5 ADD DUP1 SLOAD SWAP1 SWAP8 AND DUP5 OR SWAP1 SWAP7 SSTORE SWAP3 SLOAD DUP4 MLOAD SWAP3 DUP4 MSTORE SWAP1 DUP3 ADD MSTORE PUSH32 0xD3648BD0F6BA80134A33BA9275AC585D9D315F0AD8355CDDEFDE31AFA28D0E9 SWAP2 ADD PUSH1 0x40 MLOAD DUP1 SWAP2 SUB SWAP1 LOG3 POP POP POP POP SWAP3 SWAP2 POP POP JUMP JUMPDEST PUSH2 0x56F PUSH2 0x60A JUMP JUMPDEST PUSH1 0x1 PUSH1 0x1 PUSH1 0xA0 SHL SUB DUP2 AND PUSH2 0x5D4 JUMPI PUSH1 0x40 MLOAD PUSH3 0x461BCD PUSH1 0xE5 SHL DUP2 MSTORE PUSH1 0x20 PUSH1 0x4 DUP3 ADD MSTORE PUSH1 0x26 PUSH1 0x24 DUP3 ADD MSTORE PUSH32 0x4F776E61626C653A206E6577206F776E657220697320746865207A65726F2061 PUSH1 0x44 DUP3 ADD MSTORE PUSH6 0x646472657373 PUSH1 0xD0 SHL PUSH1 0x64 DUP3 ADD MSTORE PUSH1 0x84 ADD PUSH2 0x249 JUMP JUMPDEST PUSH2 0x5DD DUP2 PUSH2 0x664 JUMP JUMPDEST POP JUMP JUMPDEST PUSH2 0x5E8 PUSH2 0x60A JUMP JUMPDEST PUSH1 0x3 DUP1 SLOAD PUSH1 0x1 PUSH1 0x1 PUSH1 0xA0 SHL SUB NOT AND PUSH1 0x1 PUSH1 0x1 PUSH1 0xA0 SHL SUB SWAP3 SWAP1 SWAP3 AND SWAP2 SWAP1 SWAP2 OR SWAP1 SSTORE JUMP JUMPDEST PUSH1 0x0 SLOAD PUSH1 0x1 PUSH1 0x1 PUSH1 0xA0 SHL SUB AND CALLER EQ PUSH2 0x1E7 JUMPI PUSH1 0x40 MLOAD PUSH3 0x461BCD PUSH1 0xE5 SHL DUP2 MSTORE PUSH1 0x20 PUSH1 0x4 DUP3 ADD DUP2 SWAP1 MSTORE PUSH1 0x24 DUP3 ADD MSTORE PUSH32 0x4F776E61626C653A2063616C6C6572206973206E6F7420746865206F776E6572 PUSH1 0x44 DUP3 ADD MSTORE PUSH1 0x64 ADD PUSH2 0x249 JUMP JUMPDEST PUSH1 0x0 DUP1 SLOAD PUSH1 0x1 PUSH1 0x1 PUSH1 0xA0 SHL SUB DUP4 DUP2 AND PUSH1 0x1 PUSH1 0x1 PUSH1 0xA0 SHL SUB NOT DUP4 AND DUP2 OR DUP5 SSTORE PUSH1 0x40 MLOAD SWAP2 SWAP1 SWAP3 AND SWAP3 DUP4 SWAP2 PUSH32 0x8BE0079C531659141344CD1FD0A4F28419497F9722A3DAAFE3B4186F6B6457E0 SWAP2 SWAP1 LOG3 POP POP JUMP JUMPDEST PUSH2 0x23EB DUP1 PUSH2 0x74C DUP4 CODECOPY ADD SWAP1 JUMP JUMPDEST PUSH1 0x0 PUSH1 0x20 DUP3 DUP5 SUB SLT ISZERO PUSH2 0x6D3 JUMPI PUSH1 0x0 DUP1 REVERT JUMPDEST POP CALLDATALOAD SWAP2 SWAP1 POP JUMP JUMPDEST DUP1 CALLDATALOAD PUSH1 0x1 PUSH1 0x1 PUSH1 0xA0 SHL SUB DUP2 AND DUP2 EQ PUSH2 0x6F1 JUMPI PUSH1 0x0 DUP1 REVERT JUMPDEST SWAP2 SWAP1 POP JUMP JUMPDEST PUSH1 0x0 DUP1 PUSH1 0x40 DUP4 DUP6 SUB SLT ISZERO PUSH2 0x709 JUMPI PUSH1 0x0 DUP1 REVERT JUMPDEST PUSH2 0x712 DUP4 PUSH2 0x6DA JUMP JUMPDEST SWAP2 POP PUSH2 0x720 PUSH1 0x20 DUP5 ADD PUSH2 0x6DA JUMP JUMPDEST SWAP1 POP SWAP3 POP SWAP3 SWAP1 POP JUMP JUMPDEST PUSH1 0x0 PUSH1 0x20 DUP3 DUP5 SUB SLT ISZERO PUSH2 0x73B JUMPI PUSH1 0x0 DUP1 REVERT JUMPDEST PUSH2 0x744 DUP3 PUSH2 0x6DA JUMP JUMPDEST SWAP4 SWAP3 POP POP POP JUMP INVALID PUSH1 0x80 PUSH1 0x40 MSTORE CALLVALUE DUP1 ISZERO PUSH3 0x11 JUMPI PUSH1 0x0 DUP1 REVERT JUMPDEST POP PUSH1 0x40 MLOAD DUP1 PUSH1 0x40 ADD PUSH1 0x40 MSTORE DUP1 PUSH1 0x11 DUP2 MSTORE PUSH1 0x20 ADD PUSH17 0x2234B0B6B7B7323D102628102A37B5B2B7 PUSH1 0x79 SHL DUP2 MSTORE POP PUSH1 0x40 MLOAD DUP1 PUSH1 0x40 ADD PUSH1 0x40 MSTORE DUP1 PUSH1 0x7 DUP2 MSTORE PUSH1 0x20 ADD PUSH7 0x444D445A2D4C5 PUSH1 0xCC SHL DUP2 MSTORE POP DUP2 PUSH1 0x3 SWAP1 DUP2 PUSH3 0x6D SWAP2 SWAP1 PUSH3 0x141 JUMP JUMPDEST POP PUSH1 0x4 PUSH3 0x7C DUP3 DUP3 PUSH3 0x141 JUMP JUMPDEST POP POP PUSH1 0x1 PUSH1 0x5 SSTORE POP PUSH1 0x6 DUP1 SLOAD PUSH1 0x1 PUSH1 0x1 PUSH1 0xA0 SHL SUB NOT AND CALLER OR SWAP1 SSTORE PUSH3 0x20D JUMP JUMPDEST PUSH4 0x4E487B71 PUSH1 0xE0 SHL PUSH1 0x0 MSTORE PUSH1 0x41 PUSH1 0x4 MSTORE PUSH1 0x24 PUSH1 0x0 REVERT JUMPDEST PUSH1 0x1 DUP2 DUP2 SHR SWAP1 DUP3 AND DUP1 PUSH3 0xC7 JUMPI PUSH1 0x7F DUP3 AND SWAP2 POP JUMPDEST PUSH1 0x20 DUP3 LT DUP2 SUB PUSH3 0xE8 JUMPI PUSH4 0x4E487B71 PUSH1 0xE0 SHL PUSH1 0x0 MSTORE PUSH1 0x22 PUSH1 0x4 MSTORE PUSH1 0x24 PUSH1 0x0 REVERT JUMPDEST POP SWAP2 SWAP1 POP JUMP JUMPDEST PUSH1 0x1F DUP3 GT ISZERO PUSH3 0x13C JUMPI PUSH1 0x0 DUP2 DUP2 MSTORE PUSH1 0x20 DUP2 KECCAK256 PUSH1 0x1F DUP6 ADD PUSH1 0x5 SHR DUP2 ADD PUSH1 0x20 DUP7 LT ISZERO PUSH3 0x117 JUMPI POP DUP1 JUMPDEST PUSH1 0x1F DUP6 ADD PUSH1 0x5 SHR DUP3 ADD SWAP2 POP JUMPDEST DUP2 DUP2 LT ISZERO PUSH3 0x138 JUMPI DUP3 DUP2 SSTORE PUSH1 0x1 ADD PUSH3 0x123 JUMP JUMPDEST POP POP POP JUMPDEST POP POP POP JUMP JUMPDEST DUP2 MLOAD PUSH1 0x1 PUSH1 0x1 PUSH1 0x40 SHL SUB DUP2 GT ISZERO PUSH3 0x15D JUMPI PUSH3 0x15D PUSH3 0x9C JUMP JUMPDEST PUSH3 0x175 DUP2 PUSH3 0x16E DUP5 SLOAD PUSH3 0xB2 JUMP JUMPDEST DUP5 PUSH3 0xEE JUMP JUMPDEST PUSH1 0x20 DUP1 PUSH1 0x1F DUP4 GT PUSH1 0x1 DUP2 EQ PUSH3 0x1AD JUMPI PUSH1 0x0 DUP5 ISZERO PUSH3 0x194 JUMPI POP DUP6 DUP4 ADD MLOAD JUMPDEST PUSH1 0x0 NOT PUSH1 0x3 DUP7 SWAP1 SHL SHR NOT AND PUSH1 0x1 DUP6 SWAP1 SHL OR DUP6 SSTORE PUSH3 0x138 JUMP JUMPDEST PUSH1 0x0 DUP6 DUP2 MSTORE PUSH1 0x20 DUP2 KECCAK256 PUSH1 0x1F NOT DUP7 AND SWAP2 JUMPDEST DUP3 DUP2 LT ISZERO PUSH3 0x1DE JUMPI DUP9 DUP7 ADD MLOAD DUP3 SSTORE SWAP5 DUP5 ADD SWAP5 PUSH1 0x1 SWAP1 SWAP2 ADD SWAP1 DUP5 ADD PUSH3 0x1BD JUMP JUMPDEST POP DUP6 DUP3 LT ISZERO PUSH3 0x1FD JUMPI DUP8 DUP6 ADD MLOAD PUSH1 0x0 NOT PUSH1 0x3 DUP9 SWAP1 SHL PUSH1 0xF8 AND SHR NOT AND DUP2 SSTORE JUMPDEST POP POP POP POP POP PUSH1 0x1 SWAP1 DUP2 SHL ADD SWAP1 SSTORE POP JUMP JUMPDEST PUSH2 0x21CE DUP1 PUSH3 0x21D PUSH1 0x0 CODECOPY PUSH1 0x0 RETURN INVALID PUSH1 0x80 PUSH1 0x40 MSTORE CALLVALUE DUP1 ISZERO PUSH2 0x10 JUMPI PUSH1 0x0 DUP1 REVERT JUMPDEST POP PUSH1 0x4 CALLDATASIZE LT PUSH2 0x173 JUMPI PUSH1 0x0 CALLDATALOAD PUSH1 0xE0 SHR DUP1 PUSH4 0x6A627842 GT PUSH2 0xDE JUMPI DUP1 PUSH4 0xA9059CBB GT PUSH2 0x97 JUMPI DUP1 PUSH4 0xC45A0155 GT PUSH2 0x71 JUMPI DUP1 PUSH4 0xC45A0155 EQ PUSH2 0x350 JUMPI DUP1 PUSH4 0xD21220A7 EQ PUSH2 0x363 JUMPI DUP1 PUSH4 0xDD62ED3E EQ PUSH2 0x376 JUMPI DUP1 PUSH4 0xFFF6CAE9 EQ PUSH2 0x389 JUMPI PUSH1 0x0 DUP1 REVERT JUMPDEST DUP1 PUSH4 0xA9059CBB EQ PUSH2 0x321 JUMPI DUP1 PUSH4 0xBA9A7A56 EQ PUSH2 0x334 JUMPI DUP1 PUSH4 0xBC25CF77 EQ PUSH2 0x33D JUMPI PUSH1 0x0 DUP1 REVERT JUMPDEST DUP1 PUSH4 0x6A627842 EQ PUSH2 0x299 JUMPI DUP1 PUSH4 0x70A08231 EQ PUSH2 0x2AC JUMPI DUP1 PUSH4 0x7464FC3D EQ PUSH2 0x2D5 JUMPI DUP1 PUSH4 0x89AFCB44 EQ PUSH2 0x2DE JUMPI DUP1 PUSH4 0x95D89B41 EQ PUSH2 0x306 JUMPI DUP1 PUSH4 0xA457C2D7 EQ PUSH2 0x30E JUMPI PUSH1 0x0 DUP1 REVERT JUMPDEST DUP1 PUSH4 0x23B872DD GT PUSH2 0x130 JUMPI DUP1 PUSH4 0x23B872DD EQ PUSH2 0x23F JUMPI DUP1 PUSH4 0x313CE567 EQ PUSH2 0x252 JUMPI DUP1 PUSH4 0x39509351 EQ PUSH2 0x261 JUMPI DUP1 PUSH4 0x485CC955 EQ PUSH2 0x274 JUMPI DUP1 PUSH4 0x5909C0D5 EQ PUSH2 0x287 JUMPI DUP1 PUSH4 0x5A3D5493 EQ PUSH2 0x290 JUMPI PUSH1 0x0 DUP1 REVERT JUMPDEST DUP1 PUSH4 0x22C0D9F EQ PUSH2 0x178 JUMPI DUP1 PUSH4 0x6FDDE03 EQ PUSH2 0x18D JUMPI DUP1 PUSH4 0x902F1AC EQ PUSH2 0x1AB JUMPI DUP1 PUSH4 0x95EA7B3 EQ PUSH2 0x1DF JUMPI DUP1 PUSH4 0xDFE1681 EQ PUSH2 0x202 JUMPI DUP1 PUSH4 0x18160DDD EQ PUSH2 0x22D JUMPI JUMPDEST PUSH1 0x0 DUP1 REVERT JUMPDEST PUSH2 0x18B PUSH2 0x186 CALLDATASIZE PUSH1 0x4 PUSH2 0x1E3F JUMP JUMPDEST PUSH2 0x391 JUMP JUMPDEST STOP JUMPDEST PUSH2 0x195 PUSH2 0x88B JUMP JUMPDEST PUSH1 0x40 MLOAD PUSH2 0x1A2 SWAP2 SWAP1 PUSH2 0x1EF9 JUMP JUMPDEST PUSH1 0x40 MLOAD DUP1 SWAP2 SUB SWAP1 RETURN JUMPDEST PUSH2 0x1B3 PUSH2 0x91D JUMP JUMPDEST PUSH1 0x40 DUP1 MLOAD PUSH1 0x1 PUSH1 0x1 PUSH1 0x70 SHL SUB SWAP5 DUP6 AND DUP2 MSTORE SWAP4 SWAP1 SWAP3 AND PUSH1 0x20 DUP5 ADD MSTORE PUSH4 0xFFFFFFFF AND SWAP1 DUP3 ADD MSTORE PUSH1 0x60 ADD PUSH2 0x1A2 JUMP JUMPDEST PUSH2 0x1F2 PUSH2 0x1ED CALLDATASIZE PUSH1 0x4 PUSH2 0x1F2C JUMP JUMPDEST PUSH2 0x947 JUMP JUMPDEST PUSH1 0x40 MLOAD SWAP1 ISZERO ISZERO DUP2 MSTORE PUSH1 0x20 ADD PUSH2 0x1A2 JUMP JUMPDEST PUSH1 0x7 SLOAD PUSH2 0x215 SWAP1 PUSH1 0x1 PUSH1 0x1 PUSH1 0xA0 SHL SUB AND DUP2 JUMP JUMPDEST PUSH1 0x40 MLOAD PUSH1 0x1 PUSH1 0x1 PUSH1 0xA0 SHL SUB SWAP1 SWAP2 AND DUP2 MSTORE PUSH1 0x20 ADD PUSH2 0x1A2 JUMP JUMPDEST PUSH1 0x2 SLOAD JUMPDEST PUSH1 0x40 MLOAD SWAP1 DUP2 MSTORE PUSH1 0x20 ADD PUSH2 0x1A2 JUMP JUMPDEST PUSH2 0x1F2 PUSH2 0x24D CALLDATASIZE PUSH1 0x4 PUSH2 0x1F58 JUMP JUMPDEST PUSH2 0x961 JUMP JUMPDEST PUSH1 0x40 MLOAD PUSH1 0x12 DUP2 MSTORE PUSH1 0x20 ADD PUSH2 0x1A2 JUMP JUMPDEST PUSH2 0x1F2 PUSH2 0x26F CALLDATASIZE PUSH1 0x4 PUSH2 0x1F2C JUMP JUMPDEST PUSH2 0x985 JUMP JUMPDEST PUSH2 0x18B PUSH2 0x282 CALLDATASIZE PUSH1 0x4 PUSH2 0x1F99 JUMP JUMPDEST PUSH2 0x9A7 JUMP JUMPDEST PUSH2 0x231 PUSH1 0xA SLOAD DUP2 JUMP JUMPDEST PUSH2 0x231 PUSH1 0xB SLOAD DUP2 JUMP JUMPDEST PUSH2 0x231 PUSH2 0x2A7 CALLDATASIZE PUSH1 0x4 PUSH2 0x1FD2 JUMP JUMPDEST PUSH2 0xA28 JUMP JUMPDEST PUSH2 0x231 PUSH2 0x2BA CALLDATASIZE PUSH1 0x4 PUSH2 0x1FD2 JUMP JUMPDEST PUSH1 0x1 PUSH1 0x1 PUSH1 0xA0 SHL SUB AND PUSH1 0x0 SWAP1 DUP2 MSTORE PUSH1 0x20 DUP2 SWAP1 MSTORE PUSH1 0x40 SWAP1 KECCAK256 SLOAD SWAP1 JUMP JUMPDEST PUSH2 0x231 PUSH1 0xC SLOAD DUP2 JUMP JUMPDEST PUSH2 0x2F1 PUSH2 0x2EC CALLDATASIZE PUSH1 0x4 PUSH2 0x1FD2 JUMP JUMPDEST PUSH2 0xCE0 JUMP JUMPDEST PUSH1 0x40 DUP1 MLOAD SWAP3 DUP4 MSTORE PUSH1 0x20 DUP4 ADD SWAP2 SWAP1 SWAP2 MSTORE ADD PUSH2 0x1A2 JUMP JUMPDEST PUSH2 0x195 PUSH2 0x1034 JUMP JUMPDEST PUSH2 0x1F2 PUSH2 0x31C CALLDATASIZE PUSH1 0x4 PUSH2 0x1F2C JUMP JUMPDEST PUSH2 0x1043 JUMP JUMPDEST PUSH2 0x1F2 PUSH2 0x32F CALLDATASIZE PUSH1 0x4 PUSH2 0x1F2C JUMP JUMPDEST PUSH2 0x10BE JUMP JUMPDEST PUSH2 0x231 PUSH2 0x3E8 DUP2 JUMP JUMPDEST PUSH2 0x18B PUSH2 0x34B CALLDATASIZE PUSH1 0x4 PUSH2 0x1FD2 JUMP JUMPDEST PUSH2 0x10CC JUMP JUMPDEST PUSH1 0x6 SLOAD PUSH2 0x215 SWAP1 PUSH1 0x1 PUSH1 0x1 PUSH1 0xA0 SHL SUB AND DUP2 JUMP JUMPDEST PUSH1 0x8 SLOAD PUSH2 0x215 SWAP1 PUSH1 0x1 PUSH1 0x1 PUSH1 0xA0 SHL SUB AND DUP2 JUMP JUMPDEST PUSH2 0x231 PUSH2 0x384 CALLDATASIZE PUSH1 0x4 PUSH2 0x1F99 JUMP JUMPDEST PUSH2 0x11C6 JUMP JUMPDEST PUSH2 0x18B PUSH2 0x11F1 JUMP JUMPDEST PUSH2 0x399 PUSH2 0x12FB JUMP JUMPDEST PUSH1 0x0 DUP6 GT DUP1 PUSH2 0x3A8 JUMPI POP PUSH1 0x0 DUP5 GT JUMPDEST PUSH2 0x409 JUMPI PUSH1 0x40 MLOAD PUSH3 0x461BCD PUSH1 0xE5 SHL DUP2 MSTORE PUSH1 0x20 PUSH1 0x4 DUP3 ADD MSTORE PUSH1 0x27 PUSH1 0x24 DUP3 ADD MSTORE PUSH32 0x4469616D6F6E64506169723A20494E53554646494349454E545F4F5554505554 PUSH1 0x44 DUP3 ADD MSTORE PUSH7 0x17D05353D55395 PUSH1 0xCA SHL PUSH1 0x64 DUP3 ADD MSTORE PUSH1 0x84 ADD JUMPDEST PUSH1 0x40 MLOAD DUP1 SWAP2 SUB SWAP1 REVERT JUMPDEST PUSH1 0x0 DUP1 PUSH2 0x414 PUSH2 0x91D JUMP JUMPDEST POP SWAP2 POP SWAP2 POP DUP2 PUSH1 0x1 PUSH1 0x1 PUSH1 0x70 SHL SUB AND DUP8 LT DUP1 ISZERO PUSH2 0x439 JUMPI POP DUP1 PUSH1 0x1 PUSH1 0x1 PUSH1 0x70 SHL SUB AND DUP7 LT JUMPDEST PUSH2 0x491 JUMPI PUSH1 0x40 MLOAD PUSH3 0x461BCD PUSH1 0xE5 SHL DUP2 MSTORE PUSH1 0x20 PUSH1 0x4 DUP3 ADD MSTORE PUSH1 0x23 PUSH1 0x24 DUP3 ADD MSTORE PUSH32 0x4469616D6F6E64506169723A20494E53554646494349454E545F4C4951554944 PUSH1 0x44 DUP3 ADD MSTORE PUSH3 0x495459 PUSH1 0xE8 SHL PUSH1 0x64 DUP3 ADD MSTORE PUSH1 0x84 ADD PUSH2 0x400 JUMP JUMPDEST PUSH1 0x7 SLOAD PUSH1 0x8 SLOAD PUSH1 0x0 SWAP2 DUP3 SWAP2 PUSH1 0x1 PUSH1 0x1 PUSH1 0xA0 SHL SUB SWAP2 DUP3 AND SWAP2 SWAP1 DUP2 AND SWAP1 DUP10 AND DUP3 EQ DUP1 ISZERO SWAP1 PUSH2 0x4CF JUMPI POP DUP1 PUSH1 0x1 PUSH1 0x1 PUSH1 0xA0 SHL SUB AND DUP10 PUSH1 0x1 PUSH1 0x1 PUSH1 0xA0 SHL SUB AND EQ ISZERO JUMPDEST PUSH2 0x51B JUMPI PUSH1 0x40 MLOAD PUSH3 0x461BCD PUSH1 0xE5 SHL DUP2 MSTORE PUSH1 0x20 PUSH1 0x4 DUP3 ADD MSTORE PUSH1 0x17 PUSH1 0x24 DUP3 ADD MSTORE PUSH32 0x4469616D6F6E64506169723A20494E56414C49445F544F000000000000000000 PUSH1 0x44 DUP3 ADD MSTORE PUSH1 0x64 ADD PUSH2 0x400 JUMP JUMPDEST DUP11 ISZERO PUSH2 0x52C JUMPI PUSH2 0x52C DUP3 DUP11 DUP14 PUSH2 0x1354 JUMP JUMPDEST DUP10 ISZERO PUSH2 0x53D JUMPI PUSH2 0x53D DUP2 DUP11 DUP13 PUSH2 0x1354 JUMP JUMPDEST DUP7 ISZERO PUSH2 0x5AA JUMPI PUSH1 0x40 MLOAD PUSH4 0x7D800653 PUSH1 0xE1 SHL DUP2 MSTORE PUSH1 0x1 PUSH1 0x1 PUSH1 0xA0 SHL SUB DUP11 AND SWAP1 PUSH4 0xFB000CA6 SWAP1 PUSH2 0x577 SWAP1 CALLER SWAP1 DUP16 SWAP1 DUP16 SWAP1 DUP15 SWAP1 DUP15 SWAP1 PUSH1 0x4 ADD PUSH2 0x1FEF JUMP JUMPDEST PUSH1 0x0 PUSH1 0x40 MLOAD DUP1 DUP4 SUB DUP2 PUSH1 0x0 DUP8 DUP1 EXTCODESIZE ISZERO DUP1 ISZERO PUSH2 0x591 JUMPI PUSH1 0x0 DUP1 REVERT JUMPDEST POP GAS CALL ISZERO DUP1 ISZERO PUSH2 0x5A5 JUMPI RETURNDATASIZE PUSH1 0x0 DUP1 RETURNDATACOPY RETURNDATASIZE PUSH1 0x0 REVERT JUMPDEST POP POP POP POP JUMPDEST PUSH1 0x40 MLOAD PUSH4 0x70A08231 PUSH1 0xE0 SHL DUP2 MSTORE ADDRESS PUSH1 0x4 DUP3 ADD MSTORE PUSH1 0x1 PUSH1 0x1 PUSH1 0xA0 SHL SUB DUP4 AND SWAP1 PUSH4 0x70A08231 SWAP1 PUSH1 0x24 ADD PUSH1 0x20 PUSH1 0x40 MLOAD DUP1 DUP4 SUB DUP2 DUP7 GAS STATICCALL ISZERO DUP1 ISZERO PUSH2 0x5EE JUMPI RETURNDATASIZE PUSH1 0x0 DUP1 RETURNDATACOPY RETURNDATASIZE PUSH1 0x0 REVERT JUMPDEST POP POP POP POP PUSH1 0x40 MLOAD RETURNDATASIZE PUSH1 0x1F NOT PUSH1 0x1F DUP3 ADD AND DUP3 ADD DUP1 PUSH1 0x40 MSTORE POP DUP2 ADD SWAP1 PUSH2 0x612 SWAP2 SWAP1 PUSH2 0x203B JUMP JUMPDEST PUSH1 0x40 MLOAD PUSH4 0x70A08231 PUSH1 0xE0 SHL DUP2 MSTORE ADDRESS PUSH1 0x4 DUP3 ADD MSTORE SWAP1 SWAP5 POP PUSH1 0x1 PUSH1 0x1 PUSH1 0xA0 SHL SUB DUP3 AND SWAP1 PUSH4 0x70A08231 SWAP1 PUSH1 0x24 ADD PUSH1 0x20 PUSH1 0x40 MLOAD DUP1 DUP4 SUB DUP2 DUP7 GAS STATICCALL ISZERO DUP1 ISZERO PUSH2 0x659 JUMPI RETURNDATASIZE PUSH1 0x0 DUP1 RETURNDATACOPY RETURNDATASIZE PUSH1 0x0 REVERT JUMPDEST POP POP POP POP PUSH1 0x40 MLOAD RETURNDATASIZE PUSH1 0x1F NOT PUSH1 0x1F DUP3 ADD AND DUP3 ADD DUP1 PUSH1 0x40 MSTORE POP DUP2 ADD SWAP1 PUSH2 0x67D SWAP2 SWAP1 PUSH2 0x203B JUMP JUMPDEST SWAP3 POP POP POP PUSH1 0x0 DUP10 DUP6 PUSH1 0x1 PUSH1 0x1 PUSH1 0x70 SHL SUB AND PUSH2 0x698 SWAP2 SWAP1 PUSH2 0x206A JUMP JUMPDEST DUP4 GT PUSH2 0x6A5 JUMPI PUSH1 0x0 PUSH2 0x6C2 JUMP JUMPDEST PUSH2 0x6B8 DUP11 PUSH1 0x1 PUSH1 0x1 PUSH1 0x70 SHL SUB DUP8 AND PUSH2 0x206A JUMP JUMPDEST PUSH2 0x6C2 SWAP1 DUP5 PUSH2 0x206A JUMP JUMPDEST SWAP1 POP PUSH1 0x0 PUSH2 0x6D9 DUP11 PUSH1 0x1 PUSH1 0x1 PUSH1 0x70 SHL SUB DUP8 AND PUSH2 0x206A JUMP JUMPDEST DUP4 GT PUSH2 0x6E6 JUMPI PUSH1 0x0 PUSH2 0x703 JUMP JUMPDEST PUSH2 0x6F9 DUP11 PUSH1 0x1 PUSH1 0x1 PUSH1 0x70 SHL SUB DUP8 AND PUSH2 0x206A JUMP JUMPDEST PUSH2 0x703 SWAP1 DUP5 PUSH2 0x206A JUMP JUMPDEST SWAP1 POP PUSH1 0x0 DUP3 GT DUP1 PUSH2 0x714 JUMPI POP PUSH1 0x0 DUP2 GT JUMPDEST PUSH2 0x76F JUMPI PUSH1 0x40 MLOAD PUSH3 0x461BCD PUSH1 0xE5 SHL DUP2 MSTORE PUSH1 0x20 PUSH1 0x4 DUP3 ADD MSTORE PUSH1 0x26 PUSH1 0x24 DUP3 ADD MSTORE PUSH32 0x4469616D6F6E64506169723A20494E53554646494349454E545F494E5055545F PUSH1 0x44 DUP3 ADD MSTORE PUSH6 0x105353D55395 PUSH1 0xD2 SHL PUSH1 0x64 DUP3 ADD MSTORE PUSH1 0x84 ADD PUSH2 0x400 JUMP JUMPDEST PUSH1 0x0 PUSH2 0x791 PUSH2 0x77F DUP5 PUSH1 0x3 PUSH2 0x1468 JUMP JUMPDEST PUSH2 0x78B DUP8 PUSH2 0x3E8 PUSH2 0x1468 JUMP JUMPDEST SWAP1 PUSH2 0x147B JUMP JUMPDEST SWAP1 POP PUSH1 0x0 PUSH2 0x7A3 PUSH2 0x77F DUP5 PUSH1 0x3 PUSH2 0x1468 JUMP JUMPDEST SWAP1 POP PUSH2 0x7C8 PUSH3 0xF4240 PUSH2 0x7C2 PUSH1 0x1 PUSH1 0x1 PUSH1 0x70 SHL SUB DUP12 DUP2 AND SWAP1 DUP12 AND PUSH2 0x1468 JUMP JUMPDEST SWAP1 PUSH2 0x1468 JUMP JUMPDEST PUSH2 0x7D2 DUP4 DUP4 PUSH2 0x1468 JUMP JUMPDEST LT ISZERO PUSH2 0x811 JUMPI PUSH1 0x40 MLOAD PUSH3 0x461BCD PUSH1 0xE5 SHL DUP2 MSTORE PUSH1 0x20 PUSH1 0x4 DUP3 ADD MSTORE PUSH1 0xE PUSH1 0x24 DUP3 ADD MSTORE PUSH14 0x4469616D6F6E64506169723A204B PUSH1 0x90 SHL PUSH1 0x44 DUP3 ADD MSTORE PUSH1 0x64 ADD PUSH2 0x400 JUMP JUMPDEST POP POP PUSH2 0x81F DUP5 DUP5 DUP9 DUP9 PUSH2 0x1487 JUMP JUMPDEST PUSH1 0x40 DUP1 MLOAD DUP4 DUP2 MSTORE PUSH1 0x20 DUP2 ADD DUP4 SWAP1 MSTORE SWAP1 DUP2 ADD DUP13 SWAP1 MSTORE PUSH1 0x60 DUP2 ADD DUP12 SWAP1 MSTORE PUSH1 0x1 PUSH1 0x1 PUSH1 0xA0 SHL SUB DUP11 AND SWAP1 CALLER SWAP1 PUSH32 0xD78AD95FA46C994B6551D0DA85FC275FE613CE37657FB8D5E3D130840159D822 SWAP1 PUSH1 0x80 ADD PUSH1 0x40 MLOAD DUP1 SWAP2 SUB SWAP1 LOG3 POP POP POP POP POP POP PUSH2 0x884 PUSH1 0x1 PUSH1 0x5 SSTORE JUMP JUMPDEST POP POP POP POP POP JUMP JUMPDEST PUSH1 0x60 PUSH1 0x3 DUP1 SLOAD PUSH2 0x89A SWAP1 PUSH2 0x207D JUMP JUMPDEST DUP1 PUSH1 0x1F ADD PUSH1 0x20 DUP1 SWAP2 DIV MUL PUSH1 0x20 ADD PUSH1 0x40 MLOAD SWAP1 DUP2 ADD PUSH1 0x40 MSTORE DUP1 SWAP3 SWAP2 SWAP1 DUP2 DUP2 MSTORE PUSH1 0x20 ADD DUP3 DUP1 SLOAD PUSH2 0x8C6 SWAP1 PUSH2 0x207D JUMP JUMPDEST DUP1 ISZERO PUSH2 0x913 JUMPI DUP1 PUSH1 0x1F LT PUSH2 0x8E8 JUMPI PUSH2 0x100 DUP1 DUP4 SLOAD DIV MUL DUP4 MSTORE SWAP2 PUSH1 0x20 ADD SWAP2 PUSH2 0x913 JUMP JUMPDEST DUP3 ADD SWAP2 SWAP1 PUSH1 0x0 MSTORE PUSH1 0x20 PUSH1 0x0 KECCAK256 SWAP1 JUMPDEST DUP2 SLOAD DUP2 MSTORE SWAP1 PUSH1 0x1 ADD SWAP1 PUSH1 0x20 ADD DUP1 DUP4 GT PUSH2 0x8F6 JUMPI DUP3 SWAP1 SUB PUSH1 0x1F AND DUP3 ADD SWAP2 JUMPDEST POP POP POP POP POP SWAP1 POP SWAP1 JUMP JUMPDEST PUSH1 0x9 SLOAD PUSH1 0x1 PUSH1 0x1 PUSH1 0x70 SHL SUB DUP1 DUP3 AND SWAP3 PUSH1 0x1 PUSH1 0x70 SHL DUP4 DIV SWAP1 SWAP2 AND SWAP2 PUSH1 0x1 PUSH1 0xE0 SHL SWAP1 DIV PUSH4 0xFFFFFFFF AND SWAP1 JUMP JUMPDEST PUSH1 0x0 CALLER PUSH2 0x955 DUP2 DUP6 DUP6 PUSH2 0x16BB JUMP JUMPDEST PUSH1 0x1 SWAP2 POP POP JUMPDEST SWAP3 SWAP2 POP POP JUMP JUMPDEST PUSH1 0x0 CALLER PUSH2 0x96F DUP6 DUP3 DUP6 PUSH2 0x17E0 JUMP JUMPDEST PUSH2 0x97A DUP6 DUP6 DUP6 PUSH2 0x185A JUMP JUMPDEST POP PUSH1 0x1 SWAP5 SWAP4 POP POP POP POP JUMP JUMPDEST PUSH1 0x0 CALLER PUSH2 0x955 DUP2 DUP6 DUP6 PUSH2 0x998 DUP4 DUP4 PUSH2 0x11C6 JUMP JUMPDEST PUSH2 0x9A2 SWAP2 SWAP1 PUSH2 0x20B1 JUMP JUMPDEST PUSH2 0x16BB JUMP JUMPDEST PUSH1 0x6 SLOAD PUSH1 0x1 PUSH1 0x1 PUSH1 0xA0 SHL SUB AND CALLER EQ PUSH2 0x9FA JUMPI PUSH1 0x40 MLOAD PUSH3 0x461BCD PUSH1 0xE5 SHL DUP2 MSTORE PUSH1 0x20 PUSH1 0x4 DUP3 ADD MSTORE PUSH1 0x16 PUSH1 0x24 DUP3 ADD MSTORE PUSH22 0x2234B0B6B7B7322830B4B91D102327A92124A22222A7 PUSH1 0x51 SHL PUSH1 0x44 DUP3 ADD MSTORE PUSH1 0x64 ADD PUSH2 0x400 JUMP JUMPDEST PUSH1 0x7 DUP1 SLOAD PUSH1 0x1 PUSH1 0x1 PUSH1 0xA0 SHL SUB SWAP4 DUP5 AND PUSH1 0x1 PUSH1 0x1 PUSH1 0xA0 SHL SUB NOT SWAP2 DUP3 AND OR SWAP1 SWAP2 SSTORE PUSH1 0x8 DUP1 SLOAD SWAP3 SWAP1 SWAP4 AND SWAP2 AND OR SWAP1 SSTORE JUMP JUMPDEST PUSH1 0x0 PUSH2 0xA32 PUSH2 0x12FB JUMP JUMPDEST PUSH1 0x0 DUP1 PUSH2 0xA3D PUSH2 0x91D JUMP JUMPDEST POP PUSH1 0x7 SLOAD PUSH1 0x40 MLOAD PUSH4 0x70A08231 PUSH1 0xE0 SHL DUP2 MSTORE ADDRESS PUSH1 0x4 DUP3 ADD MSTORE SWAP3 SWAP5 POP SWAP1 SWAP3 POP PUSH1 0x0 SWAP2 PUSH1 0x1 PUSH1 0x1 PUSH1 0xA0 SHL SUB SWAP1 SWAP2 AND SWAP1 PUSH4 0x70A08231 SWAP1 PUSH1 0x24 ADD PUSH1 0x20 PUSH1 0x40 MLOAD DUP1 DUP4 SUB DUP2 DUP7 GAS STATICCALL ISZERO DUP1 ISZERO PUSH2 0xA8F JUMPI RETURNDATASIZE PUSH1 0x0 DUP1 RETURNDATACOPY RETURNDATASIZE PUSH1 0x0 REVERT JUMPDEST POP POP POP POP PUSH1 0x40 MLOAD RETURNDATASIZE PUSH1 0x1F NOT PUSH1 0x1F DUP3 ADD AND DUP3 ADD DUP1 PUSH1 0x40 MSTORE POP DUP2 ADD SWAP1 PUSH2 0xAB3 SWAP2 SWAP1 PUSH2 0x203B JUMP JUMPDEST PUSH1 0x8 SLOAD PUSH1 0x40 MLOAD PUSH4 0x70A08231 PUSH1 0xE0 SHL DUP2 MSTORE ADDRESS PUSH1 0x4 DUP3 ADD MSTORE SWAP2 SWAP3 POP PUSH1 0x0 SWAP2 PUSH1 0x1 PUSH1 0x1 PUSH1 0xA0 SHL SUB SWAP1 SWAP2 AND SWAP1 PUSH4 0x70A08231 SWAP1 PUSH1 0x24 ADD PUSH1 0x20 PUSH1 0x40 MLOAD DUP1 DUP4 SUB DUP2 DUP7 GAS STATICCALL ISZERO DUP1 ISZERO PUSH2 0xB01 JUMPI RETURNDATASIZE PUSH1 0x0 DUP1 RETURNDATACOPY RETURNDATASIZE PUSH1 0x0 REVERT JUMPDEST POP POP POP POP PUSH1 0x40 MLOAD RETURNDATASIZE PUSH1 0x1F NOT PUSH1 0x1F DUP3 ADD AND DUP3 ADD DUP1 PUSH1 0x40 MSTORE POP DUP2 ADD SWAP1 PUSH2 0xB25 SWAP2 SWAP1 PUSH2 0x203B JUMP JUMPDEST SWAP1 POP PUSH1 0x0 PUSH2 0xB3C DUP4 PUSH1 0x1 PUSH1 0x1 PUSH1 0x70 SHL SUB DUP8 AND PUSH2 0x147B JUMP JUMPDEST SWAP1 POP PUSH1 0x0 PUSH2 0xB53 DUP4 PUSH1 0x1 PUSH1 0x1 PUSH1 0x70 SHL SUB DUP8 AND PUSH2 0x147B JUMP JUMPDEST SWAP1 POP PUSH1 0x0 PUSH2 0xB61 DUP8 DUP8 PUSH2 0x19FE JUMP JUMPDEST SWAP1 POP PUSH1 0x0 PUSH2 0xB6E PUSH1 0x2 SLOAD SWAP1 JUMP JUMPDEST SWAP1 POP DUP1 PUSH1 0x0 SUB PUSH2 0xBA4 JUMPI PUSH2 0xB90 PUSH2 0x3E8 PUSH2 0x78B PUSH2 0xB8B DUP8 DUP8 PUSH2 0x1468 JUMP JUMPDEST PUSH2 0x1BB0 JUMP JUMPDEST SWAP9 POP PUSH2 0xB9F PUSH1 0x0 PUSH2 0x3E8 PUSH2 0x1C1F JUMP JUMPDEST PUSH2 0xBEB JUMP JUMPDEST PUSH2 0xBE8 PUSH1 0x1 PUSH1 0x1 PUSH1 0x70 SHL SUB DUP10 AND PUSH2 0xBBB DUP7 DUP5 PUSH2 0x1468 JUMP JUMPDEST PUSH2 0xBC5 SWAP2 SWAP1 PUSH2 0x20DA JUMP JUMPDEST PUSH1 0x1 PUSH1 0x1 PUSH1 0x70 SHL SUB DUP10 AND PUSH2 0xBD9 DUP7 DUP6 PUSH2 0x1468 JUMP JUMPDEST PUSH2 0xBE3 SWAP2 SWAP1 PUSH2 0x20DA JUMP JUMPDEST PUSH2 0x1CDE JUMP JUMPDEST SWAP9 POP JUMPDEST PUSH1 0x0 DUP10 GT PUSH2 0xC4E JUMPI PUSH1 0x40 MLOAD PUSH3 0x461BCD PUSH1 0xE5 SHL DUP2 MSTORE PUSH1 0x20 PUSH1 0x4 DUP3 ADD MSTORE PUSH1 0x2A PUSH1 0x24 DUP3 ADD MSTORE PUSH32 0x4469616D6F6E64506169723A20494E53554646494349454E545F4C4951554944 PUSH1 0x44 DUP3 ADD MSTORE PUSH10 0x12551657D35253951151 PUSH1 0xB2 SHL PUSH1 0x64 DUP3 ADD MSTORE PUSH1 0x84 ADD PUSH2 0x400 JUMP JUMPDEST PUSH2 0xC58 DUP11 DUP11 PUSH2 0x1C1F JUMP JUMPDEST PUSH2 0xC64 DUP7 DUP7 DUP11 DUP11 PUSH2 0x1487 JUMP JUMPDEST DUP2 ISZERO PUSH2 0xC8E JUMPI PUSH1 0x9 SLOAD PUSH2 0xC8A SWAP1 PUSH1 0x1 PUSH1 0x1 PUSH1 0x70 SHL SUB DUP1 DUP3 AND SWAP2 PUSH1 0x1 PUSH1 0x70 SHL SWAP1 DIV AND PUSH2 0x1468 JUMP JUMPDEST PUSH1 0xC SSTORE JUMPDEST PUSH1 0x40 DUP1 MLOAD DUP6 DUP2 MSTORE PUSH1 0x20 DUP2 ADD DUP6 SWAP1 MSTORE CALLER SWAP2 PUSH32 0x4C209B5FC8AD50758F13E2E1088BA56A560DFF690A1C6FEF26394F4C03821C4F SWAP2 ADD PUSH1 0x40 MLOAD DUP1 SWAP2 SUB SWAP1 LOG2 POP POP POP POP POP POP POP POP PUSH2 0xCDB PUSH1 0x1 PUSH1 0x5 SSTORE JUMP JUMPDEST SWAP2 SWAP1 POP JUMP JUMPDEST PUSH1 0x0 DUP1 PUSH2 0xCEB PUSH2 0x12FB JUMP JUMPDEST PUSH1 0x0 DUP1 PUSH2 0xCF6 PUSH2 0x91D JUMP JUMPDEST POP PUSH1 0x7 SLOAD PUSH1 0x8 SLOAD PUSH1 0x40 MLOAD PUSH4 0x70A08231 PUSH1 0xE0 SHL DUP2 MSTORE ADDRESS PUSH1 0x4 DUP3 ADD MSTORE SWAP4 SWAP6 POP SWAP2 SWAP4 POP PUSH1 0x1 PUSH1 0x1 PUSH1 0xA0 SHL SUB SWAP1 DUP2 AND SWAP3 SWAP2 AND SWAP1 PUSH1 0x0 SWAP1 DUP4 SWAP1 PUSH4 0x70A08231 SWAP1 PUSH1 0x24 ADD PUSH1 0x20 PUSH1 0x40 MLOAD DUP1 DUP4 SUB DUP2 DUP7 GAS STATICCALL ISZERO DUP1 ISZERO PUSH2 0xD50 JUMPI RETURNDATASIZE PUSH1 0x0 DUP1 RETURNDATACOPY RETURNDATASIZE PUSH1 0x0 REVERT JUMPDEST POP POP POP POP PUSH1 0x40 MLOAD RETURNDATASIZE PUSH1 0x1F NOT PUSH1 0x1F DUP3 ADD AND DUP3 ADD DUP1 PUSH1 0x40 MSTORE POP DUP2 ADD SWAP1 PUSH2 0xD74 SWAP2 SWAP1 PUSH2 0x203B JUMP JUMPDEST PUSH1 0x40 MLOAD PUSH4 0x70A08231 PUSH1 0xE0 SHL DUP2 MSTORE ADDRESS PUSH1 0x4 DUP3 ADD MSTORE SWAP1 SWAP2 POP PUSH1 0x0 SWAP1 PUSH1 0x1 PUSH1 0x1 PUSH1 0xA0 SHL SUB DUP5 AND SWAP1 PUSH4 0x70A08231 SWAP1 PUSH1 0x24 ADD PUSH1 0x20 PUSH1 0x40 MLOAD DUP1 DUP4 SUB DUP2 DUP7 GAS STATICCALL ISZERO DUP1 ISZERO PUSH2 0xDBE JUMPI RETURNDATASIZE PUSH1 0x0 DUP1 RETURNDATACOPY RETURNDATASIZE PUSH1 0x0 REVERT JUMPDEST POP POP POP POP PUSH1 0x40 MLOAD RETURNDATASIZE PUSH1 0x1F NOT PUSH1 0x1F DUP3 ADD AND DUP3 ADD DUP1 PUSH1 0x40 MSTORE POP DUP2 ADD SWAP1 PUSH2 0xDE2 SWAP2 SWAP1 PUSH2 0x203B JUMP JUMPDEST ADDRESS PUSH1 0x0 SWAP1 DUP2 MSTORE PUSH1 0x20 DUP2 SWAP1 MSTORE PUSH1 0x40 DUP2 KECCAK256 SLOAD SWAP2 SWAP3 POP PUSH2 0xDFF DUP9 DUP9 PUSH2 0x19FE JUMP JUMPDEST SWAP1 POP PUSH1 0x0 PUSH2 0xE0C PUSH1 0x2 SLOAD SWAP1 JUMP JUMPDEST SWAP1 POP DUP1 PUSH2 0xE19 DUP5 DUP8 PUSH2 0x1468 JUMP JUMPDEST PUSH2 0xE23 SWAP2 SWAP1 PUSH2 0x20DA JUMP JUMPDEST SWAP11 POP DUP1 PUSH2 0xE30 DUP5 DUP7 PUSH2 0x1468 JUMP JUMPDEST PUSH2 0xE3A SWAP2 SWAP1 PUSH2 0x20DA JUMP JUMPDEST SWAP10 POP PUSH1 0x0 DUP12 GT DUP1 ISZERO PUSH2 0xE4C JUMPI POP PUSH1 0x0 DUP11 GT JUMPDEST PUSH2 0xEAB JUMPI PUSH1 0x40 MLOAD PUSH3 0x461BCD PUSH1 0xE5 SHL DUP2 MSTORE PUSH1 0x20 PUSH1 0x4 DUP3 ADD MSTORE PUSH1 0x2A PUSH1 0x24 DUP3 ADD MSTORE PUSH32 0x4469616D6F6E64506169723A20494E53554646494349454E545F4C4951554944 PUSH1 0x44 DUP3 ADD MSTORE PUSH10 0x12551657D09554939151 PUSH1 0xB2 SHL PUSH1 0x64 DUP3 ADD MSTORE PUSH1 0x84 ADD PUSH2 0x400 JUMP JUMPDEST PUSH2 0xEB5 ADDRESS DUP5 PUSH2 0x1CF4 JUMP JUMPDEST PUSH2 0xEC0 DUP8 DUP14 DUP14 PUSH2 0x1354 JUMP JUMPDEST PUSH2 0xECB DUP7 DUP14 DUP13 PUSH2 0x1354 JUMP JUMPDEST PUSH1 0x40 MLOAD PUSH4 0x70A08231 PUSH1 0xE0 SHL DUP2 MSTORE ADDRESS PUSH1 0x4 DUP3 ADD MSTORE PUSH1 0x1 PUSH1 0x1 PUSH1 0xA0 SHL SUB DUP9 AND SWAP1 PUSH4 0x70A08231 SWAP1 PUSH1 0x24 ADD PUSH1 0x20 PUSH1 0x40 MLOAD DUP1 DUP4 SUB DUP2 DUP7 GAS STATICCALL ISZERO DUP1 ISZERO PUSH2 0xF0F JUMPI RETURNDATASIZE PUSH1 0x0 DUP1 RETURNDATACOPY RETURNDATASIZE PUSH1 0x0 REVERT JUMPDEST POP POP POP POP PUSH1 0x40 MLOAD RETURNDATASIZE PUSH1 0x1F NOT PUSH1 0x1F DUP3 ADD AND DUP3 ADD DUP1 PUSH1 0x40 MSTORE POP DUP2 ADD SWAP1 PUSH2 0xF33 SWAP2 SWAP1 PUSH2 0x203B JUMP JUMPDEST PUSH1 0x40 MLOAD PUSH4 0x70A08231 PUSH1 0xE0 SHL DUP2 MSTORE ADDRESS PUSH1 0x4 DUP3 ADD MSTORE SWAP1 SWAP6 POP PUSH1 0x1 PUSH1 0x1 PUSH1 0xA0 SHL SUB DUP8 AND SWAP1 PUSH4 0x70A08231 SWAP1 PUSH1 0x24 ADD PUSH1 0x20 PUSH1 0x40 MLOAD DUP1 DUP4 SUB DUP2 DUP7 GAS STATICCALL ISZERO DUP1 ISZERO PUSH2 0xF7A JUMPI RETURNDATASIZE PUSH1 0x0 DUP1 RETURNDATACOPY RETURNDATASIZE PUSH1 0x0 REVERT JUMPDEST POP POP POP POP PUSH1 0x40 MLOAD RETURNDATASIZE PUSH1 0x1F NOT PUSH1 0x1F DUP3 ADD AND DUP3 ADD DUP1 PUSH1 0x40 MSTORE POP DUP2 ADD SWAP1 PUSH2 0xF9E SWAP2 SWAP1 PUSH2 0x203B JUMP JUMPDEST SWAP4 POP PUSH2 0xFAC DUP6 DUP6 DUP12 DUP12 PUSH2 0x1487 JUMP JUMPDEST DUP2 ISZERO PUSH2 0xFD6 JUMPI PUSH1 0x9 SLOAD PUSH2 0xFD2 SWAP1 PUSH1 0x1 PUSH1 0x1 PUSH1 0x70 SHL SUB DUP1 DUP3 AND SWAP2 PUSH1 0x1 PUSH1 0x70 SHL SWAP1 DIV AND PUSH2 0x1468 JUMP JUMPDEST PUSH1 0xC SSTORE JUMPDEST PUSH1 0x40 DUP1 MLOAD DUP13 DUP2 MSTORE PUSH1 0x20 DUP2 ADD DUP13 SWAP1 MSTORE PUSH1 0x1 PUSH1 0x1 PUSH1 0xA0 SHL SUB DUP15 AND SWAP2 CALLER SWAP2 PUSH32 0xDCCD412F0B1252819CB1FD330B93224CA42612892BB3F4F789976E6D81936496 SWAP2 ADD PUSH1 0x40 MLOAD DUP1 SWAP2 SUB SWAP1 LOG3 POP POP POP POP POP POP POP POP POP PUSH2 0x102F PUSH1 0x1 PUSH1 0x5 SSTORE JUMP JUMPDEST SWAP2 POP SWAP2 JUMP JUMPDEST PUSH1 0x60 PUSH1 0x4 DUP1 SLOAD PUSH2 0x89A SWAP1 PUSH2 0x207D JUMP JUMPDEST PUSH1 0x0 CALLER DUP2 PUSH2 0x1051 DUP3 DUP7 PUSH2 0x11C6 JUMP JUMPDEST SWAP1 POP DUP4 DUP2 LT ISZERO PUSH2 0x10B1 JUMPI PUSH1 0x40 MLOAD PUSH3 0x461BCD PUSH1 0xE5 SHL DUP2 MSTORE PUSH1 0x20 PUSH1 0x4 DUP3 ADD MSTORE PUSH1 0x25 PUSH1 0x24 DUP3 ADD MSTORE PUSH32 0x45524332303A2064656372656173656420616C6C6F77616E63652062656C6F77 PUSH1 0x44 DUP3 ADD MSTORE PUSH5 0x207A65726F PUSH1 0xD8 SHL PUSH1 0x64 DUP3 ADD MSTORE PUSH1 0x84 ADD PUSH2 0x400 JUMP JUMPDEST PUSH2 0x97A DUP3 DUP7 DUP7 DUP5 SUB PUSH2 0x16BB JUMP JUMPDEST PUSH1 0x0 CALLER PUSH2 0x955 DUP2 DUP6 DUP6 PUSH2 0x185A JUMP JUMPDEST PUSH2 0x10D4 PUSH2 0x12FB JUMP JUMPDEST PUSH1 0x7 SLOAD PUSH1 0x8 SLOAD PUSH1 0x9 SLOAD PUSH1 0x40 MLOAD PUSH4 0x70A08231 PUSH1 0xE0 SHL DUP2 MSTORE ADDRESS PUSH1 0x4 DUP3 ADD MSTORE PUSH1 0x1 PUSH1 0x1 PUSH1 0xA0 SHL SUB SWAP4 DUP5 AND SWAP4 SWAP1 SWAP3 AND SWAP2 PUSH2 0x116A SWAP2 DUP5 SWAP2 DUP7 SWAP2 PUSH2 0x1165 SWAP2 PUSH1 0x1 PUSH1 0x1 PUSH1 0x70 SHL SUB SWAP1 SWAP2 AND SWAP1 DUP5 SWAP1 PUSH4 0x70A08231 SWAP1 PUSH1 0x24 ADD JUMPDEST PUSH1 0x20 PUSH1 0x40 MLOAD DUP1 DUP4 SUB DUP2 DUP7 GAS STATICCALL ISZERO DUP1 ISZERO PUSH2 0x1141 JUMPI RETURNDATASIZE PUSH1 0x0 DUP1 RETURNDATACOPY RETURNDATASIZE PUSH1 0x0 REVERT JUMPDEST POP POP POP POP PUSH1 0x40 MLOAD RETURNDATASIZE PUSH1 0x1F NOT PUSH1 0x1F DUP3 ADD AND DUP3 ADD DUP1 PUSH1 0x40 MSTORE POP DUP2 ADD SWAP1 PUSH2 0x78B SWAP2 SWAP1 PUSH2 0x203B JUMP JUMPDEST PUSH2 0x1354 JUMP JUMPDEST PUSH1 0x9 SLOAD PUSH1 0x40 MLOAD PUSH4 0x70A08231 PUSH1 0xE0 SHL DUP2 MSTORE ADDRESS PUSH1 0x4 DUP3 ADD MSTORE PUSH2 0x11B7 SWAP2 DUP4 SWAP2 DUP7 SWAP2 PUSH2 0x1165 SWAP2 PUSH1 0x1 PUSH1 0x70 SHL SWAP1 SWAP2 DIV PUSH1 0x1 PUSH1 0x1 PUSH1 0x70 SHL SUB AND SWAP1 PUSH1 0x1 PUSH1 0x1 PUSH1 0xA0 SHL SUB DUP6 AND SWAP1 PUSH4 0x70A08231 SWAP1 PUSH1 0x24 ADD PUSH2 0x1124 JUMP JUMPDEST POP POP PUSH2 0x11C3 PUSH1 0x1 PUSH1 0x5 SSTORE JUMP JUMPDEST POP JUMP JUMPDEST PUSH1 0x1 PUSH1 0x1 PUSH1 0xA0 SHL SUB SWAP2 DUP3 AND PUSH1 0x0 SWAP1 DUP2 MSTORE PUSH1 0x1 PUSH1 0x20 SWAP1 DUP2 MSTORE PUSH1 0x40 DUP1 DUP4 KECCAK256 SWAP4 SWAP1 SWAP5 AND DUP3 MSTORE SWAP2 SWAP1 SWAP2 MSTORE KECCAK256 SLOAD SWAP1 JUMP JUMPDEST PUSH2 0x11F9 PUSH2 0x12FB JUMP JUMPDEST PUSH1 0x7 SLOAD PUSH1 0x40 MLOAD PUSH4 0x70A08231 PUSH1 0xE0 SHL DUP2 MSTORE ADDRESS PUSH1 0x4 DUP3 ADD MSTORE PUSH2 0x12EF SWAP2 PUSH1 0x1 PUSH1 0x1 PUSH1 0xA0 SHL SUB AND SWAP1 PUSH4 0x70A08231 SWAP1 PUSH1 0x24 ADD PUSH1 0x20 PUSH1 0x40 MLOAD DUP1 DUP4 SUB DUP2 DUP7 GAS STATICCALL ISZERO DUP1 ISZERO PUSH2 0x1243 JUMPI RETURNDATASIZE PUSH1 0x0 DUP1 RETURNDATACOPY RETURNDATASIZE PUSH1 0x0 REVERT JUMPDEST POP POP POP POP PUSH1 0x40 MLOAD RETURNDATASIZE PUSH1 0x1F NOT PUSH1 0x1F DUP3 ADD AND DUP3 ADD DUP1 PUSH1 0x40 MSTORE POP DUP2 ADD SWAP1 PUSH2 0x1267 SWAP2 SWAP1 PUSH2 0x203B JUMP JUMPDEST PUSH1 0x8 SLOAD PUSH1 0x40 MLOAD PUSH4 0x70A08231 PUSH1 0xE0 SHL DUP2 MSTORE ADDRESS PUSH1 0x4 DUP3 ADD MSTORE PUSH1 0x1 PUSH1 0x1 PUSH1 0xA0 SHL SUB SWAP1 SWAP2 AND SWAP1 PUSH4 0x70A08231 SWAP1 PUSH1 0x24 ADD PUSH1 0x20 PUSH1 0x40 MLOAD DUP1 DUP4 SUB DUP2 DUP7 GAS STATICCALL ISZERO DUP1 ISZERO PUSH2 0x12AF JUMPI RETURNDATASIZE PUSH1 0x0 DUP1 RETURNDATACOPY RETURNDATASIZE PUSH1 0x0 REVERT JUMPDEST POP POP POP POP PUSH1 0x40 MLOAD RETURNDATASIZE PUSH1 0x1F NOT PUSH1 0x1F DUP3 ADD AND DUP3 ADD DUP1 PUSH1 0x40 MSTORE POP DUP2 ADD SWAP1 PUSH2 0x12D3 SWAP2 SWAP1 PUSH2 0x203B JUMP JUMPDEST PUSH1 0x9 SLOAD PUSH1 0x1 PUSH1 0x1 PUSH1 0x70 SHL SUB DUP1 DUP3 AND SWAP2 PUSH1 0x1 PUSH1 0x70 SHL SWAP1 DIV AND PUSH2 0x1487 JUMP JUMPDEST PUSH2 0x12F9 PUSH1 0x1 PUSH1 0x5 SSTORE JUMP JUMPDEST JUMP JUMPDEST PUSH1 0x2 PUSH1 0x5 SLOAD SUB PUSH2 0x134D JUMPI PUSH1 0x40 MLOAD PUSH3 0x461BCD PUSH1 0xE5 SHL DUP2 MSTORE PUSH1 0x20 PUSH1 0x4 DUP3 ADD MSTORE PUSH1 0x1F PUSH1 0x24 DUP3 ADD MSTORE PUSH32 0x5265656E7472616E637947756172643A207265656E7472616E742063616C6C00 PUSH1 0x44 DUP3 ADD MSTORE PUSH1 0x64 ADD PUSH2 0x400 JUMP JUMPDEST PUSH1 0x2 PUSH1 0x5 SSTORE JUMP JUMPDEST PUSH1 0x40 DUP1 MLOAD PUSH1 0x1 PUSH1 0x1 PUSH1 0xA0 SHL SUB DUP5 DUP2 AND PUSH1 0x24 DUP4 ADD MSTORE PUSH1 0x44 DUP1 DUP4 ADD DUP6 SWAP1 MSTORE DUP4 MLOAD DUP1 DUP5 SUB SWAP1 SWAP2 ADD DUP2 MSTORE PUSH1 0x64 SWAP1 SWAP3 ADD DUP4 MSTORE PUSH1 0x20 DUP3 ADD DUP1 MLOAD PUSH1 0x1 PUSH1 0x1 PUSH1 0xE0 SHL SUB AND PUSH4 0xA9059CBB PUSH1 0xE0 SHL OR SWAP1 MSTORE SWAP2 MLOAD PUSH1 0x0 SWAP3 DUP4 SWAP3 SWAP1 DUP8 AND SWAP2 PUSH2 0x13B0 SWAP2 SWAP1 PUSH2 0x20EE JUMP JUMPDEST PUSH1 0x0 PUSH1 0x40 MLOAD DUP1 DUP4 SUB DUP2 PUSH1 0x0 DUP7 GAS CALL SWAP2 POP POP RETURNDATASIZE DUP1 PUSH1 0x0 DUP2 EQ PUSH2 0x13ED JUMPI PUSH1 0x40 MLOAD SWAP2 POP PUSH1 0x1F NOT PUSH1 0x3F RETURNDATASIZE ADD AND DUP3 ADD PUSH1 0x40 MSTORE RETURNDATASIZE DUP3 MSTORE RETURNDATASIZE PUSH1 0x0 PUSH1 0x20 DUP5 ADD RETURNDATACOPY PUSH2 0x13F2 JUMP JUMPDEST PUSH1 0x60 SWAP2 POP JUMPDEST POP SWAP2 POP SWAP2 POP DUP2 DUP1 ISZERO PUSH2 0x141C JUMPI POP DUP1 MLOAD ISZERO DUP1 PUSH2 0x141C JUMPI POP DUP1 DUP1 PUSH1 0x20 ADD SWAP1 MLOAD DUP2 ADD SWAP1 PUSH2 0x141C SWAP2 SWAP1 PUSH2 0x210A JUMP JUMPDEST PUSH2 0x884 JUMPI PUSH1 0x40 MLOAD PUSH3 0x461BCD PUSH1 0xE5 SHL DUP2 MSTORE PUSH1 0x20 PUSH1 0x4 DUP3 ADD MSTORE PUSH1 0x1C PUSH1 0x24 DUP3 ADD MSTORE PUSH32 0x4469616D6F6E64506169723A205452414E534645525F4641494C454400000000 PUSH1 0x44 DUP3 ADD MSTORE PUSH1 0x64 ADD PUSH2 0x400 JUMP JUMPDEST PUSH1 0x0 PUSH2 0x1474 DUP3 DUP5 PUSH2 0x212C JUMP JUMPDEST SWAP4 SWAP3 POP POP POP JUMP JUMPDEST PUSH1 0x0 PUSH2 0x1474 DUP3 DUP5 PUSH2 0x206A JUMP JUMPDEST PUSH1 0x1 PUSH1 0x1 PUSH1 0x70 SHL SUB DUP5 GT DUP1 ISZERO SWAP1 PUSH2 0x14A5 JUMPI POP PUSH1 0x1 PUSH1 0x1 PUSH1 0x70 SHL SUB DUP4 GT ISZERO JUMPDEST PUSH2 0x14E9 JUMPI PUSH1 0x40 MLOAD PUSH3 0x461BCD PUSH1 0xE5 SHL DUP2 MSTORE PUSH1 0x20 PUSH1 0x4 DUP3 ADD MSTORE PUSH1 0x15 PUSH1 0x24 DUP3 ADD MSTORE PUSH21 0x4469616D6F6E64506169723A204F564552464C4F57 PUSH1 0x58 SHL PUSH1 0x44 DUP3 ADD MSTORE PUSH1 0x64 ADD PUSH2 0x400 JUMP JUMPDEST PUSH1 0x0 PUSH2 0x14FA PUSH5 0x100000000 TIMESTAMP PUSH2 0x2143 JUMP JUMPDEST PUSH1 0x9 SLOAD SWAP1 SWAP2 POP PUSH1 0x0 SWAP1 PUSH2 0x151A SWAP1 PUSH1 0x1 PUSH1 0xE0 SHL SWAP1 DIV PUSH4 0xFFFFFFFF AND DUP4 PUSH2 0x2157 JUMP JUMPDEST SWAP1 POP PUSH1 0x0 DUP2 PUSH4 0xFFFFFFFF AND GT DUP1 ISZERO PUSH2 0x153A JUMPI POP PUSH1 0x1 PUSH1 0x1 PUSH1 0x70 SHL SUB DUP5 AND ISZERO ISZERO JUMPDEST DUP1 ISZERO PUSH2 0x154E JUMPI POP PUSH1 0x1 PUSH1 0x1 PUSH1 0x70 SHL SUB DUP4 AND ISZERO ISZERO JUMPDEST ISZERO PUSH2 0x1623 JUMPI PUSH1 0x1 PUSH1 0x1 PUSH1 0x70 SHL SUB DUP5 AND ISZERO PUSH2 0x15BB JUMPI DUP1 PUSH4 0xFFFFFFFF AND DUP5 PUSH1 0x1 PUSH1 0x1 PUSH1 0x70 SHL SUB AND DUP5 PUSH1 0x1 PUSH1 0x1 PUSH1 0x70 SHL SUB AND PUSH8 0xDE0B6B3A7640000 PUSH2 0x1590 SWAP2 SWAP1 PUSH2 0x212C JUMP JUMPDEST PUSH2 0x159A SWAP2 SWAP1 PUSH2 0x20DA JUMP JUMPDEST PUSH2 0x15A4 SWAP2 SWAP1 PUSH2 0x212C JUMP JUMPDEST PUSH1 0xA PUSH1 0x0 DUP3 DUP3 SLOAD PUSH2 0x15B5 SWAP2 SWAP1 PUSH2 0x20B1 JUMP JUMPDEST SWAP1 SWAP2 SSTORE POP POP JUMPDEST PUSH1 0x1 PUSH1 0x1 PUSH1 0x70 SHL SUB DUP4 AND ISZERO PUSH2 0x1623 JUMPI DUP1 PUSH4 0xFFFFFFFF AND DUP4 PUSH1 0x1 PUSH1 0x1 PUSH1 0x70 SHL SUB AND DUP6 PUSH1 0x1 PUSH1 0x1 PUSH1 0x70 SHL SUB AND PUSH8 0xDE0B6B3A7640000 PUSH2 0x15F8 SWAP2 SWAP1 PUSH2 0x212C JUMP JUMPDEST PUSH2 0x1602 SWAP2 SWAP1 PUSH2 0x20DA JUMP JUMPDEST PUSH2 0x160C SWAP2 SWAP1 PUSH2 0x212C JUMP JUMPDEST PUSH1 0xB PUSH1 0x0 DUP3 DUP3 SLOAD PUSH2 0x161D SWAP2 SWAP1 PUSH2 0x20B1 JUMP JUMPDEST SWAP1 SWAP2 SSTORE POP POP JUMPDEST PUSH1 0x9 DUP1 SLOAD PUSH4 0xFFFFFFFF DUP5 AND PUSH1 0x1 PUSH1 0xE0 SHL MUL PUSH1 0x1 PUSH1 0x1 PUSH1 0xE0 SHL SUB PUSH1 0x1 PUSH1 0x1 PUSH1 0x70 SHL SUB DUP10 DUP2 AND PUSH1 0x1 PUSH1 0x70 SHL SWAP1 DUP2 MUL PUSH1 0x1 PUSH1 0x1 PUSH1 0xE0 SHL SUB NOT SWAP1 SWAP6 AND DUP13 DUP4 AND OR SWAP5 SWAP1 SWAP5 OR SWAP2 DUP3 AND DUP4 OR SWAP5 DUP6 SWAP1 SSTORE PUSH1 0x40 DUP1 MLOAD SWAP4 DUP3 AND SWAP3 DUP3 AND SWAP3 SWAP1 SWAP3 OR DUP4 MSTORE SWAP3 SWAP1 SWAP4 DIV SWAP1 SWAP2 AND PUSH1 0x20 DUP3 ADD MSTORE PUSH32 0x1C411E9A96E071241C2F21F7726B17AE89E3CAB4C78BE50E062B03A9FFFBBAD1 SWAP2 ADD PUSH1 0x40 MLOAD DUP1 SWAP2 SUB SWAP1 LOG1 POP POP POP POP POP POP JUMP JUMPDEST PUSH1 0x1 PUSH1 0x1 PUSH1 0xA0 SHL SUB DUP4 AND PUSH2 0x171D JUMPI PUSH1 0x40 MLOAD PUSH3 0x461BCD PUSH1 0xE5 SHL DUP2 MSTORE PUSH1 0x20 PUSH1 0x4 DUP3 ADD MSTORE PUSH1 0x24 DUP1 DUP3 ADD MSTORE PUSH32 0x45524332303A20617070726F76652066726F6D20746865207A65726F20616464 PUSH1 0x44 DUP3 ADD MSTORE PUSH4 0x72657373 PUSH1 0xE0 SHL PUSH1 0x64 DUP3 ADD MSTORE PUSH1 0x84 ADD PUSH2 0x400 JUMP JUMPDEST PUSH1 0x1 PUSH1 0x1 PUSH1 0xA0 SHL SUB DUP3 AND PUSH2 0x177E JUMPI PUSH1 0x40 MLOAD PUSH3 0x461BCD PUSH1 0xE5 SHL DUP2 MSTORE PUSH1 0x20 PUSH1 0x4 DUP3 ADD MSTORE PUSH1 0x22 PUSH1 0x24 DUP3 ADD MSTORE PUSH32 0x45524332303A20617070726F766520746F20746865207A65726F206164647265 PUSH1 0x44 DUP3 ADD MSTORE PUSH2 0x7373 PUSH1 0xF0 SHL PUSH1 0x64 DUP3 ADD MSTORE PUSH1 0x84 ADD PUSH2 0x400 JUMP JUMPDEST PUSH1 0x1 PUSH1 0x1 PUSH1 0xA0 SHL SUB DUP4 DUP2 AND PUSH1 0x0 DUP2 DUP2 MSTORE PUSH1 0x1 PUSH1 0x20 SWAP1 DUP2 MSTORE PUSH1 0x40 DUP1 DUP4 KECCAK256 SWAP5 DUP8 AND DUP1 DUP5 MSTORE SWAP5 DUP3 MSTORE SWAP2 DUP3 SWAP1 KECCAK256 DUP6 SWAP1 SSTORE SWAP1 MLOAD DUP5 DUP2 MSTORE PUSH32 0x8C5BE1E5EBEC7D5BD14F71427D1E84F3DD0314C0F7B2291E5B200AC8C7C3B925 SWAP2 ADD JUMPDEST PUSH1 0x40 MLOAD DUP1 SWAP2 SUB SWAP1 LOG3 POP POP POP JUMP JUMPDEST PUSH1 0x0 PUSH2 0x17EC DUP5 DUP5 PUSH2 0x11C6 JUMP JUMPDEST SWAP1 POP PUSH1 0x0 NOT DUP2 EQ PUSH2 0x1854 JUMPI DUP2 DUP2 LT ISZERO PUSH2 0x1847 JUMPI PUSH1 0x40 MLOAD PUSH3 0x461BCD PUSH1 0xE5 SHL DUP2 MSTORE PUSH1 0x20 PUSH1 0x4 DUP3 ADD MSTORE PUSH1 0x1D PUSH1 0x24 DUP3 ADD MSTORE PUSH32 0x45524332303A20696E73756666696369656E7420616C6C6F77616E6365000000 PUSH1 0x44 DUP3 ADD MSTORE PUSH1 0x64 ADD PUSH2 0x400 JUMP JUMPDEST PUSH2 0x1854 DUP5 DUP5 DUP5 DUP5 SUB PUSH2 0x16BB JUMP JUMPDEST POP POP POP POP JUMP JUMPDEST PUSH1 0x1 PUSH1 0x1 PUSH1 0xA0 SHL SUB DUP4 AND PUSH2 0x18BE JUMPI PUSH1 0x40 MLOAD PUSH3 0x461BCD PUSH1 0xE5 SHL DUP2 MSTORE PUSH1 0x20 PUSH1 0x4 DUP3 ADD MSTORE PUSH1 0x25 PUSH1 0x24 DUP3 ADD MSTORE PUSH32 0x45524332303A207472616E736665722066726F6D20746865207A65726F206164 PUSH1 0x44 DUP3 ADD MSTORE PUSH5 0x6472657373 PUSH1 0xD8 SHL PUSH1 0x64 DUP3 ADD MSTORE PUSH1 0x84 ADD PUSH2 0x400 JUMP JUMPDEST PUSH1 0x1 PUSH1 0x1 PUSH1 0xA0 SHL SUB DUP3 AND PUSH2 0x1920 JUMPI PUSH1 0x40 MLOAD PUSH3 0x461BCD PUSH1 0xE5 SHL DUP2 MSTORE PUSH1 0x20 PUSH1 0x4 DUP3 ADD MSTORE PUSH1 0x23 PUSH1 0x24 DUP3 ADD MSTORE PUSH32 0x45524332303A207472616E7366657220746F20746865207A65726F2061646472 PUSH1 0x44 DUP3 ADD MSTORE PUSH3 0x657373 PUSH1 0xE8 SHL PUSH1 0x64 DUP3 ADD MSTORE PUSH1 0x84 ADD PUSH2 0x400 JUMP JUMPDEST PUSH1 0x1 PUSH1 0x1 PUSH1 0xA0 SHL SUB DUP4 AND PUSH1 0x0 SWAP1 DUP2 MSTORE PUSH1 0x20 DUP2 SWAP1 MSTORE PUSH1 0x40 SWAP1 KECCAK256 SLOAD DUP2 DUP2 LT ISZERO PUSH2 0x1998 JUMPI PUSH1 0x40 MLOAD PUSH3 0x461BCD PUSH1 0xE5 SHL DUP2 MSTORE PUSH1 0x20 PUSH1 0x4 DUP3 ADD MSTORE PUSH1 0x26 PUSH1 0x24 DUP3 ADD MSTORE PUSH32 0x45524332303A207472616E7366657220616D6F756E7420657863656564732062 PUSH1 0x44 DUP3 ADD MSTORE PUSH6 0x616C616E6365 PUSH1 0xD0 SHL PUSH1 0x64 DUP3 ADD MSTORE PUSH1 0x84 ADD PUSH2 0x400 JUMP JUMPDEST PUSH1 0x1 PUSH1 0x1 PUSH1 0xA0 SHL SUB DUP5 DUP2 AND PUSH1 0x0 DUP2 DUP2 MSTORE PUSH1 0x20 DUP2 DUP2 MSTORE PUSH1 0x40 DUP1 DUP4 KECCAK256 DUP8 DUP8 SUB SWAP1 SSTORE SWAP4 DUP8 AND DUP1 DUP4 MSTORE SWAP2 DUP5 SWAP1 KECCAK256 DUP1 SLOAD DUP8 ADD SWAP1 SSTORE SWAP3 MLOAD DUP6 DUP2 MSTORE SWAP1 SWAP3 PUSH32 0xDDF252AD1BE2C89B69C2B068FC378DAA952BA7F163C4A11628F55A4DF523B3EF SWAP2 ADD PUSH1 0x40 MLOAD DUP1 SWAP2 SUB SWAP1 LOG3 PUSH2 0x1854 JUMP JUMPDEST PUSH1 0x0 DUP1 PUSH1 0x6 PUSH1 0x0 SWAP1 SLOAD SWAP1 PUSH2 0x100 EXP SWAP1 DIV PUSH1 0x1 PUSH1 0x1 PUSH1 0xA0 SHL SUB AND PUSH1 0x1 PUSH1 0x1 PUSH1 0xA0 SHL SUB AND PUSH4 0x17E7E58 PUSH1 0x40 MLOAD DUP2 PUSH4 0xFFFFFFFF AND PUSH1 0xE0 SHL DUP2 MSTORE PUSH1 0x4 ADD PUSH1 0x20 PUSH1 0x40 MLOAD DUP1 DUP4 SUB DUP2 DUP7 GAS STATICCALL ISZERO DUP1 ISZERO PUSH2 0x1A54 JUMPI RETURNDATASIZE PUSH1 0x0 DUP1 RETURNDATACOPY RETURNDATASIZE PUSH1 0x0 REVERT JUMPDEST POP POP POP POP PUSH1 0x40 MLOAD RETURNDATASIZE PUSH1 0x1F NOT PUSH1 0x1F DUP3 ADD AND DUP3 ADD DUP1 PUSH1 0x40 MSTORE POP DUP2 ADD SWAP1 PUSH2 0x1A78 SWAP2 SWAP1 PUSH2 0x217B JUMP JUMPDEST PUSH1 0xC SLOAD PUSH1 0x1 PUSH1 0x1 PUSH1 0xA0 SHL SUB DUP3 AND ISZERO DUP1 ISZERO SWAP5 POP SWAP2 SWAP3 POP SWAP1 PUSH2 0x1B9C JUMPI DUP1 ISZERO PUSH2 0x1B97 JUMPI PUSH1 0x0 PUSH2 0x1AB3 PUSH2 0xB8B PUSH1 0x1 PUSH1 0x1 PUSH1 0x70 SHL SUB DUP9 DUP2 AND SWAP1 DUP9 AND PUSH2 0x1468 JUMP JUMPDEST SWAP1 POP PUSH1 0x0 PUSH2 0x1AC0 DUP4 PUSH2 0x1BB0 JUMP JUMPDEST SWAP1 POP DUP1 DUP3 GT ISZERO PUSH2 0x1B94 JUMPI PUSH1 0x0 PUSH2 0x1AE1 PUSH2 0x1AD9 DUP5 DUP5 PUSH2 0x147B JUMP JUMPDEST PUSH1 0x2 SLOAD PUSH2 0x7C2 JUMP JUMPDEST SWAP1 POP PUSH1 0x0 PUSH2 0x1B70 DUP4 PUSH2 0x1B6A PUSH1 0x6 PUSH1 0x0 SWAP1 SLOAD SWAP1 PUSH2 0x100 EXP SWAP1 DIV PUSH1 0x1 PUSH1 0x1 PUSH1 0xA0 SHL SUB AND PUSH1 0x1 PUSH1 0x1 PUSH1 0xA0 SHL SUB AND PUSH4 0x2FF7042A PUSH1 0x40 MLOAD DUP2 PUSH4 0xFFFFFFFF AND PUSH1 0xE0 SHL DUP2 MSTORE PUSH1 0x4 ADD PUSH1 0x20 PUSH1 0x40 MLOAD DUP1 DUP4 SUB DUP2 DUP7 GAS STATICCALL ISZERO DUP1 ISZERO PUSH2 0x1B3F JUMPI RETURNDATASIZE PUSH1 0x0 DUP1 RETURNDATACOPY RETURNDATASIZE PUSH1 0x0 REVERT JUMPDEST POP POP POP POP PUSH1 0x40 MLOAD RETURNDATASIZE PUSH1 0x1F NOT PUSH1 0x1F DUP3 ADD AND DUP3 ADD DUP1 PUSH1 0x40 MSTORE POP DUP2 ADD SWAP1 PUSH2 0x1B63 SWAP2 SWAP1 PUSH2 0x203B JUMP JUMPDEST DUP8 SWAP1 PUSH2 0x1468 JUMP JUMPDEST SWAP1 PUSH2 0x1E1E JUMP JUMPDEST SWAP1 POP PUSH1 0x0 PUSH2 0x1B7E DUP3 DUP5 PUSH2 0x20DA JUMP JUMPDEST SWAP1 POP DUP1 ISZERO PUSH2 0x1B90 JUMPI PUSH2 0x1B90 DUP8 DUP3 PUSH2 0x1C1F JUMP JUMPDEST POP POP POP JUMPDEST POP POP JUMPDEST PUSH2 0x1BA8 JUMP JUMPDEST DUP1 ISZERO PUSH2 0x1BA8 JUMPI PUSH1 0x0 PUSH1 0xC SSTORE JUMPDEST POP POP SWAP3 SWAP2 POP POP JUMP JUMPDEST PUSH1 0x0 PUSH1 0x3 DUP3 GT ISZERO PUSH2 0x1C11 JUMPI POP DUP1 PUSH1 0x0 PUSH2 0x1BCA PUSH1 0x2 DUP4 PUSH2 0x20DA JUMP JUMPDEST PUSH2 0x1BD5 SWAP1 PUSH1 0x1 PUSH2 0x20B1 JUMP JUMPDEST SWAP1 POP JUMPDEST DUP2 DUP2 LT ISZERO PUSH2 0x1C0B JUMPI SWAP1 POP DUP1 PUSH1 0x2 DUP2 PUSH2 0x1BF0 DUP2 DUP7 PUSH2 0x20DA JUMP JUMPDEST PUSH2 0x1BFA SWAP2 SWAP1 PUSH2 0x20B1 JUMP JUMPDEST PUSH2 0x1C04 SWAP2 SWAP1 PUSH2 0x20DA JUMP JUMPDEST SWAP1 POP PUSH2 0x1BD8 JUMP JUMPDEST POP SWAP2 SWAP1 POP JUMP JUMPDEST DUP2 ISZERO PUSH2 0xCDB JUMPI POP PUSH1 0x1 SWAP2 SWAP1 POP JUMP JUMPDEST PUSH1 0x1 PUSH1 0x1 PUSH1 0xA0 SHL SUB DUP3 AND PUSH2 0x1C75 JUMPI PUSH1 0x40 MLOAD PUSH3 0x461BCD PUSH1 0xE5 SHL DUP2 MSTORE PUSH1 0x20 PUSH1 0x4 DUP3 ADD MSTORE PUSH1 0x1F PUSH1 0x24 DUP3 ADD MSTORE PUSH32 0x45524332303A206D696E7420746F20746865207A65726F206164647265737300 PUSH1 0x44 DUP3 ADD MSTORE PUSH1 0x64 ADD PUSH2 0x400 JUMP JUMPDEST DUP1 PUSH1 0x2 PUSH1 0x0 DUP3 DUP3 SLOAD PUSH2 0x1C87 SWAP2 SWAP1 PUSH2 0x20B1 JUMP JUMPDEST SWAP1 SWAP2 SSTORE POP POP PUSH1 0x1 PUSH1 0x1 PUSH1 0xA0 SHL SUB DUP3 AND PUSH1 0x0 DUP2 DUP2 MSTORE PUSH1 0x20 DUP2 DUP2 MSTORE PUSH1 0x40 DUP1 DUP4 KECCAK256 DUP1 SLOAD DUP7 ADD SWAP1 SSTORE MLOAD DUP5 DUP2 MSTORE PUSH32 0xDDF252AD1BE2C89B69C2B068FC378DAA952BA7F163C4A11628F55A4DF523B3EF SWAP2 ADD PUSH1 0x40 MLOAD DUP1 SWAP2 SUB SWAP1 LOG3 POP POP JUMP JUMPDEST PUSH1 0x0 DUP2 DUP4 LT PUSH2 0x1CED JUMPI DUP2 PUSH2 0x1474 JUMP JUMPDEST POP SWAP1 SWAP2 SWAP1 POP JUMP JUMPDEST PUSH1 0x1 PUSH1 0x1 PUSH1 0xA0 SHL SUB DUP3 AND PUSH2 0x1D54 JUMPI PUSH1 0x40 MLOAD PUSH3 0x461BCD PUSH1 0xE5 SHL DUP2 MSTORE PUSH1 0x20 PUSH1 0x4 DUP3 ADD MSTORE PUSH1 0x21 PUSH1 0x24 DUP3 ADD MSTORE PUSH32 0x45524332303A206275726E2066726F6D20746865207A65726F20616464726573 PUSH1 0x44 DUP3 ADD MSTORE PUSH1 0x73 PUSH1 0xF8 SHL PUSH1 0x64 DUP3 ADD MSTORE PUSH1 0x84 ADD PUSH2 0x400 JUMP JUMPDEST PUSH1 0x1 PUSH1 0x1 PUSH1 0xA0 SHL SUB DUP3 AND PUSH1 0x0 SWAP1 DUP2 MSTORE PUSH1 0x20 DUP2 SWAP1 MSTORE PUSH1 0x40 SWAP1 KECCAK256 SLOAD DUP2 DUP2 LT ISZERO PUSH2 0x1DC8 JUMPI PUSH1 0x40 MLOAD PUSH3 0x461BCD PUSH1 0xE5 SHL DUP2 MSTORE PUSH1 0x20 PUSH1 0x4 DUP3 ADD MSTORE PUSH1 0x22 PUSH1 0x24 DUP3 ADD MSTORE PUSH32 0x45524332303A206275726E20616D6F756E7420657863656564732062616C616E PUSH1 0x44 DUP3 ADD MSTORE PUSH2 0x6365 PUSH1 0xF0 SHL PUSH1 0x64 DUP3 ADD MSTORE PUSH1 0x84 ADD PUSH2 0x400 JUMP JUMPDEST PUSH1 0x1 PUSH1 0x1 PUSH1 0xA0 SHL SUB DUP4 AND PUSH1 0x0 DUP2 DUP2 MSTORE PUSH1 0x20 DUP2 DUP2 MSTORE PUSH1 0x40 DUP1 DUP4 KECCAK256 DUP7 DUP7 SUB SWAP1 SSTORE PUSH1 0x2 DUP1 SLOAD DUP8 SWAP1 SUB SWAP1 SSTORE MLOAD DUP6 DUP2 MSTORE SWAP2 SWAP3 SWAP2 PUSH32 0xDDF252AD1BE2C89B69C2B068FC378DAA952BA7F163C4A11628F55A4DF523B3EF SWAP2 ADD PUSH2 0x17D3 JUMP JUMPDEST PUSH1 0x0 PUSH2 0x1474 DUP3 DUP5 PUSH2 0x20B1 JUMP JUMPDEST PUSH1 0x1 PUSH1 0x1 PUSH1 0xA0 SHL SUB DUP2 AND DUP2 EQ PUSH2 0x11C3 JUMPI PUSH1 0x0 DUP1 REVERT JUMPDEST PUSH1 0x0 DUP1 PUSH1 0x0 DUP1 PUSH1 0x0 PUSH1 0x80 DUP7 DUP9 SUB SLT ISZERO PUSH2 0x1E57 JUMPI PUSH1 0x0 DUP1 REVERT JUMPDEST DUP6 CALLDATALOAD SWAP5 POP PUSH1 0x20 DUP7 ADD CALLDATALOAD SWAP4 POP PUSH1 0x40 DUP7 ADD CALLDATALOAD PUSH2 0x1E70 DUP2 PUSH2 0x1E2A JUMP JUMPDEST SWAP3 POP PUSH1 0x60 DUP7 ADD CALLDATALOAD PUSH8 0xFFFFFFFFFFFFFFFF DUP1 DUP3 GT ISZERO PUSH2 0x1E8D JUMPI PUSH1 0x0 DUP1 REVERT JUMPDEST DUP2 DUP9 ADD SWAP2 POP DUP9 PUSH1 0x1F DUP4 ADD SLT PUSH2 0x1EA1 JUMPI PUSH1 0x0 DUP1 REVERT JUMPDEST DUP2 CALLDATALOAD DUP2 DUP2 GT ISZERO PUSH2 0x1EB0 JUMPI PUSH1 0x0 DUP1 REVERT JUMPDEST DUP10 PUSH1 0x20 DUP3 DUP6 ADD ADD GT ISZERO PUSH2 0x1EC2 JUMPI PUSH1 0x0 DUP1 REVERT JUMPDEST SWAP7 SWAP10 SWAP6 SWAP9 POP SWAP4 SWAP7 POP PUSH1 0x20 ADD SWAP5 SWAP4 SWAP3 POP POP POP JUMP JUMPDEST PUSH1 0x0 JUMPDEST DUP4 DUP2 LT ISZERO PUSH2 0x1EF0 JUMPI DUP2 DUP2 ADD MLOAD DUP4 DUP3 ADD MSTORE PUSH1 0x20 ADD PUSH2 0x1ED8 JUMP JUMPDEST POP POP PUSH1 0x0 SWAP2 ADD MSTORE JUMP JUMPDEST PUSH1 0x20 DUP2 MSTORE PUSH1 0x0 DUP3 MLOAD DUP1 PUSH1 0x20 DUP5 ADD MSTORE PUSH2 0x1F18 DUP2 PUSH1 0x40 DUP6 ADD PUSH1 0x20 DUP8 ADD PUSH2 0x1ED5 JUMP JUMPDEST PUSH1 0x1F ADD PUSH1 0x1F NOT AND SWAP2 SWAP1 SWAP2 ADD PUSH1 0x40 ADD SWAP3 SWAP2 POP POP JUMP JUMPDEST PUSH1 0x0 DUP1 PUSH1 0x40 DUP4 DUP6 SUB SLT ISZERO PUSH2 0x1F3F JUMPI PUSH1 0x0 DUP1 REVERT JUMPDEST DUP3 CALLDATALOAD PUSH2 0x1F4A DUP2 PUSH2 0x1E2A JUMP JUMPDEST SWAP5 PUSH1 0x20 SWAP4 SWAP1 SWAP4 ADD CALLDATALOAD SWAP4 POP POP POP JUMP JUMPDEST PUSH1 0x0 DUP1 PUSH1 0x0 PUSH1 0x60 DUP5 DUP7 SUB SLT ISZERO PUSH2 0x1F6D JUMPI PUSH1 0x0 DUP1 REVERT JUMPDEST DUP4 CALLDATALOAD PUSH2 0x1F78 DUP2 PUSH2 0x1E2A JUMP JUMPDEST SWAP3 POP PUSH1 0x20 DUP5 ADD CALLDATALOAD PUSH2 0x1F88 DUP2 PUSH2 0x1E2A JUMP JUMPDEST SWAP3 SWAP6 SWAP3 SWAP5 POP POP POP PUSH1 0x40 SWAP2 SWAP1 SWAP2 ADD CALLDATALOAD SWAP1 JUMP JUMPDEST PUSH1 0x0 DUP1 PUSH1 0x40 DUP4 DUP6 SUB SLT ISZERO PUSH2 0x1FAC JUMPI PUSH1 0x0 DUP1 REVERT JUMPDEST DUP3 CALLDATALOAD PUSH2 0x1FB7 DUP2 PUSH2 0x1E2A JUMP JUMPDEST SWAP2 POP PUSH1 0x20 DUP4 ADD CALLDATALOAD PUSH2 0x1FC7 DUP2 PUSH2 0x1E2A JUMP JUMPDEST DUP1 SWAP2 POP POP SWAP3 POP SWAP3 SWAP1 POP JUMP JUMPDEST PUSH1 0x0 PUSH1 0x20 DUP3 DUP5 SUB SLT ISZERO PUSH2 0x1FE4 JUMPI PUSH1 0x0 DUP1 REVERT JUMPDEST DUP2 CALLDATALOAD PUSH2 0x1474 DUP2 PUSH2 0x1E2A JUMP JUMPDEST PUSH1 0x1 DUP1 PUSH1 0xA0 SHL SUB DUP7 AND DUP2 MSTORE DUP5 PUSH1 0x20 DUP3 ADD MSTORE DUP4 PUSH1 0x40 DUP3 ADD MSTORE PUSH1 0x80 PUSH1 0x60 DUP3 ADD MSTORE DUP2 PUSH1 0x80 DUP3 ADD MSTORE DUP2 DUP4 PUSH1 0xA0 DUP4 ADD CALLDATACOPY PUSH1 0x0 DUP2 DUP4 ADD PUSH1 0xA0 SWAP1 DUP2 ADD SWAP2 SWAP1 SWAP2 MSTORE PUSH1 0x1F SWAP1 SWAP3 ADD PUSH1 0x1F NOT AND ADD ADD SWAP5 SWAP4 POP POP POP POP JUMP JUMPDEST PUSH1 0x0 PUSH1 0x20 DUP3 DUP5 SUB SLT ISZERO PUSH2 0x204D JUMPI PUSH1 0x0 DUP1 REVERT JUMPDEST POP MLOAD SWAP2 SWAP1 POP JUMP JUMPDEST PUSH4 0x4E487B71 PUSH1 0xE0 SHL PUSH1 0x0 MSTORE PUSH1 0x11 PUSH1 0x4 MSTORE PUSH1 0x24 PUSH1 0x0 REVERT JUMPDEST DUP2 DUP2 SUB DUP2 DUP2 GT ISZERO PUSH2 0x95B JUMPI PUSH2 0x95B PUSH2 0x2054 JUMP JUMPDEST PUSH1 0x1 DUP2 DUP2 SHR SWAP1 DUP3 AND DUP1 PUSH2 0x2091 JUMPI PUSH1 0x7F DUP3 AND SWAP2 POP JUMPDEST PUSH1 0x20 DUP3 LT DUP2 SUB PUSH2 0x1C0B JUMPI PUSH4 0x4E487B71 PUSH1 0xE0 SHL PUSH1 0x0 MSTORE PUSH1 0x22 PUSH1 0x4 MSTORE PUSH1 0x24 PUSH1 0x0 REVERT JUMPDEST DUP1 DUP3 ADD DUP1 DUP3 GT ISZERO PUSH2 0x95B JUMPI PUSH2 0x95B PUSH2 0x2054 JUMP JUMPDEST PUSH4 0x4E487B71 PUSH1 0xE0 SHL PUSH1 0x0 MSTORE PUSH1 0x12 PUSH1 0x4 MSTORE PUSH1 0x24 PUSH1 0x0 REVERT JUMPDEST PUSH1 0x0 DUP3 PUSH2 0x20E9 JUMPI PUSH2 0x20E9 PUSH2 0x20C4 JUMP JUMPDEST POP DIV SWAP1 JUMP JUMPDEST PUSH1 0x0 DUP3 MLOAD PUSH2 0x2100 DUP2 DUP5 PUSH1 0x20 DUP8 ADD PUSH2 0x1ED5 JUMP JUMPDEST SWAP2 SWAP1 SWAP2 ADD SWAP3 SWAP2 POP POP JUMP JUMPDEST PUSH1 0x0 PUSH1 0x20 DUP3 DUP5 SUB SLT ISZERO PUSH2 0x211C JUMPI PUSH1 0x0 DUP1 REVERT JUMPDEST DUP2 MLOAD DUP1 ISZERO ISZERO DUP2 EQ PUSH2 0x1474 JUMPI PUSH1 0x0 DUP1 REVERT JUMPDEST DUP1 DUP3 MUL DUP2 ISZERO DUP3 DUP3 DIV DUP5 EQ OR PUSH2 0x95B JUMPI PUSH2 0x95B PUSH2 0x2054 JUMP JUMPDEST PUSH1 0x0 DUP3 PUSH2 0x2152 JUMPI PUSH2 0x2152 PUSH2 0x20C4 JUMP JUMPDEST POP MOD SWAP1 JUMP JUMPDEST PUSH4 0xFFFFFFFF DUP3 DUP2 AND DUP3 DUP3 AND SUB SWAP1 DUP1 DUP3 GT ISZERO PUSH2 0x2174 JUMPI PUSH2 0x2174 PUSH2 0x2054 JUMP JUMPDEST POP SWAP3 SWAP2 POP POP JUMP JUMPDEST PUSH1 0x0 PUSH1 0x20 DUP3 DUP5 SUB SLT ISZERO PUSH2 0x218D JUMPI PUSH1 0x0 DUP1 REVERT JUMPDEST DUP2 MLOAD PUSH2 0x1474 DUP2 PUSH2 0x1E2A JUMP INVALID LOG2 PUSH5 0x6970667358 0x22 SLT KECCAK256 EXTCODEHASH 0xB0 LOG1 MULMOD BLOCKHASH SIGNEXTEND 0xDB NOT 0xAC SMOD SGT 0xE9 0xC9 0xDD LOG3 0xC1 0x5D PUSH9 0xCB87816043E6A4E9B5 JUMP 0xE7 RETURNDATASIZE JUMP 0xC9 PUSH5 0x736F6C6343 STOP ADDMOD GT STOP CALLER LOG2 PUSH5 0x6970667358 0x22 SLT KECCAK256 PUSH1 0xA7 0x2B 0x4B 0xB0 DUP8 0x5D 0x22 DUP15 PUSH25 0x994913F7571D2C37833CB05E6C63CB774013A98F020C64736F PUSH13 0x63430008110033000000000000 "},"methodIdentifiers":{"allPairs(uint256)":"1e3dd18b","allPairsLength()":"574f2ba3","createPair(address,address)":"c9c65396","feeTo()":"017e7e58","getPair(address,address)":"e6a43905","owner()":"8da5cb5b","protocolFeeDenominator()":"2ff7042a","renounceOwnership()":"715018a6","setFeeTo(address)":"f46901ed","setProtocolFeeDenominator(uint256)":"75adcf2c","transferOwnership(address)":"f2fde38b"}}}}}