{"contracts/DiamondRouter.sol":{"DiamondRouter":{"abi":[{"inputs":[{"internalType":"address","name":"_factory","type":"address"},{"internalType":"address","name":"_WETH","type":"address"}],"stateMutability":"nonpayable","type":"constructor"},{"anonymous":false,"inputs":[{"indexed":true,"internalType":"address","name":"provider","type":"address"},{"indexed":true,"internalType":"address","name":"tokenA","type":"address"},{"indexed":true,"internalType":"address","name":"tokenB","type":"address"},{"indexed":false,"internalType":"uint256","name":"amountA","type":"uint256"},{"indexed":false,"internalType":"uint256","name":"amountB","type":"uint256"},{"indexed":false,"internalType":"uint256","name":"liquidity","type":"uint256"}],"name":"LiquidityAdded","type":"event"},{"anonymous":false,"inputs":[{"indexed":true,"internalType":"address","name":"provider","type":"address"},{"indexed":true,"internalType":"address","name":"tokenA","type":"address"},{"indexed":true,"internalType":"address","name":"tokenB","type":"address"},{"indexed":false,"internalType":"uint256","name":"amountA","type":"uint256"},{"indexed":false,"internalType":"uint256","name":"amountB","type":"uint256"},{"indexed":false,"internalType":"uint256","name":"liquidity","type":"uint256"}],"name":"LiquidityRemoved","type":"event"},{"anonymous":false,"inputs":[{"indexed":true,"internalType":"address","name":"previousOwner","type":"address"},{"indexed":true,"internalType":"address","name":"newOwner","type":"address"}],"name":"OwnershipTransferred","type":"event"},{"anonymous":false,"inputs":[{"indexed":true,"internalType":"address","name":"sender","type":"address"},{"indexed":false,"internalType":"uint256","name":"amountIn","type":"uint256"},{"indexed":false,"internalType":"uint256","name":"amountOut","type":"uint256"},{"indexed":true,"internalType":"address","name":"tokenIn","type":"address"},{"indexed":true,"internalType":"address","name":"tokenOut","type":"address"}],"name":"Swap","type":"event"},{"inputs":[],"name":"WETH","outputs":[{"internalType":"address","name":"","type":"address"}],"stateMutability":"view","type":"function"},{"inputs":[{"internalType":"address","name":"tokenA","type":"address"},{"internalType":"address","name":"tokenB","type":"address"},{"internalType":"uint256","name":"amountADesired","type":"uint256"},{"internalType":"uint256","name":"amountBDesired","type":"uint256"},{"internalType":"uint256","name":"amountAMin","type":"uint256"},{"internalType":"uint256","name":"amountBMin","type":"uint256"},{"internalType":"address","name":"to","type":"address"}],"name":"addLiquidity","outputs":[{"internalType":"uint256","name":"amountA","type":"uint256"},{"internalType":"uint256","name":"amountB","type":"uint256"},{"internalType":"uint256","name":"liquidity","type":"uint256"}],"stateMutability":"nonpayable","type":"function"},{"inputs":[],"name":"factory","outputs":[{"internalType":"address","name":"","type":"address"}],"stateMutability":"view","type":"function"},{"inputs":[{"internalType":"uint256","name":"amountOut","type":"uint256"},{"internalType":"uint256","name":"reserveIn","type":"uint256"},{"internalType":"uint256","name":"reserveOut","type":"uint256"}],"name":"getAmountIn","outputs":[{"internalType":"uint256","name":"amountIn","type":"uint256"}],"stateMutability":"pure","type":"function"},{"inputs":[{"internalType":"uint256","name":"amountIn","type":"uint256"},{"internalType":"uint256","name":"reserveIn","type":"uint256"},{"internalType":"uint256","name":"reserveOut","type":"uint256"}],"name":"getAmountOut","outputs":[{"internalType":"uint256","name":"amountOut","type":"uint256"}],"stateMutability":"pure","type":"function"},{"inputs":[{"internalType":"uint256","name":"amountOut","type":"uint256"},{"internalType":"address[]","name":"path","type":"address[]"}],"name":"getAmountsIn","outputs":[{"internalType":"uint256[]","name":"amounts","type":"uint256[]"}],"stateMutability":"view","type":"function"},{"inputs":[{"internalType":"uint256","name":"amountIn","type":"uint256"},{"internalType":"address[]","name":"path","type":"address[]"}],"name":"getAmountsOut","outputs":[{"internalType":"uint256[]","name":"amounts","type":"uint256[]"}],"stateMutability":"view","type":"function"},{"inputs":[{"internalType":"address","name":"tokenA","type":"address"},{"internalType":"address","name":"tokenB","type":"address"}],"name":"getReserves","outputs":[{"internalType":"uint256","name":"reserveA","type":"uint256"},{"internalType":"uint256","name":"reserveB","type":"uint256"}],"stateMutability":"view","type":"function"},{"inputs":[],"name":"owner","outputs":[{"internalType":"address","name":"","type":"address"}],"stateMutability":"view","type":"function"},{"inputs":[{"internalType":"address","name":"tokenA","type":"address"},{"internalType":"address","name":"tokenB","type":"address"}],"name":"pairFor","outputs":[{"internalType":"address","name":"pair","type":"address"}],"stateMutability":"view","type":"function"},{"inputs":[{"internalType":"uint256","name":"amountA","type":"uint256"},{"internalType":"uint256","name":"reserveA","type":"uint256"},{"internalType":"uint256","name":"reserveB","type":"uint256"}],"name":"quote","outputs":[{"internalType":"uint256","name":"amountB","type":"uint256"}],"stateMutability":"pure","type":"function"},{"inputs":[{"internalType":"address","name":"tokenA","type":"address"},{"internalType":"address","name":"tokenB","type":"address"},{"internalType":"uint256","name":"liquidity","type":"uint256"},{"internalType":"uint256","name":"amountAMin","type":"uint256"},{"internalType":"uint256","name":"amountBMin","type":"uint256"},{"internalType":"address","name":"to","type":"address"}],"name":"removeLiquidity","outputs":[{"internalType":"uint256","name":"amountA","type":"uint256"},{"internalType":"uint256","name":"amountB","type":"uint256"}],"stateMutability":"nonpayable","type":"function"},{"inputs":[],"name":"renounceOwnership","outputs":[],"stateMutability":"nonpayable","type":"function"},{"inputs":[{"internalType":"uint256","name":"amountIn","type":"uint256"},{"internalType":"uint256","name":"amountOutMin","type":"uint256"},{"internalType":"address[]","name":"path","type":"address[]"},{"internalType":"address","name":"to","type":"address"}],"name":"swapExactTokensForTokens","outputs":[{"internalType":"uint256[]","name":"amounts","type":"uint256[]"}],"stateMutability":"nonpayable","type":"function"},{"inputs":[{"internalType":"uint256","name":"amountOut","type":"uint256"},{"internalType":"uint256","name":"amountInMax","type":"uint256"},{"internalType":"address[]","name":"path","type":"address[]"},{"internalType":"address","name":"to","type":"address"}],"name":"swapTokensForExactTokens","outputs":[{"internalType":"uint256[]","name":"amounts","type":"uint256[]"}],"stateMutability":"nonpayable","type":"function"},{"inputs":[{"internalType":"address","name":"newOwner","type":"address"}],"name":"transferOwnership","outputs":[],"stateMutability":"nonpayable","type":"function"}],"evm":{"bytecode":{"linkReferences":{},"object":"60c06040523480156200001157600080fd5b5060405162001f9b38038062001f9b8339810160408190526200003491620000c8565b6200003f336200005b565b600180556001600160a01b039182166080521660a05262000100565b600080546001600160a01b038381166001600160a01b0319831681178455604051919092169283917f8be0079c531659141344cd1fd0a4f28419497f9722a3daafe3b4186f6b6457e09190a35050565b80516001600160a01b0381168114620000c357600080fd5b919050565b60008060408385031215620000dc57600080fd5b620000e783620000ab565b9150620000f760208401620000ab565b90509250929050565b60805160a051611e676200013460003960006101cb01526000818161022d01528181610a370152610d4c0152611e676000f3fe608060405234801561001057600080fd5b50600436106101005760003560e01c8063ad5c464811610097578063ca3d653911610066578063ca3d65391461024f578063d06ca61f1461027d578063d52bb6f414610290578063f2fde38b146102a357600080fd5b8063ad5c4648146101c6578063ad615dec146101ed578063c0e3ee6b14610200578063c45a01551461022857600080fd5b8063715018a6116100d3578063715018a61461017157806385f8c2591461017b5780638da5cb5b1461018e57806396ed28f9146101b357600080fd5b8063054d50d4146101055780631f00ca741461012b57806342712a671461014b578063472b43f31461015e575b600080fd5b610118610113366004611787565b6102b6565b6040519081526020015b60405180910390f35b61013e6101393660046117ee565b610396565b60405161012291906118bf565b61013e610159366004611903565b61052a565b61013e61016c366004611903565b6107ac565b610179610965565b005b610118610189366004611787565b610979565b6000546001600160a01b03165b6040516001600160a01b039091168152602001610122565b61019b6101c13660046119a1565b610a0d565b61019b7f000000000000000000000000000000000000000000000000000000000000000081565b6101186101fb366004611787565b610aad565b61021361020e3660046119da565b610b52565b60408051928352602083019190915201610122565b61019b7f000000000000000000000000000000000000000000000000000000000000000081565b61026261025d366004611a41565b610cfc565b60408051938452602084019290925290820152606001610122565b61013e61028b3660046117ee565b610ec0565b61021361029e3660046119a1565b611035565b6101796102b1366004611ab3565b611121565b600080841161031d5760405162461bcd60e51b815260206004820152602860248201527f4469616d6f6e64526f757465723a20494e53554646494349454e545f494e50556044820152671517d05353d5539560c21b60648201526084015b60405180910390fd5b60008311801561032d5750600082115b6103495760405162461bcd60e51b815260040161031490611ad7565b6000610357856103e561119a565b90506000610365828561119a565b9050600061037f83610379886103e861119a565b906111a6565b905061038b8183611b32565b979650505050505050565b60606002825110156103ea5760405162461bcd60e51b815260206004820152601b60248201527f4469616d6f6e64526f757465723a20494e56414c49445f5041544800000000006044820152606401610314565b815167ffffffffffffffff811115610404576104046117b3565b60405190808252806020026020018201604052801561042d578160200160208202803683370190505b5090508281600183516104409190611b54565b8151811061045057610450611b67565b60200260200101818152505060006001835161046c9190611b54565b90505b8015610523576000806104be85610487600186611b54565b8151811061049757610497611b67565b60200260200101518685815181106104b1576104b1611b67565b6020026020010151611035565b915091506104e68484815181106104d7576104d7611b67565b60200260200101518383610979565b846104f2600186611b54565b8151811061050257610502611b67565b6020026020010181815250505050808061051b90611b7d565b91505061046f565b5092915050565b60606105346111b2565b6105718685858080602002602001604051908101604052809392919081815260200183836020028082843760009201919091525061039692505050565b9050848160008151811061058757610587611b67565b602002602001015111156105eb5760405162461bcd60e51b815260206004820152602560248201527f4469616d6f6e64526f757465723a204558434553534956455f494e5055545f416044820152641353d5539560da1b6064820152608401610314565b61068a8484600081811061060157610601611b67565b90506020020160208101906106169190611ab3565b3361066a8787600081811061062d5761062d611b67565b90506020020160208101906106429190611ab3565b8888600181811061065557610655611b67565b90506020020160208101906101c19190611ab3565b8460008151811061067d5761067d611b67565b602002602001015161120b565b6106c98185858080602002602001604051908101604052809392919081815260200183836020028082843760009201919091525087925061132f915050565b83836106d6600182611b54565b8181106106e5576106e5611b67565b90506020020160208101906106fa9190611ab3565b6001600160a01b03168484600081811061071657610716611b67565b905060200201602081019061072b9190611ab3565b6001600160a01b0316336001600160a01b03167f053d794b2310b8d186a24ae24a65ee066983a52a6efa6bd3df09a7601a3cb4f38460008151811061077257610772611b67565b60200260200101518a604051610792929190918252602082015260400190565b60405180910390a46107a360018055565b95945050505050565b60606107b66111b2565b6107f386858580806020026020016040519081016040528093929190818152602001838360200280828437600092019190915250610ec092505050565b90508481600183516108059190611b54565b8151811061081557610815611b67565b6020026020010151101561083b5760405162461bcd60e51b815260040161031490611b94565b6108518484600081811061060157610601611b67565b6108908185858080602002602001604051908101604052809392919081815260200183836020028082843760009201919091525087925061132f915050565b838361089d600182611b54565b8181106108ac576108ac611b67565b90506020020160208101906108c19190611ab3565b6001600160a01b0316848460008181106108dd576108dd611b67565b90506020020160208101906108f29190611ab3565b6001600160a01b0316336001600160a01b03167f053d794b2310b8d186a24ae24a65ee066983a52a6efa6bd3df09a7601a3cb4f38985600187516109369190611b54565b8151811061094657610946611b67565b6020026020010151604051610792929190918252602082015260400190565b61096d6114f5565b610977600061154f565b565b600080841161099a5760405162461bcd60e51b815260040161031490611b94565b6000831180156109aa5750600082115b6109c65760405162461bcd60e51b815260040161031490611ad7565b60006109de6103e86109d8868861119a565b9061119a565b905060006109f26103e56109d8868961159f565b9050610a0360016103798385611b32565b9695505050505050565b60405163e6a4390560e01b81526001600160a01b03838116600483015282811660248301526000917f00000000000000000000000000000000000000000000000000000000000000009091169063e6a4390590604401602060405180830381865afa158015610a80573d6000803e3d6000fd5b505050506040513d601f19601f82011682018060405250810190610aa49190611bdd565b90505b92915050565b6000808411610b095760405162461bcd60e51b815260206004820152602260248201527f4469616d6f6e64526f757465723a20494e53554646494349454e545f414d4f55604482015261139560f21b6064820152608401610314565b600083118015610b195750600082115b610b355760405162461bcd60e51b815260040161031490611ad7565b82610b40858461119a565b610b4a9190611b32565b949350505050565b600080610b5d6111b2565b6000610b698989610a0d565b6040516323b872dd60e01b81523360048201526001600160a01b03821660248201819052604482018a90529192506323b872dd906064016020604051808303816000875af1158015610bbf573d6000803e3d6000fd5b505050506040513d601f19601f82011682018060405250810190610be39190611bfa565b5060405163226bf2d160e21b81526001600160a01b0385811660048301528216906389afcb449060240160408051808303816000875af1158015610c2b573d6000803e3d6000fd5b505050506040513d601f19601f82011682018060405250810190610c4f9190611c1c565b909350915085831015610c745760405162461bcd60e51b815260040161031490611c40565b84821015610c945760405162461bcd60e51b815260040161031490611c84565b60408051848152602081018490529081018890526001600160a01b03808a1691908b169033907fd765e08eef31c0983ecca03ecd166297ac485ecd5dd69e291c848f0a020333c19060600160405180910390a450610cf160018055565b965096945050505050565b6000806000610d096111b2565b6000610d158b8b610a0d565b90506001600160a01b038116610dbc576040516364e329cb60e11b81526001600160a01b038c811660048301528b811660248301527f0000000000000000000000000000000000000000000000000000000000000000169063c9c65396906044016020604051808303816000875af1158015610d95573d6000803e3d6000fd5b505050506040513d601f19601f82011682018060405250810190610db99190611bdd565b90505b610dca8b8b8b8b8b8b6115ab565b9094509250610ddb8b33838761120b565b610de78a33838661120b565b6040516335313c2160e11b81526001600160a01b038681166004830152821690636a627842906024016020604051808303816000875af1158015610e2f573d6000803e3d6000fd5b505050506040513d601f19601f82011682018060405250810190610e539190611cc8565b60408051868152602081018690529081018290529092506001600160a01b03808c1691908d169033907f43c967b388d3a4ccad3f7ab80167852e322e5a3fde9893f530252281b2ae8b709060600160405180910390a450610eb360018055565b9750975097945050505050565b6060600282511015610f145760405162461bcd60e51b815260206004820152601b60248201527f4469616d6f6e64526f757465723a20494e56414c49445f5041544800000000006044820152606401610314565b815167ffffffffffffffff811115610f2e57610f2e6117b3565b604051908082528060200260200182016040528015610f57578160200160208202803683370190505b5090508281600081518110610f6e57610f6e611b67565b60200260200101818152505060005b60018351610f8b9190611b54565b81101561052357600080610fd0858481518110610faa57610faa611b67565b602002602001015186856001610fc09190611ce1565b815181106104b1576104b1611b67565b91509150610ff8848481518110610fe957610fe9611b67565b602002602001015183836102b6565b84611004856001611ce1565b8151811061101457611014611b67565b6020026020010181815250505050808061102d90611cf4565b915050610f7d565b6000806000611044858561169a565b50905060006110538686610a0d565b90506001600160a01b0381166110715760008093509350505061111a565b600080826001600160a01b0316630902f1ac6040518163ffffffff1660e01b8152600401606060405180830381865afa1580156110b2573d6000803e3d6000fd5b505050506040513d601f19601f820116820180604052508101906110d69190611d24565b506001600160701b031691506001600160701b03169150836001600160a01b0316886001600160a01b03161461110d578082611110565b81815b9096509450505050505b9250929050565b6111296114f5565b6001600160a01b03811661118e5760405162461bcd60e51b815260206004820152602660248201527f4f776e61626c653a206e6577206f776e657220697320746865207a65726f206160448201526564647265737360d01b6064820152608401610314565b6111978161154f565b50565b6000610aa48284611d74565b6000610aa48284611ce1565b6002600154036112045760405162461bcd60e51b815260206004820152601f60248201527f5265656e7472616e637947756172643a207265656e7472616e742063616c6c006044820152606401610314565b6002600155565b604080516001600160a01b0385811660248301528481166044830152606480830185905283518084039091018152608490920183526020820180516001600160e01b03166323b872dd60e01b179052915160009283929088169161126f9190611daf565b6000604051808303816000865af19150503d80600081146112ac576040519150601f19603f3d011682016040523d82523d6000602084013e6112b1565b606091505b50915091508180156112db5750805115806112db5750808060200190518101906112db9190611bfa565b6113275760405162461bcd60e51b815260206004820152601e60248201527f4469616d6f6e64526f757465723a205452414e534645525f4641494c454400006044820152606401610314565b505050505050565b60005b600183516113409190611b54565b8110156114ef5760008084838151811061135c5761135c611b67565b6020026020010151858460016113729190611ce1565b8151811061138257611382611b67565b602002602001015191509150600061139a838361169a565b5090506000876113ab866001611ce1565b815181106113bb576113bb611b67565b60200260200101519050600080836001600160a01b0316866001600160a01b0316146113e9578260006113ed565b6000835b91509150600060028a516114019190611b54565b881061140d578861143a565b61143a868b61141d8b6002611ce1565b8151811061142d5761142d611b67565b6020026020010151610a0d565b90506114468787610a0d565b6001600160a01b031663022c0d9f84848460006040519080825280601f01601f191660200182016040528015611483576020820181803683370190505b506040518563ffffffff1660e01b81526004016114a39493929190611dcb565b600060405180830381600087803b1580156114bd57600080fd5b505af11580156114d1573d6000803e3d6000fd5b505050505050505050505080806114e790611cf4565b915050611332565b50505050565b6000546001600160a01b031633146109775760405162461bcd60e51b815260206004820181905260248201527f4f776e61626c653a2063616c6c6572206973206e6f7420746865206f776e65726044820152606401610314565b600080546001600160a01b038381166001600160a01b0319831681178455604051919092169283917f8be0079c531659141344cd1fd0a4f28419497f9722a3daafe3b4186f6b6457e09190a35050565b6000610aa48284611b54565b60008060006115ba8989610a0d565b90506001600160a01b0381166115d65786869250925050610cf1565b6000806115e38b8b611035565b915091508160001480156115f5575080155b1561160857888894509450505050610cf1565b60006116158a8484610aad565b905088811161164c578681101561163e5760405162461bcd60e51b815260040161031490611c84565b8995509350610cf192505050565b60006116598a8486610aad565b90508a81111561166b5761166b611e1b565b8881101561168b5760405162461bcd60e51b815260040161031490611c40565b9550889450610cf19350505050565b600080826001600160a01b0316846001600160a01b0316036117095760405162461bcd60e51b815260206004820152602260248201527f4469616d6f6e64526f757465723a204944454e544943414c5f41444452455353604482015261455360f01b6064820152608401610314565b826001600160a01b0316846001600160a01b03161061172957828461172c565b83835b90925090506001600160a01b03821661111a5760405162461bcd60e51b815260206004820152601b60248201527f4469616d6f6e64526f757465723a205a45524f5f4144445245535300000000006044820152606401610314565b60008060006060848603121561179c57600080fd5b505081359360208301359350604090920135919050565b634e487b7160e01b600052604160045260246000fd5b6001600160a01b038116811461119757600080fd5b80356117e9816117c9565b919050565b6000806040838503121561180157600080fd5b8235915060208084013567ffffffffffffffff8082111561182157600080fd5b818601915086601f83011261183557600080fd5b813581811115611847576118476117b3565b8060051b604051601f19603f8301168101818110858211171561186c5761186c6117b3565b60405291825284820192508381018501918983111561188a57600080fd5b938501935b828510156118af576118a0856117de565b8452938501939285019261188f565b8096505050505050509250929050565b6020808252825182820181905260009190848201906040850190845b818110156118f7578351835292840192918401916001016118db565b50909695505050505050565b60008060008060006080868803121561191b57600080fd5b8535945060208601359350604086013567ffffffffffffffff8082111561194157600080fd5b818801915088601f83011261195557600080fd5b81358181111561196457600080fd5b8960208260051b850101111561197957600080fd5b6020830195508094505050506060860135611993816117c9565b809150509295509295909350565b600080604083850312156119b457600080fd5b82356119bf816117c9565b915060208301356119cf816117c9565b809150509250929050565b60008060008060008060c087890312156119f357600080fd5b86356119fe816117c9565b95506020870135611a0e816117c9565b945060408701359350606087013592506080870135915060a0870135611a33816117c9565b809150509295509295509295565b600080600080600080600060e0888a031215611a5c57600080fd5b8735611a67816117c9565b96506020880135611a77816117c9565b955060408801359450606088013593506080880135925060a0880135915060c0880135611aa3816117c9565b8091505092959891949750929550565b600060208284031215611ac557600080fd5b8135611ad0816117c9565b9392505050565b60208082526025908201527f4469616d6f6e64526f757465723a20494e53554646494349454e545f4c495155604082015264494449545960d81b606082015260800190565b634e487b7160e01b600052601160045260246000fd5b600082611b4f57634e487b7160e01b600052601260045260246000fd5b500490565b81810381811115610aa757610aa7611b1c565b634e487b7160e01b600052603260045260246000fd5b600081611b8c57611b8c611b1c565b506000190190565b60208082526029908201527f4469616d6f6e64526f757465723a20494e53554646494349454e545f4f555450604082015268155517d05353d5539560ba1b606082015260800190565b600060208284031215611bef57600080fd5b8151611ad0816117c9565b600060208284031215611c0c57600080fd5b81518015158114611ad057600080fd5b60008060408385031215611c2f57600080fd5b505080516020909101519092909150565b60208082526024908201527f4469616d6f6e64526f757465723a20494e53554646494349454e545f415f414d60408201526313d5539560e21b606082015260800190565b60208082526024908201527f4469616d6f6e64526f757465723a20494e53554646494349454e545f425f414d60408201526313d5539560e21b606082015260800190565b600060208284031215611cda57600080fd5b5051919050565b80820180821115610aa757610aa7611b1c565b600060018201611d0657611d06611b1c565b5060010190565b80516001600160701b03811681146117e957600080fd5b600080600060608486031215611d3957600080fd5b611d4284611d0d565b9250611d5060208501611d0d565b9150604084015163ffffffff81168114611d6957600080fd5b809150509250925092565b8082028115828204841417610aa757610aa7611b1c565b60005b83811015611da6578181015183820152602001611d8e565b50506000910152565b60008251611dc1818460208701611d8b565b9190910192915050565b84815283602082015260018060a01b03831660408201526080606082015260008251806080840152611e048160a0850160208701611d8b565b601f01601f19169190910160a00195945050505050565b634e487b7160e01b600052600160045260246000fdfea2646970667358221220acd00fc790adba5acec5411fb6706e394bcdc1f1a337359eeef5cc932209244e64736f6c63430008110033","opcodes":"PUSH1 0xC0 PUSH1 0x40 MSTORE CALLVALUE DUP1 ISZERO PUSH3 0x11 JUMPI PUSH1 0x0 DUP1 REVERT JUMPDEST POP PUSH1 0x40 MLOAD PUSH3 0x1F9B CODESIZE SUB DUP1 PUSH3 0x1F9B DUP4 CODECOPY DUP2 ADD PUSH1 0x40 DUP2 SWAP1 MSTORE PUSH3 0x34 SWAP2 PUSH3 0xC8 JUMP JUMPDEST PUSH3 0x3F CALLER PUSH3 0x5B JUMP JUMPDEST PUSH1 0x1 DUP1 SSTORE PUSH1 0x1 PUSH1 0x1 PUSH1 0xA0 SHL SUB SWAP2 DUP3 AND PUSH1 0x80 MSTORE AND PUSH1 0xA0 MSTORE PUSH3 0x100 JUMP JUMPDEST PUSH1 0x0 DUP1 SLOAD PUSH1 0x1 PUSH1 0x1 PUSH1 0xA0 SHL SUB DUP4 DUP2 AND PUSH1 0x1 PUSH1 0x1 PUSH1 0xA0 SHL SUB NOT DUP4 AND DUP2 OR DUP5 SSTORE PUSH1 0x40 MLOAD SWAP2 SWAP1 SWAP3 AND SWAP3 DUP4 SWAP2 PUSH32 0x8BE0079C531659141344CD1FD0A4F28419497F9722A3DAAFE3B4186F6B6457E0 SWAP2 SWAP1 LOG3 POP POP JUMP JUMPDEST DUP1 MLOAD PUSH1 0x1 PUSH1 0x1 PUSH1 0xA0 SHL SUB DUP2 AND DUP2 EQ PUSH3 0xC3 JUMPI PUSH1 0x0 DUP1 REVERT JUMPDEST SWAP2 SWAP1 POP JUMP JUMPDEST PUSH1 0x0 DUP1 PUSH1 0x40 DUP4 DUP6 SUB SLT ISZERO PUSH3 0xDC JUMPI PUSH1 0x0 DUP1 REVERT JUMPDEST PUSH3 0xE7 DUP4 PUSH3 0xAB JUMP JUMPDEST SWAP2 POP PUSH3 0xF7 PUSH1 0x20 DUP5 ADD PUSH3 0xAB JUMP JUMPDEST SWAP1 POP SWAP3 POP SWAP3 SWAP1 POP JUMP JUMPDEST PUSH1 0x80 MLOAD PUSH1 0xA0 MLOAD PUSH2 0x1E67 PUSH3 0x134 PUSH1 0x0 CODECOPY PUSH1 0x0 PUSH2 0x1CB ADD MSTORE PUSH1 0x0 DUP2 DUP2 PUSH2 0x22D ADD MSTORE DUP2 DUP2 PUSH2 0xA37 ADD MSTORE PUSH2 0xD4C ADD MSTORE PUSH2 0x1E67 PUSH1 0x0 RETURN INVALID PUSH1 0x80 PUSH1 0x40 MSTORE CALLVALUE DUP1 ISZERO PUSH2 0x10 JUMPI PUSH1 0x0 DUP1 REVERT JUMPDEST POP PUSH1 0x4 CALLDATASIZE LT PUSH2 0x100 JUMPI PUSH1 0x0 CALLDATALOAD PUSH1 0xE0 SHR DUP1 PUSH4 0xAD5C4648 GT PUSH2 0x97 JUMPI DUP1 PUSH4 0xCA3D6539 GT PUSH2 0x66 JUMPI DUP1 PUSH4 0xCA3D6539 EQ PUSH2 0x24F JUMPI DUP1 PUSH4 0xD06CA61F EQ PUSH2 0x27D JUMPI DUP1 PUSH4 0xD52BB6F4 EQ PUSH2 0x290 JUMPI DUP1 PUSH4 0xF2FDE38B EQ PUSH2 0x2A3 JUMPI PUSH1 0x0 DUP1 REVERT JUMPDEST DUP1 PUSH4 0xAD5C4648 EQ PUSH2 0x1C6 JUMPI DUP1 PUSH4 0xAD615DEC EQ PUSH2 0x1ED JUMPI DUP1 PUSH4 0xC0E3EE6B EQ PUSH2 0x200 JUMPI DUP1 PUSH4 0xC45A0155 EQ PUSH2 0x228 JUMPI PUSH1 0x0 DUP1 REVERT JUMPDEST DUP1 PUSH4 0x715018A6 GT PUSH2 0xD3 JUMPI DUP1 PUSH4 0x715018A6 EQ PUSH2 0x171 JUMPI DUP1 PUSH4 0x85F8C259 EQ PUSH2 0x17B JUMPI DUP1 PUSH4 0x8DA5CB5B EQ PUSH2 0x18E JUMPI DUP1 PUSH4 0x96ED28F9 EQ PUSH2 0x1B3 JUMPI PUSH1 0x0 DUP1 REVERT JUMPDEST DUP1 PUSH4 0x54D50D4 EQ PUSH2 0x105 JUMPI DUP1 PUSH4 0x1F00CA74 EQ PUSH2 0x12B JUMPI DUP1 PUSH4 0x42712A67 EQ PUSH2 0x14B JUMPI DUP1 PUSH4 0x472B43F3 EQ PUSH2 0x15E JUMPI JUMPDEST PUSH1 0x0 DUP1 REVERT JUMPDEST PUSH2 0x118 PUSH2 0x113 CALLDATASIZE PUSH1 0x4 PUSH2 0x1787 JUMP JUMPDEST PUSH2 0x2B6 JUMP JUMPDEST PUSH1 0x40 MLOAD SWAP1 DUP2 MSTORE PUSH1 0x20 ADD JUMPDEST PUSH1 0x40 MLOAD DUP1 SWAP2 SUB SWAP1 RETURN JUMPDEST PUSH2 0x13E PUSH2 0x139 CALLDATASIZE PUSH1 0x4 PUSH2 0x17EE JUMP JUMPDEST PUSH2 0x396 JUMP JUMPDEST PUSH1 0x40 MLOAD PUSH2 0x122 SWAP2 SWAP1 PUSH2 0x18BF JUMP JUMPDEST PUSH2 0x13E PUSH2 0x159 CALLDATASIZE PUSH1 0x4 PUSH2 0x1903 JUMP JUMPDEST PUSH2 0x52A JUMP JUMPDEST PUSH2 0x13E PUSH2 0x16C CALLDATASIZE PUSH1 0x4 PUSH2 0x1903 JUMP JUMPDEST PUSH2 0x7AC JUMP JUMPDEST PUSH2 0x179 PUSH2 0x965 JUMP JUMPDEST STOP JUMPDEST PUSH2 0x118 PUSH2 0x189 CALLDATASIZE PUSH1 0x4 PUSH2 0x1787 JUMP JUMPDEST PUSH2 0x979 JUMP JUMPDEST PUSH1 0x0 SLOAD PUSH1 0x1 PUSH1 0x1 PUSH1 0xA0 SHL SUB AND JUMPDEST PUSH1 0x40 MLOAD PUSH1 0x1 PUSH1 0x1 PUSH1 0xA0 SHL SUB SWAP1 SWAP2 AND DUP2 MSTORE PUSH1 0x20 ADD PUSH2 0x122 JUMP JUMPDEST PUSH2 0x19B PUSH2 0x1C1 CALLDATASIZE PUSH1 0x4 PUSH2 0x19A1 JUMP JUMPDEST PUSH2 0xA0D JUMP JUMPDEST PUSH2 0x19B PUSH32 0x0 DUP2 JUMP JUMPDEST PUSH2 0x118 PUSH2 0x1FB CALLDATASIZE PUSH1 0x4 PUSH2 0x1787 JUMP JUMPDEST PUSH2 0xAAD JUMP JUMPDEST PUSH2 0x213 PUSH2 0x20E CALLDATASIZE PUSH1 0x4 PUSH2 0x19DA JUMP JUMPDEST PUSH2 0xB52 JUMP JUMPDEST PUSH1 0x40 DUP1 MLOAD SWAP3 DUP4 MSTORE PUSH1 0x20 DUP4 ADD SWAP2 SWAP1 SWAP2 MSTORE ADD PUSH2 0x122 JUMP JUMPDEST PUSH2 0x19B PUSH32 0x0 DUP2 JUMP JUMPDEST PUSH2 0x262 PUSH2 0x25D CALLDATASIZE PUSH1 0x4 PUSH2 0x1A41 JUMP JUMPDEST PUSH2 0xCFC JUMP JUMPDEST PUSH1 0x40 DUP1 MLOAD SWAP4 DUP5 MSTORE PUSH1 0x20 DUP5 ADD SWAP3 SWAP1 SWAP3 MSTORE SWAP1 DUP3 ADD MSTORE PUSH1 0x60 ADD PUSH2 0x122 JUMP JUMPDEST PUSH2 0x13E PUSH2 0x28B CALLDATASIZE PUSH1 0x4 PUSH2 0x17EE JUMP JUMPDEST PUSH2 0xEC0 JUMP JUMPDEST PUSH2 0x213 PUSH2 0x29E CALLDATASIZE PUSH1 0x4 PUSH2 0x19A1 JUMP JUMPDEST PUSH2 0x1035 JUMP JUMPDEST PUSH2 0x179 PUSH2 0x2B1 CALLDATASIZE PUSH1 0x4 PUSH2 0x1AB3 JUMP JUMPDEST PUSH2 0x1121 JUMP JUMPDEST PUSH1 0x0 DUP1 DUP5 GT PUSH2 0x31D JUMPI PUSH1 0x40 MLOAD PUSH3 0x461BCD PUSH1 0xE5 SHL DUP2 MSTORE PUSH1 0x20 PUSH1 0x4 DUP3 ADD MSTORE PUSH1 0x28 PUSH1 0x24 DUP3 ADD MSTORE PUSH32 0x4469616D6F6E64526F757465723A20494E53554646494349454E545F494E5055 PUSH1 0x44 DUP3 ADD MSTORE PUSH8 0x1517D05353D55395 PUSH1 0xC2 SHL PUSH1 0x64 DUP3 ADD MSTORE PUSH1 0x84 ADD JUMPDEST PUSH1 0x40 MLOAD DUP1 SWAP2 SUB SWAP1 REVERT JUMPDEST PUSH1 0x0 DUP4 GT DUP1 ISZERO PUSH2 0x32D JUMPI POP PUSH1 0x0 DUP3 GT JUMPDEST PUSH2 0x349 JUMPI PUSH1 0x40 MLOAD PUSH3 0x461BCD PUSH1 0xE5 SHL DUP2 MSTORE PUSH1 0x4 ADD PUSH2 0x314 SWAP1 PUSH2 0x1AD7 JUMP JUMPDEST PUSH1 0x0 PUSH2 0x357 DUP6 PUSH2 0x3E5 PUSH2 0x119A JUMP JUMPDEST SWAP1 POP PUSH1 0x0 PUSH2 0x365 DUP3 DUP6 PUSH2 0x119A JUMP JUMPDEST SWAP1 POP PUSH1 0x0 PUSH2 0x37F DUP4 PUSH2 0x379 DUP9 PUSH2 0x3E8 PUSH2 0x119A JUMP JUMPDEST SWAP1 PUSH2 0x11A6 JUMP JUMPDEST SWAP1 POP PUSH2 0x38B DUP2 DUP4 PUSH2 0x1B32 JUMP JUMPDEST SWAP8 SWAP7 POP POP POP POP POP POP POP JUMP JUMPDEST PUSH1 0x60 PUSH1 0x2 DUP3 MLOAD LT ISZERO PUSH2 0x3EA JUMPI PUSH1 0x40 MLOAD PUSH3 0x461BCD PUSH1 0xE5 SHL DUP2 MSTORE PUSH1 0x20 PUSH1 0x4 DUP3 ADD MSTORE PUSH1 0x1B PUSH1 0x24 DUP3 ADD MSTORE PUSH32 0x4469616D6F6E64526F757465723A20494E56414C49445F504154480000000000 PUSH1 0x44 DUP3 ADD MSTORE PUSH1 0x64 ADD PUSH2 0x314 JUMP JUMPDEST DUP2 MLOAD PUSH8 0xFFFFFFFFFFFFFFFF DUP2 GT ISZERO PUSH2 0x404 JUMPI PUSH2 0x404 PUSH2 0x17B3 JUMP JUMPDEST PUSH1 0x40 MLOAD SWAP1 DUP1 DUP3 MSTORE DUP1 PUSH1 0x20 MUL PUSH1 0x20 ADD DUP3 ADD PUSH1 0x40 MSTORE DUP1 ISZERO PUSH2 0x42D JUMPI DUP2 PUSH1 0x20 ADD PUSH1 0x20 DUP3 MUL DUP1 CALLDATASIZE DUP4 CALLDATACOPY ADD SWAP1 POP JUMPDEST POP SWAP1 POP DUP3 DUP2 PUSH1 0x1 DUP4 MLOAD PUSH2 0x440 SWAP2 SWAP1 PUSH2 0x1B54 JUMP JUMPDEST DUP2 MLOAD DUP2 LT PUSH2 0x450 JUMPI PUSH2 0x450 PUSH2 0x1B67 JUMP JUMPDEST PUSH1 0x20 MUL PUSH1 0x20 ADD ADD DUP2 DUP2 MSTORE POP POP PUSH1 0x0 PUSH1 0x1 DUP4 MLOAD PUSH2 0x46C SWAP2 SWAP1 PUSH2 0x1B54 JUMP JUMPDEST SWAP1 POP JUMPDEST DUP1 ISZERO PUSH2 0x523 JUMPI PUSH1 0x0 DUP1 PUSH2 0x4BE DUP6 PUSH2 0x487 PUSH1 0x1 DUP7 PUSH2 0x1B54 JUMP JUMPDEST DUP2 MLOAD DUP2 LT PUSH2 0x497 JUMPI PUSH2 0x497 PUSH2 0x1B67 JUMP JUMPDEST PUSH1 0x20 MUL PUSH1 0x20 ADD ADD MLOAD DUP7 DUP6 DUP2 MLOAD DUP2 LT PUSH2 0x4B1 JUMPI PUSH2 0x4B1 PUSH2 0x1B67 JUMP JUMPDEST PUSH1 0x20 MUL PUSH1 0x20 ADD ADD MLOAD PUSH2 0x1035 JUMP JUMPDEST SWAP2 POP SWAP2 POP PUSH2 0x4E6 DUP5 DUP5 DUP2 MLOAD DUP2 LT PUSH2 0x4D7 JUMPI PUSH2 0x4D7 PUSH2 0x1B67 JUMP JUMPDEST PUSH1 0x20 MUL PUSH1 0x20 ADD ADD MLOAD DUP4 DUP4 PUSH2 0x979 JUMP JUMPDEST DUP5 PUSH2 0x4F2 PUSH1 0x1 DUP7 PUSH2 0x1B54 JUMP JUMPDEST DUP2 MLOAD DUP2 LT PUSH2 0x502 JUMPI PUSH2 0x502 PUSH2 0x1B67 JUMP JUMPDEST PUSH1 0x20 MUL PUSH1 0x20 ADD ADD DUP2 DUP2 MSTORE POP POP POP POP DUP1 DUP1 PUSH2 0x51B SWAP1 PUSH2 0x1B7D JUMP JUMPDEST SWAP2 POP POP PUSH2 0x46F JUMP JUMPDEST POP SWAP3 SWAP2 POP POP JUMP JUMPDEST PUSH1 0x60 PUSH2 0x534 PUSH2 0x11B2 JUMP JUMPDEST PUSH2 0x571 DUP7 DUP6 DUP6 DUP1 DUP1 PUSH1 0x20 MUL PUSH1 0x20 ADD PUSH1 0x40 MLOAD SWAP1 DUP2 ADD PUSH1 0x40 MSTORE DUP1 SWAP4 SWAP3 SWAP2 SWAP1 DUP2 DUP2 MSTORE PUSH1 0x20 ADD DUP4 DUP4 PUSH1 0x20 MUL DUP1 DUP3 DUP5 CALLDATACOPY PUSH1 0x0 SWAP3 ADD SWAP2 SWAP1 SWAP2 MSTORE POP PUSH2 0x396 SWAP3 POP POP POP JUMP JUMPDEST SWAP1 POP DUP5 DUP2 PUSH1 0x0 DUP2 MLOAD DUP2 LT PUSH2 0x587 JUMPI PUSH2 0x587 PUSH2 0x1B67 JUMP JUMPDEST PUSH1 0x20 MUL PUSH1 0x20 ADD ADD MLOAD GT ISZERO PUSH2 0x5EB JUMPI PUSH1 0x40 MLOAD PUSH3 0x461BCD PUSH1 0xE5 SHL DUP2 MSTORE PUSH1 0x20 PUSH1 0x4 DUP3 ADD MSTORE PUSH1 0x25 PUSH1 0x24 DUP3 ADD MSTORE PUSH32 0x4469616D6F6E64526F757465723A204558434553534956455F494E5055545F41 PUSH1 0x44 DUP3 ADD MSTORE PUSH5 0x1353D55395 PUSH1 0xDA SHL PUSH1 0x64 DUP3 ADD MSTORE PUSH1 0x84 ADD PUSH2 0x314 JUMP JUMPDEST PUSH2 0x68A DUP5 DUP5 PUSH1 0x0 DUP2 DUP2 LT PUSH2 0x601 JUMPI PUSH2 0x601 PUSH2 0x1B67 JUMP JUMPDEST SWAP1 POP PUSH1 0x20 MUL ADD PUSH1 0x20 DUP2 ADD SWAP1 PUSH2 0x616 SWAP2 SWAP1 PUSH2 0x1AB3 JUMP JUMPDEST CALLER PUSH2 0x66A DUP8 DUP8 PUSH1 0x0 DUP2 DUP2 LT PUSH2 0x62D JUMPI PUSH2 0x62D PUSH2 0x1B67 JUMP JUMPDEST SWAP1 POP PUSH1 0x20 MUL ADD PUSH1 0x20 DUP2 ADD SWAP1 PUSH2 0x642 SWAP2 SWAP1 PUSH2 0x1AB3 JUMP JUMPDEST DUP9 DUP9 PUSH1 0x1 DUP2 DUP2 LT PUSH2 0x655 JUMPI PUSH2 0x655 PUSH2 0x1B67 JUMP JUMPDEST SWAP1 POP PUSH1 0x20 MUL ADD PUSH1 0x20 DUP2 ADD SWAP1 PUSH2 0x1C1 SWAP2 SWAP1 PUSH2 0x1AB3 JUMP JUMPDEST DUP5 PUSH1 0x0 DUP2 MLOAD DUP2 LT PUSH2 0x67D JUMPI PUSH2 0x67D PUSH2 0x1B67 JUMP JUMPDEST PUSH1 0x20 MUL PUSH1 0x20 ADD ADD MLOAD PUSH2 0x120B JUMP JUMPDEST PUSH2 0x6C9 DUP2 DUP6 DUP6 DUP1 DUP1 PUSH1 0x20 MUL PUSH1 0x20 ADD PUSH1 0x40 MLOAD SWAP1 DUP2 ADD PUSH1 0x40 MSTORE DUP1 SWAP4 SWAP3 SWAP2 SWAP1 DUP2 DUP2 MSTORE PUSH1 0x20 ADD DUP4 DUP4 PUSH1 0x20 MUL DUP1 DUP3 DUP5 CALLDATACOPY PUSH1 0x0 SWAP3 ADD SWAP2 SWAP1 SWAP2 MSTORE POP DUP8 SWAP3 POP PUSH2 0x132F SWAP2 POP POP JUMP JUMPDEST DUP4 DUP4 PUSH2 0x6D6 PUSH1 0x1 DUP3 PUSH2 0x1B54 JUMP JUMPDEST DUP2 DUP2 LT PUSH2 0x6E5 JUMPI PUSH2 0x6E5 PUSH2 0x1B67 JUMP JUMPDEST SWAP1 POP PUSH1 0x20 MUL ADD PUSH1 0x20 DUP2 ADD SWAP1 PUSH2 0x6FA SWAP2 SWAP1 PUSH2 0x1AB3 JUMP JUMPDEST PUSH1 0x1 PUSH1 0x1 PUSH1 0xA0 SHL SUB AND DUP5 DUP5 PUSH1 0x0 DUP2 DUP2 LT PUSH2 0x716 JUMPI PUSH2 0x716 PUSH2 0x1B67 JUMP JUMPDEST SWAP1 POP PUSH1 0x20 MUL ADD PUSH1 0x20 DUP2 ADD SWAP1 PUSH2 0x72B SWAP2 SWAP1 PUSH2 0x1AB3 JUMP JUMPDEST PUSH1 0x1 PUSH1 0x1 PUSH1 0xA0 SHL SUB AND CALLER PUSH1 0x1 PUSH1 0x1 PUSH1 0xA0 SHL SUB AND PUSH32 0x53D794B2310B8D186A24AE24A65EE066983A52A6EFA6BD3DF09A7601A3CB4F3 DUP5 PUSH1 0x0 DUP2 MLOAD DUP2 LT PUSH2 0x772 JUMPI PUSH2 0x772 PUSH2 0x1B67 JUMP JUMPDEST PUSH1 0x20 MUL PUSH1 0x20 ADD ADD MLOAD DUP11 PUSH1 0x40 MLOAD PUSH2 0x792 SWAP3 SWAP2 SWAP1 SWAP2 DUP3 MSTORE PUSH1 0x20 DUP3 ADD MSTORE PUSH1 0x40 ADD SWAP1 JUMP JUMPDEST PUSH1 0x40 MLOAD DUP1 SWAP2 SUB SWAP1 LOG4 PUSH2 0x7A3 PUSH1 0x1 DUP1 SSTORE JUMP JUMPDEST SWAP6 SWAP5 POP POP POP POP POP JUMP JUMPDEST PUSH1 0x60 PUSH2 0x7B6 PUSH2 0x11B2 JUMP JUMPDEST PUSH2 0x7F3 DUP7 DUP6 DUP6 DUP1 DUP1 PUSH1 0x20 MUL PUSH1 0x20 ADD PUSH1 0x40 MLOAD SWAP1 DUP2 ADD PUSH1 0x40 MSTORE DUP1 SWAP4 SWAP3 SWAP2 SWAP1 DUP2 DUP2 MSTORE PUSH1 0x20 ADD DUP4 DUP4 PUSH1 0x20 MUL DUP1 DUP3 DUP5 CALLDATACOPY PUSH1 0x0 SWAP3 ADD SWAP2 SWAP1 SWAP2 MSTORE POP PUSH2 0xEC0 SWAP3 POP POP POP JUMP JUMPDEST SWAP1 POP DUP5 DUP2 PUSH1 0x1 DUP4 MLOAD PUSH2 0x805 SWAP2 SWAP1 PUSH2 0x1B54 JUMP JUMPDEST DUP2 MLOAD DUP2 LT PUSH2 0x815 JUMPI PUSH2 0x815 PUSH2 0x1B67 JUMP JUMPDEST PUSH1 0x20 MUL PUSH1 0x20 ADD ADD MLOAD LT ISZERO PUSH2 0x83B JUMPI PUSH1 0x40 MLOAD PUSH3 0x461BCD PUSH1 0xE5 SHL DUP2 MSTORE PUSH1 0x4 ADD PUSH2 0x314 SWAP1 PUSH2 0x1B94 JUMP JUMPDEST PUSH2 0x851 DUP5 DUP5 PUSH1 0x0 DUP2 DUP2 LT PUSH2 0x601 JUMPI PUSH2 0x601 PUSH2 0x1B67 JUMP JUMPDEST PUSH2 0x890 DUP2 DUP6 DUP6 DUP1 DUP1 PUSH1 0x20 MUL PUSH1 0x20 ADD PUSH1 0x40 MLOAD SWAP1 DUP2 ADD PUSH1 0x40 MSTORE DUP1 SWAP4 SWAP3 SWAP2 SWAP1 DUP2 DUP2 MSTORE PUSH1 0x20 ADD DUP4 DUP4 PUSH1 0x20 MUL DUP1 DUP3 DUP5 CALLDATACOPY PUSH1 0x0 SWAP3 ADD SWAP2 SWAP1 SWAP2 MSTORE POP DUP8 SWAP3 POP PUSH2 0x132F SWAP2 POP POP JUMP JUMPDEST DUP4 DUP4 PUSH2 0x89D PUSH1 0x1 DUP3 PUSH2 0x1B54 JUMP JUMPDEST DUP2 DUP2 LT PUSH2 0x8AC JUMPI PUSH2 0x8AC PUSH2 0x1B67 JUMP JUMPDEST SWAP1 POP PUSH1 0x20 MUL ADD PUSH1 0x20 DUP2 ADD SWAP1 PUSH2 0x8C1 SWAP2 SWAP1 PUSH2 0x1AB3 JUMP JUMPDEST PUSH1 0x1 PUSH1 0x1 PUSH1 0xA0 SHL SUB AND DUP5 DUP5 PUSH1 0x0 DUP2 DUP2 LT PUSH2 0x8DD JUMPI PUSH2 0x8DD PUSH2 0x1B67 JUMP JUMPDEST SWAP1 POP PUSH1 0x20 MUL ADD PUSH1 0x20 DUP2 ADD SWAP1 PUSH2 0x8F2 SWAP2 SWAP1 PUSH2 0x1AB3 JUMP JUMPDEST PUSH1 0x1 PUSH1 0x1 PUSH1 0xA0 SHL SUB AND CALLER PUSH1 0x1 PUSH1 0x1 PUSH1 0xA0 SHL SUB AND PUSH32 0x53D794B2310B8D186A24AE24A65EE066983A52A6EFA6BD3DF09A7601A3CB4F3 DUP10 DUP6 PUSH1 0x1 DUP8 MLOAD PUSH2 0x936 SWAP2 SWAP1 PUSH2 0x1B54 JUMP JUMPDEST DUP2 MLOAD DUP2 LT PUSH2 0x946 JUMPI PUSH2 0x946 PUSH2 0x1B67 JUMP JUMPDEST PUSH1 0x20 MUL PUSH1 0x20 ADD ADD MLOAD PUSH1 0x40 MLOAD PUSH2 0x792 SWAP3 SWAP2 SWAP1 SWAP2 DUP3 MSTORE PUSH1 0x20 DUP3 ADD MSTORE PUSH1 0x40 ADD SWAP1 JUMP JUMPDEST PUSH2 0x96D PUSH2 0x14F5 JUMP JUMPDEST PUSH2 0x977 PUSH1 0x0 PUSH2 0x154F JUMP JUMPDEST JUMP JUMPDEST PUSH1 0x0 DUP1 DUP5 GT PUSH2 0x99A JUMPI PUSH1 0x40 MLOAD PUSH3 0x461BCD PUSH1 0xE5 SHL DUP2 MSTORE PUSH1 0x4 ADD PUSH2 0x314 SWAP1 PUSH2 0x1B94 JUMP JUMPDEST PUSH1 0x0 DUP4 GT DUP1 ISZERO PUSH2 0x9AA JUMPI POP PUSH1 0x0 DUP3 GT JUMPDEST PUSH2 0x9C6 JUMPI PUSH1 0x40 MLOAD PUSH3 0x461BCD PUSH1 0xE5 SHL DUP2 MSTORE PUSH1 0x4 ADD PUSH2 0x314 SWAP1 PUSH2 0x1AD7 JUMP JUMPDEST PUSH1 0x0 PUSH2 0x9DE PUSH2 0x3E8 PUSH2 0x9D8 DUP7 DUP9 PUSH2 0x119A JUMP JUMPDEST SWAP1 PUSH2 0x119A JUMP JUMPDEST SWAP1 POP PUSH1 0x0 PUSH2 0x9F2 PUSH2 0x3E5 PUSH2 0x9D8 DUP7 DUP10 PUSH2 0x159F JUMP JUMPDEST SWAP1 POP PUSH2 0xA03 PUSH1 0x1 PUSH2 0x379 DUP4 DUP6 PUSH2 0x1B32 JUMP JUMPDEST SWAP7 SWAP6 POP POP POP POP POP POP JUMP JUMPDEST PUSH1 0x40 MLOAD PUSH4 0xE6A43905 PUSH1 0xE0 SHL DUP2 MSTORE PUSH1 0x1 PUSH1 0x1 PUSH1 0xA0 SHL SUB DUP4 DUP2 AND PUSH1 0x4 DUP4 ADD MSTORE DUP3 DUP2 AND PUSH1 0x24 DUP4 ADD MSTORE PUSH1 0x0 SWAP2 PUSH32 0x0 SWAP1 SWAP2 AND SWAP1 PUSH4 0xE6A43905 SWAP1 PUSH1 0x44 ADD PUSH1 0x20 PUSH1 0x40 MLOAD DUP1 DUP4 SUB DUP2 DUP7 GAS STATICCALL ISZERO DUP1 ISZERO PUSH2 0xA80 JUMPI RETURNDATASIZE PUSH1 0x0 DUP1 RETURNDATACOPY RETURNDATASIZE PUSH1 0x0 REVERT JUMPDEST POP POP POP POP PUSH1 0x40 MLOAD RETURNDATASIZE PUSH1 0x1F NOT PUSH1 0x1F DUP3 ADD AND DUP3 ADD DUP1 PUSH1 0x40 MSTORE POP DUP2 ADD SWAP1 PUSH2 0xAA4 SWAP2 SWAP1 PUSH2 0x1BDD JUMP JUMPDEST SWAP1 POP JUMPDEST SWAP3 SWAP2 POP POP JUMP JUMPDEST PUSH1 0x0 DUP1 DUP5 GT PUSH2 0xB09 JUMPI PUSH1 0x40 MLOAD PUSH3 0x461BCD PUSH1 0xE5 SHL DUP2 MSTORE PUSH1 0x20 PUSH1 0x4 DUP3 ADD MSTORE PUSH1 0x22 PUSH1 0x24 DUP3 ADD MSTORE PUSH32 0x4469616D6F6E64526F757465723A20494E53554646494349454E545F414D4F55 PUSH1 0x44 DUP3 ADD MSTORE PUSH2 0x1395 PUSH1 0xF2 SHL PUSH1 0x64 DUP3 ADD MSTORE PUSH1 0x84 ADD PUSH2 0x314 JUMP JUMPDEST PUSH1 0x0 DUP4 GT DUP1 ISZERO PUSH2 0xB19 JUMPI POP PUSH1 0x0 DUP3 GT JUMPDEST PUSH2 0xB35 JUMPI PUSH1 0x40 MLOAD PUSH3 0x461BCD PUSH1 0xE5 SHL DUP2 MSTORE PUSH1 0x4 ADD PUSH2 0x314 SWAP1 PUSH2 0x1AD7 JUMP JUMPDEST DUP3 PUSH2 0xB40 DUP6 DUP5 PUSH2 0x119A JUMP JUMPDEST PUSH2 0xB4A SWAP2 SWAP1 PUSH2 0x1B32 JUMP JUMPDEST SWAP5 SWAP4 POP POP POP POP JUMP JUMPDEST PUSH1 0x0 DUP1 PUSH2 0xB5D PUSH2 0x11B2 JUMP JUMPDEST PUSH1 0x0 PUSH2 0xB69 DUP10 DUP10 PUSH2 0xA0D JUMP JUMPDEST PUSH1 0x40 MLOAD PUSH4 0x23B872DD PUSH1 0xE0 SHL DUP2 MSTORE CALLER PUSH1 0x4 DUP3 ADD MSTORE PUSH1 0x1 PUSH1 0x1 PUSH1 0xA0 SHL SUB DUP3 AND PUSH1 0x24 DUP3 ADD DUP2 SWAP1 MSTORE PUSH1 0x44 DUP3 ADD DUP11 SWAP1 MSTORE SWAP2 SWAP3 POP PUSH4 0x23B872DD SWAP1 PUSH1 0x64 ADD PUSH1 0x20 PUSH1 0x40 MLOAD DUP1 DUP4 SUB DUP2 PUSH1 0x0 DUP8 GAS CALL ISZERO DUP1 ISZERO PUSH2 0xBBF JUMPI RETURNDATASIZE PUSH1 0x0 DUP1 RETURNDATACOPY RETURNDATASIZE PUSH1 0x0 REVERT JUMPDEST POP POP POP POP PUSH1 0x40 MLOAD RETURNDATASIZE PUSH1 0x1F NOT PUSH1 0x1F DUP3 ADD AND DUP3 ADD DUP1 PUSH1 0x40 MSTORE POP DUP2 ADD SWAP1 PUSH2 0xBE3 SWAP2 SWAP1 PUSH2 0x1BFA JUMP JUMPDEST POP PUSH1 0x40 MLOAD PUSH4 0x226BF2D1 PUSH1 0xE2 SHL DUP2 MSTORE PUSH1 0x1 PUSH1 0x1 PUSH1 0xA0 SHL SUB DUP6 DUP2 AND PUSH1 0x4 DUP4 ADD MSTORE DUP3 AND SWAP1 PUSH4 0x89AFCB44 SWAP1 PUSH1 0x24 ADD PUSH1 0x40 DUP1 MLOAD DUP1 DUP4 SUB DUP2 PUSH1 0x0 DUP8 GAS CALL ISZERO DUP1 ISZERO PUSH2 0xC2B JUMPI RETURNDATASIZE PUSH1 0x0 DUP1 RETURNDATACOPY RETURNDATASIZE PUSH1 0x0 REVERT JUMPDEST POP POP POP POP PUSH1 0x40 MLOAD RETURNDATASIZE PUSH1 0x1F NOT PUSH1 0x1F DUP3 ADD AND DUP3 ADD DUP1 PUSH1 0x40 MSTORE POP DUP2 ADD SWAP1 PUSH2 0xC4F SWAP2 SWAP1 PUSH2 0x1C1C JUMP JUMPDEST SWAP1 SWAP4 POP SWAP2 POP DUP6 DUP4 LT ISZERO PUSH2 0xC74 JUMPI PUSH1 0x40 MLOAD PUSH3 0x461BCD PUSH1 0xE5 SHL DUP2 MSTORE PUSH1 0x4 ADD PUSH2 0x314 SWAP1 PUSH2 0x1C40 JUMP JUMPDEST DUP5 DUP3 LT ISZERO PUSH2 0xC94 JUMPI PUSH1 0x40 MLOAD PUSH3 0x461BCD PUSH1 0xE5 SHL DUP2 MSTORE PUSH1 0x4 ADD PUSH2 0x314 SWAP1 PUSH2 0x1C84 JUMP JUMPDEST PUSH1 0x40 DUP1 MLOAD DUP5 DUP2 MSTORE PUSH1 0x20 DUP2 ADD DUP5 SWAP1 MSTORE SWAP1 DUP2 ADD DUP9 SWAP1 MSTORE PUSH1 0x1 PUSH1 0x1 PUSH1 0xA0 SHL SUB DUP1 DUP11 AND SWAP2 SWAP1 DUP12 AND SWAP1 CALLER SWAP1 PUSH32 0xD765E08EEF31C0983ECCA03ECD166297AC485ECD5DD69E291C848F0A020333C1 SWAP1 PUSH1 0x60 ADD PUSH1 0x40 MLOAD DUP1 SWAP2 SUB SWAP1 LOG4 POP PUSH2 0xCF1 PUSH1 0x1 DUP1 SSTORE JUMP JUMPDEST SWAP7 POP SWAP7 SWAP5 POP POP POP POP POP JUMP JUMPDEST PUSH1 0x0 DUP1 PUSH1 0x0 PUSH2 0xD09 PUSH2 0x11B2 JUMP JUMPDEST PUSH1 0x0 PUSH2 0xD15 DUP12 DUP12 PUSH2 0xA0D JUMP JUMPDEST SWAP1 POP PUSH1 0x1 PUSH1 0x1 PUSH1 0xA0 SHL SUB DUP2 AND PUSH2 0xDBC JUMPI PUSH1 0x40 MLOAD PUSH4 0x64E329CB PUSH1 0xE1 SHL DUP2 MSTORE PUSH1 0x1 PUSH1 0x1 PUSH1 0xA0 SHL SUB DUP13 DUP2 AND PUSH1 0x4 DUP4 ADD MSTORE DUP12 DUP2 AND PUSH1 0x24 DUP4 ADD MSTORE PUSH32 0x0 AND SWAP1 PUSH4 0xC9C65396 SWAP1 PUSH1 0x44 ADD PUSH1 0x20 PUSH1 0x40 MLOAD DUP1 DUP4 SUB DUP2 PUSH1 0x0 DUP8 GAS CALL ISZERO DUP1 ISZERO PUSH2 0xD95 JUMPI RETURNDATASIZE PUSH1 0x0 DUP1 RETURNDATACOPY RETURNDATASIZE PUSH1 0x0 REVERT JUMPDEST POP POP POP POP PUSH1 0x40 MLOAD RETURNDATASIZE PUSH1 0x1F NOT PUSH1 0x1F DUP3 ADD AND DUP3 ADD DUP1 PUSH1 0x40 MSTORE POP DUP2 ADD SWAP1 PUSH2 0xDB9 SWAP2 SWAP1 PUSH2 0x1BDD JUMP JUMPDEST SWAP1 POP JUMPDEST PUSH2 0xDCA DUP12 DUP12 DUP12 DUP12 DUP12 DUP12 PUSH2 0x15AB JUMP JUMPDEST SWAP1 SWAP5 POP SWAP3 POP PUSH2 0xDDB DUP12 CALLER DUP4 DUP8 PUSH2 0x120B JUMP JUMPDEST PUSH2 0xDE7 DUP11 CALLER DUP4 DUP7 PUSH2 0x120B JUMP JUMPDEST PUSH1 0x40 MLOAD PUSH4 0x35313C21 PUSH1 0xE1 SHL DUP2 MSTORE PUSH1 0x1 PUSH1 0x1 PUSH1 0xA0 SHL SUB DUP7 DUP2 AND PUSH1 0x4 DUP4 ADD MSTORE DUP3 AND SWAP1 PUSH4 0x6A627842 SWAP1 PUSH1 0x24 ADD PUSH1 0x20 PUSH1 0x40 MLOAD DUP1 DUP4 SUB DUP2 PUSH1 0x0 DUP8 GAS CALL ISZERO DUP1 ISZERO PUSH2 0xE2F JUMPI RETURNDATASIZE PUSH1 0x0 DUP1 RETURNDATACOPY RETURNDATASIZE PUSH1 0x0 REVERT JUMPDEST POP POP POP POP PUSH1 0x40 MLOAD RETURNDATASIZE PUSH1 0x1F NOT PUSH1 0x1F DUP3 ADD AND DUP3 ADD DUP1 PUSH1 0x40 MSTORE POP DUP2 ADD SWAP1 PUSH2 0xE53 SWAP2 SWAP1 PUSH2 0x1CC8 JUMP JUMPDEST PUSH1 0x40 DUP1 MLOAD DUP7 DUP2 MSTORE PUSH1 0x20 DUP2 ADD DUP7 SWAP1 MSTORE SWAP1 DUP2 ADD DUP3 SWAP1 MSTORE SWAP1 SWAP3 POP PUSH1 0x1 PUSH1 0x1 PUSH1 0xA0 SHL SUB DUP1 DUP13 AND SWAP2 SWAP1 DUP14 AND SWAP1 CALLER SWAP1 PUSH32 0x43C967B388D3A4CCAD3F7AB80167852E322E5A3FDE9893F530252281B2AE8B70 SWAP1 PUSH1 0x60 ADD PUSH1 0x40 MLOAD DUP1 SWAP2 SUB SWAP1 LOG4 POP PUSH2 0xEB3 PUSH1 0x1 DUP1 SSTORE JUMP JUMPDEST SWAP8 POP SWAP8 POP SWAP8 SWAP5 POP POP POP POP POP JUMP JUMPDEST PUSH1 0x60 PUSH1 0x2 DUP3 MLOAD LT ISZERO PUSH2 0xF14 JUMPI PUSH1 0x40 MLOAD PUSH3 0x461BCD PUSH1 0xE5 SHL DUP2 MSTORE PUSH1 0x20 PUSH1 0x4 DUP3 ADD MSTORE PUSH1 0x1B PUSH1 0x24 DUP3 ADD MSTORE PUSH32 0x4469616D6F6E64526F757465723A20494E56414C49445F504154480000000000 PUSH1 0x44 DUP3 ADD MSTORE PUSH1 0x64 ADD PUSH2 0x314 JUMP JUMPDEST DUP2 MLOAD PUSH8 0xFFFFFFFFFFFFFFFF DUP2 GT ISZERO PUSH2 0xF2E JUMPI PUSH2 0xF2E PUSH2 0x17B3 JUMP JUMPDEST PUSH1 0x40 MLOAD SWAP1 DUP1 DUP3 MSTORE DUP1 PUSH1 0x20 MUL PUSH1 0x20 ADD DUP3 ADD PUSH1 0x40 MSTORE DUP1 ISZERO PUSH2 0xF57 JUMPI DUP2 PUSH1 0x20 ADD PUSH1 0x20 DUP3 MUL DUP1 CALLDATASIZE DUP4 CALLDATACOPY ADD SWAP1 POP JUMPDEST POP SWAP1 POP DUP3 DUP2 PUSH1 0x0 DUP2 MLOAD DUP2 LT PUSH2 0xF6E JUMPI PUSH2 0xF6E PUSH2 0x1B67 JUMP JUMPDEST PUSH1 0x20 MUL PUSH1 0x20 ADD ADD DUP2 DUP2 MSTORE POP POP PUSH1 0x0 JUMPDEST PUSH1 0x1 DUP4 MLOAD PUSH2 0xF8B SWAP2 SWAP1 PUSH2 0x1B54 JUMP JUMPDEST DUP2 LT ISZERO PUSH2 0x523 JUMPI PUSH1 0x0 DUP1 PUSH2 0xFD0 DUP6 DUP5 DUP2 MLOAD DUP2 LT PUSH2 0xFAA JUMPI PUSH2 0xFAA PUSH2 0x1B67 JUMP JUMPDEST PUSH1 0x20 MUL PUSH1 0x20 ADD ADD MLOAD DUP7 DUP6 PUSH1 0x1 PUSH2 0xFC0 SWAP2 SWAP1 PUSH2 0x1CE1 JUMP JUMPDEST DUP2 MLOAD DUP2 LT PUSH2 0x4B1 JUMPI PUSH2 0x4B1 PUSH2 0x1B67 JUMP JUMPDEST SWAP2 POP SWAP2 POP PUSH2 0xFF8 DUP5 DUP5 DUP2 MLOAD DUP2 LT PUSH2 0xFE9 JUMPI PUSH2 0xFE9 PUSH2 0x1B67 JUMP JUMPDEST PUSH1 0x20 MUL PUSH1 0x20 ADD ADD MLOAD DUP4 DUP4 PUSH2 0x2B6 JUMP JUMPDEST DUP5 PUSH2 0x1004 DUP6 PUSH1 0x1 PUSH2 0x1CE1 JUMP JUMPDEST DUP2 MLOAD DUP2 LT PUSH2 0x1014 JUMPI PUSH2 0x1014 PUSH2 0x1B67 JUMP JUMPDEST PUSH1 0x20 MUL PUSH1 0x20 ADD ADD DUP2 DUP2 MSTORE POP POP POP POP DUP1 DUP1 PUSH2 0x102D SWAP1 PUSH2 0x1CF4 JUMP JUMPDEST SWAP2 POP POP PUSH2 0xF7D JUMP JUMPDEST PUSH1 0x0 DUP1 PUSH1 0x0 PUSH2 0x1044 DUP6 DUP6 PUSH2 0x169A JUMP JUMPDEST POP SWAP1 POP PUSH1 0x0 PUSH2 0x1053 DUP7 DUP7 PUSH2 0xA0D JUMP JUMPDEST SWAP1 POP PUSH1 0x1 PUSH1 0x1 PUSH1 0xA0 SHL SUB DUP2 AND PUSH2 0x1071 JUMPI PUSH1 0x0 DUP1 SWAP4 POP SWAP4 POP POP POP PUSH2 0x111A JUMP JUMPDEST PUSH1 0x0 DUP1 DUP3 PUSH1 0x1 PUSH1 0x1 PUSH1 0xA0 SHL SUB AND PUSH4 0x902F1AC PUSH1 0x40 MLOAD DUP2 PUSH4 0xFFFFFFFF AND PUSH1 0xE0 SHL DUP2 MSTORE PUSH1 0x4 ADD PUSH1 0x60 PUSH1 0x40 MLOAD DUP1 DUP4 SUB DUP2 DUP7 GAS STATICCALL ISZERO DUP1 ISZERO PUSH2 0x10B2 JUMPI RETURNDATASIZE PUSH1 0x0 DUP1 RETURNDATACOPY RETURNDATASIZE PUSH1 0x0 REVERT JUMPDEST POP POP POP POP PUSH1 0x40 MLOAD RETURNDATASIZE PUSH1 0x1F NOT PUSH1 0x1F DUP3 ADD AND DUP3 ADD DUP1 PUSH1 0x40 MSTORE POP DUP2 ADD SWAP1 PUSH2 0x10D6 SWAP2 SWAP1 PUSH2 0x1D24 JUMP JUMPDEST POP PUSH1 0x1 PUSH1 0x1 PUSH1 0x70 SHL SUB AND SWAP2 POP PUSH1 0x1 PUSH1 0x1 PUSH1 0x70 SHL SUB AND SWAP2 POP DUP4 PUSH1 0x1 PUSH1 0x1 PUSH1 0xA0 SHL SUB AND DUP9 PUSH1 0x1 PUSH1 0x1 PUSH1 0xA0 SHL SUB AND EQ PUSH2 0x110D JUMPI DUP1 DUP3 PUSH2 0x1110 JUMP JUMPDEST DUP2 DUP2 JUMPDEST SWAP1 SWAP7 POP SWAP5 POP POP POP POP POP JUMPDEST SWAP3 POP SWAP3 SWAP1 POP JUMP JUMPDEST PUSH2 0x1129 PUSH2 0x14F5 JUMP JUMPDEST PUSH1 0x1 PUSH1 0x1 PUSH1 0xA0 SHL SUB DUP2 AND PUSH2 0x118E JUMPI PUSH1 0x40 MLOAD PUSH3 0x461BCD PUSH1 0xE5 SHL DUP2 MSTORE PUSH1 0x20 PUSH1 0x4 DUP3 ADD MSTORE PUSH1 0x26 PUSH1 0x24 DUP3 ADD MSTORE PUSH32 0x4F776E61626C653A206E6577206F776E657220697320746865207A65726F2061 PUSH1 0x44 DUP3 ADD MSTORE PUSH6 0x646472657373 PUSH1 0xD0 SHL PUSH1 0x64 DUP3 ADD MSTORE PUSH1 0x84 ADD PUSH2 0x314 JUMP JUMPDEST PUSH2 0x1197 DUP2 PUSH2 0x154F JUMP JUMPDEST POP JUMP JUMPDEST PUSH1 0x0 PUSH2 0xAA4 DUP3 DUP5 PUSH2 0x1D74 JUMP JUMPDEST PUSH1 0x0 PUSH2 0xAA4 DUP3 DUP5 PUSH2 0x1CE1 JUMP JUMPDEST PUSH1 0x2 PUSH1 0x1 SLOAD SUB PUSH2 0x1204 JUMPI PUSH1 0x40 MLOAD PUSH3 0x461BCD PUSH1 0xE5 SHL DUP2 MSTORE PUSH1 0x20 PUSH1 0x4 DUP3 ADD MSTORE PUSH1 0x1F PUSH1 0x24 DUP3 ADD MSTORE PUSH32 0x5265656E7472616E637947756172643A207265656E7472616E742063616C6C00 PUSH1 0x44 DUP3 ADD MSTORE PUSH1 0x64 ADD PUSH2 0x314 JUMP JUMPDEST PUSH1 0x2 PUSH1 0x1 SSTORE JUMP JUMPDEST PUSH1 0x40 DUP1 MLOAD PUSH1 0x1 PUSH1 0x1 PUSH1 0xA0 SHL SUB DUP6 DUP2 AND PUSH1 0x24 DUP4 ADD MSTORE DUP5 DUP2 AND PUSH1 0x44 DUP4 ADD MSTORE PUSH1 0x64 DUP1 DUP4 ADD DUP6 SWAP1 MSTORE DUP4 MLOAD DUP1 DUP5 SUB SWAP1 SWAP2 ADD DUP2 MSTORE PUSH1 0x84 SWAP1 SWAP3 ADD DUP4 MSTORE PUSH1 0x20 DUP3 ADD DUP1 MLOAD PUSH1 0x1 PUSH1 0x1 PUSH1 0xE0 SHL SUB AND PUSH4 0x23B872DD PUSH1 0xE0 SHL OR SWAP1 MSTORE SWAP2 MLOAD PUSH1 0x0 SWAP3 DUP4 SWAP3 SWAP1 DUP9 AND SWAP2 PUSH2 0x126F SWAP2 SWAP1 PUSH2 0x1DAF JUMP JUMPDEST PUSH1 0x0 PUSH1 0x40 MLOAD DUP1 DUP4 SUB DUP2 PUSH1 0x0 DUP7 GAS CALL SWAP2 POP POP RETURNDATASIZE DUP1 PUSH1 0x0 DUP2 EQ PUSH2 0x12AC JUMPI PUSH1 0x40 MLOAD SWAP2 POP PUSH1 0x1F NOT PUSH1 0x3F RETURNDATASIZE ADD AND DUP3 ADD PUSH1 0x40 MSTORE RETURNDATASIZE DUP3 MSTORE RETURNDATASIZE PUSH1 0x0 PUSH1 0x20 DUP5 ADD RETURNDATACOPY PUSH2 0x12B1 JUMP JUMPDEST PUSH1 0x60 SWAP2 POP JUMPDEST POP SWAP2 POP SWAP2 POP DUP2 DUP1 ISZERO PUSH2 0x12DB JUMPI POP DUP1 MLOAD ISZERO DUP1 PUSH2 0x12DB JUMPI POP DUP1 DUP1 PUSH1 0x20 ADD SWAP1 MLOAD DUP2 ADD SWAP1 PUSH2 0x12DB SWAP2 SWAP1 PUSH2 0x1BFA JUMP JUMPDEST PUSH2 0x1327 JUMPI PUSH1 0x40 MLOAD PUSH3 0x461BCD PUSH1 0xE5 SHL DUP2 MSTORE PUSH1 0x20 PUSH1 0x4 DUP3 ADD MSTORE PUSH1 0x1E PUSH1 0x24 DUP3 ADD MSTORE PUSH32 0x4469616D6F6E64526F757465723A205452414E534645525F4641494C45440000 PUSH1 0x44 DUP3 ADD MSTORE PUSH1 0x64 ADD PUSH2 0x314 JUMP JUMPDEST POP POP POP POP POP POP JUMP JUMPDEST PUSH1 0x0 JUMPDEST PUSH1 0x1 DUP4 MLOAD PUSH2 0x1340 SWAP2 SWAP1 PUSH2 0x1B54 JUMP JUMPDEST DUP2 LT ISZERO PUSH2 0x14EF JUMPI PUSH1 0x0 DUP1 DUP5 DUP4 DUP2 MLOAD DUP2 LT PUSH2 0x135C JUMPI PUSH2 0x135C PUSH2 0x1B67 JUMP JUMPDEST PUSH1 0x20 MUL PUSH1 0x20 ADD ADD MLOAD DUP6 DUP5 PUSH1 0x1 PUSH2 0x1372 SWAP2 SWAP1 PUSH2 0x1CE1 JUMP JUMPDEST DUP2 MLOAD DUP2 LT PUSH2 0x1382 JUMPI PUSH2 0x1382 PUSH2 0x1B67 JUMP JUMPDEST PUSH1 0x20 MUL PUSH1 0x20 ADD ADD MLOAD SWAP2 POP SWAP2 POP PUSH1 0x0 PUSH2 0x139A DUP4 DUP4 PUSH2 0x169A JUMP JUMPDEST POP SWAP1 POP PUSH1 0x0 DUP8 PUSH2 0x13AB DUP7 PUSH1 0x1 PUSH2 0x1CE1 JUMP JUMPDEST DUP2 MLOAD DUP2 LT PUSH2 0x13BB JUMPI PUSH2 0x13BB PUSH2 0x1B67 JUMP JUMPDEST PUSH1 0x20 MUL PUSH1 0x20 ADD ADD MLOAD SWAP1 POP PUSH1 0x0 DUP1 DUP4 PUSH1 0x1 PUSH1 0x1 PUSH1 0xA0 SHL SUB AND DUP7 PUSH1 0x1 PUSH1 0x1 PUSH1 0xA0 SHL SUB AND EQ PUSH2 0x13E9 JUMPI DUP3 PUSH1 0x0 PUSH2 0x13ED JUMP JUMPDEST PUSH1 0x0 DUP4 JUMPDEST SWAP2 POP SWAP2 POP PUSH1 0x0 PUSH1 0x2 DUP11 MLOAD PUSH2 0x1401 SWAP2 SWAP1 PUSH2 0x1B54 JUMP JUMPDEST DUP9 LT PUSH2 0x140D JUMPI DUP9 PUSH2 0x143A JUMP JUMPDEST PUSH2 0x143A DUP7 DUP12 PUSH2 0x141D DUP12 PUSH1 0x2 PUSH2 0x1CE1 JUMP JUMPDEST DUP2 MLOAD DUP2 LT PUSH2 0x142D JUMPI PUSH2 0x142D PUSH2 0x1B67 JUMP JUMPDEST PUSH1 0x20 MUL PUSH1 0x20 ADD ADD MLOAD PUSH2 0xA0D JUMP JUMPDEST SWAP1 POP PUSH2 0x1446 DUP8 DUP8 PUSH2 0xA0D JUMP JUMPDEST PUSH1 0x1 PUSH1 0x1 PUSH1 0xA0 SHL SUB AND PUSH4 0x22C0D9F DUP5 DUP5 DUP5 PUSH1 0x0 PUSH1 0x40 MLOAD SWAP1 DUP1 DUP3 MSTORE DUP1 PUSH1 0x1F ADD PUSH1 0x1F NOT AND PUSH1 0x20 ADD DUP3 ADD PUSH1 0x40 MSTORE DUP1 ISZERO PUSH2 0x1483 JUMPI PUSH1 0x20 DUP3 ADD DUP2 DUP1 CALLDATASIZE DUP4 CALLDATACOPY ADD SWAP1 POP JUMPDEST POP PUSH1 0x40 MLOAD DUP6 PUSH4 0xFFFFFFFF AND PUSH1 0xE0 SHL DUP2 MSTORE PUSH1 0x4 ADD PUSH2 0x14A3 SWAP5 SWAP4 SWAP3 SWAP2 SWAP1 PUSH2 0x1DCB JUMP JUMPDEST PUSH1 0x0 PUSH1 0x40 MLOAD DUP1 DUP4 SUB DUP2 PUSH1 0x0 DUP8 DUP1 EXTCODESIZE ISZERO DUP1 ISZERO PUSH2 0x14BD JUMPI PUSH1 0x0 DUP1 REVERT JUMPDEST POP GAS CALL ISZERO DUP1 ISZERO PUSH2 0x14D1 JUMPI RETURNDATASIZE PUSH1 0x0 DUP1 RETURNDATACOPY RETURNDATASIZE PUSH1 0x0 REVERT JUMPDEST POP POP POP POP POP POP POP POP POP POP POP DUP1 DUP1 PUSH2 0x14E7 SWAP1 PUSH2 0x1CF4 JUMP JUMPDEST SWAP2 POP POP PUSH2 0x1332 JUMP JUMPDEST POP POP POP POP JUMP JUMPDEST PUSH1 0x0 SLOAD PUSH1 0x1 PUSH1 0x1 PUSH1 0xA0 SHL SUB AND CALLER EQ PUSH2 0x977 JUMPI PUSH1 0x40 MLOAD PUSH3 0x461BCD PUSH1 0xE5 SHL DUP2 MSTORE PUSH1 0x20 PUSH1 0x4 DUP3 ADD DUP2 SWAP1 MSTORE PUSH1 0x24 DUP3 ADD MSTORE PUSH32 0x4F776E61626C653A2063616C6C6572206973206E6F7420746865206F776E6572 PUSH1 0x44 DUP3 ADD MSTORE PUSH1 0x64 ADD PUSH2 0x314 JUMP JUMPDEST PUSH1 0x0 DUP1 SLOAD PUSH1 0x1 PUSH1 0x1 PUSH1 0xA0 SHL SUB DUP4 DUP2 AND PUSH1 0x1 PUSH1 0x1 PUSH1 0xA0 SHL SUB NOT DUP4 AND DUP2 OR DUP5 SSTORE PUSH1 0x40 MLOAD SWAP2 SWAP1 SWAP3 AND SWAP3 DUP4 SWAP2 PUSH32 0x8BE0079C531659141344CD1FD0A4F28419497F9722A3DAAFE3B4186F6B6457E0 SWAP2 SWAP1 LOG3 POP POP JUMP JUMPDEST PUSH1 0x0 PUSH2 0xAA4 DUP3 DUP5 PUSH2 0x1B54 JUMP JUMPDEST PUSH1 0x0 DUP1 PUSH1 0x0 PUSH2 0x15BA DUP10 DUP10 PUSH2 0xA0D JUMP JUMPDEST SWAP1 POP PUSH1 0x1 PUSH1 0x1 PUSH1 0xA0 SHL SUB DUP2 AND PUSH2 0x15D6 JUMPI DUP7 DUP7 SWAP3 POP SWAP3 POP POP PUSH2 0xCF1 JUMP JUMPDEST PUSH1 0x0 DUP1 PUSH2 0x15E3 DUP12 DUP12 PUSH2 0x1035 JUMP JUMPDEST SWAP2 POP SWAP2 POP DUP2 PUSH1 0x0 EQ DUP1 ISZERO PUSH2 0x15F5 JUMPI POP DUP1 ISZERO JUMPDEST ISZERO PUSH2 0x1608 JUMPI DUP9 DUP9 SWAP5 POP SWAP5 POP POP POP POP PUSH2 0xCF1 JUMP JUMPDEST PUSH1 0x0 PUSH2 0x1615 DUP11 DUP5 DUP5 PUSH2 0xAAD JUMP JUMPDEST SWAP1 POP DUP9 DUP2 GT PUSH2 0x164C JUMPI DUP7 DUP2 LT ISZERO PUSH2 0x163E JUMPI PUSH1 0x40 MLOAD PUSH3 0x461BCD PUSH1 0xE5 SHL DUP2 MSTORE PUSH1 0x4 ADD PUSH2 0x314 SWAP1 PUSH2 0x1C84 JUMP JUMPDEST DUP10 SWAP6 POP SWAP4 POP PUSH2 0xCF1 SWAP3 POP POP POP JUMP JUMPDEST PUSH1 0x0 PUSH2 0x1659 DUP11 DUP5 DUP7 PUSH2 0xAAD JUMP JUMPDEST SWAP1 POP DUP11 DUP2 GT ISZERO PUSH2 0x166B JUMPI PUSH2 0x166B PUSH2 0x1E1B JUMP JUMPDEST DUP9 DUP2 LT ISZERO PUSH2 0x168B JUMPI PUSH1 0x40 MLOAD PUSH3 0x461BCD PUSH1 0xE5 SHL DUP2 MSTORE PUSH1 0x4 ADD PUSH2 0x314 SWAP1 PUSH2 0x1C40 JUMP JUMPDEST SWAP6 POP DUP9 SWAP5 POP PUSH2 0xCF1 SWAP4 POP POP POP POP JUMP JUMPDEST PUSH1 0x0 DUP1 DUP3 PUSH1 0x1 PUSH1 0x1 PUSH1 0xA0 SHL SUB AND DUP5 PUSH1 0x1 PUSH1 0x1 PUSH1 0xA0 SHL SUB AND SUB PUSH2 0x1709 JUMPI PUSH1 0x40 MLOAD PUSH3 0x461BCD PUSH1 0xE5 SHL DUP2 MSTORE PUSH1 0x20 PUSH1 0x4 DUP3 ADD MSTORE PUSH1 0x22 PUSH1 0x24 DUP3 ADD MSTORE PUSH32 0x4469616D6F6E64526F757465723A204944454E544943414C5F41444452455353 PUSH1 0x44 DUP3 ADD MSTORE PUSH2 0x4553 PUSH1 0xF0 SHL PUSH1 0x64 DUP3 ADD MSTORE PUSH1 0x84 ADD PUSH2 0x314 JUMP JUMPDEST DUP3 PUSH1 0x1 PUSH1 0x1 PUSH1 0xA0 SHL SUB AND DUP5 PUSH1 0x1 PUSH1 0x1 PUSH1 0xA0 SHL SUB AND LT PUSH2 0x1729 JUMPI DUP3 DUP5 PUSH2 0x172C JUMP JUMPDEST DUP4 DUP4 JUMPDEST SWAP1 SWAP3 POP SWAP1 POP PUSH1 0x1 PUSH1 0x1 PUSH1 0xA0 SHL SUB DUP3 AND PUSH2 0x111A JUMPI PUSH1 0x40 MLOAD PUSH3 0x461BCD PUSH1 0xE5 SHL DUP2 MSTORE PUSH1 0x20 PUSH1 0x4 DUP3 ADD MSTORE PUSH1 0x1B PUSH1 0x24 DUP3 ADD MSTORE PUSH32 0x4469616D6F6E64526F757465723A205A45524F5F414444524553530000000000 PUSH1 0x44 DUP3 ADD MSTORE PUSH1 0x64 ADD PUSH2 0x314 JUMP JUMPDEST PUSH1 0x0 DUP1 PUSH1 0x0 PUSH1 0x60 DUP5 DUP7 SUB SLT ISZERO PUSH2 0x179C JUMPI PUSH1 0x0 DUP1 REVERT JUMPDEST POP POP DUP2 CALLDATALOAD SWAP4 PUSH1 0x20 DUP4 ADD CALLDATALOAD SWAP4 POP PUSH1 0x40 SWAP1 SWAP3 ADD CALLDATALOAD SWAP2 SWAP1 POP JUMP JUMPDEST PUSH4 0x4E487B71 PUSH1 0xE0 SHL PUSH1 0x0 MSTORE PUSH1 0x41 PUSH1 0x4 MSTORE PUSH1 0x24 PUSH1 0x0 REVERT JUMPDEST PUSH1 0x1 PUSH1 0x1 PUSH1 0xA0 SHL SUB DUP2 AND DUP2 EQ PUSH2 0x1197 JUMPI PUSH1 0x0 DUP1 REVERT JUMPDEST DUP1 CALLDATALOAD PUSH2 0x17E9 DUP2 PUSH2 0x17C9 JUMP JUMPDEST SWAP2 SWAP1 POP JUMP JUMPDEST PUSH1 0x0 DUP1 PUSH1 0x40 DUP4 DUP6 SUB SLT ISZERO PUSH2 0x1801 JUMPI PUSH1 0x0 DUP1 REVERT JUMPDEST DUP3 CALLDATALOAD SWAP2 POP PUSH1 0x20 DUP1 DUP5 ADD CALLDATALOAD PUSH8 0xFFFFFFFFFFFFFFFF DUP1 DUP3 GT ISZERO PUSH2 0x1821 JUMPI PUSH1 0x0 DUP1 REVERT JUMPDEST DUP2 DUP7 ADD SWAP2 POP DUP7 PUSH1 0x1F DUP4 ADD SLT PUSH2 0x1835 JUMPI PUSH1 0x0 DUP1 REVERT JUMPDEST DUP2 CALLDATALOAD DUP2 DUP2 GT ISZERO PUSH2 0x1847 JUMPI PUSH2 0x1847 PUSH2 0x17B3 JUMP JUMPDEST DUP1 PUSH1 0x5 SHL PUSH1 0x40 MLOAD PUSH1 0x1F NOT PUSH1 0x3F DUP4 ADD AND DUP2 ADD DUP2 DUP2 LT DUP6 DUP3 GT OR ISZERO PUSH2 0x186C JUMPI PUSH2 0x186C PUSH2 0x17B3 JUMP JUMPDEST PUSH1 0x40 MSTORE SWAP2 DUP3 MSTORE DUP5 DUP3 ADD SWAP3 POP DUP4 DUP2 ADD DUP6 ADD SWAP2 DUP10 DUP4 GT ISZERO PUSH2 0x188A JUMPI PUSH1 0x0 DUP1 REVERT JUMPDEST SWAP4 DUP6 ADD SWAP4 JUMPDEST DUP3 DUP6 LT ISZERO PUSH2 0x18AF JUMPI PUSH2 0x18A0 DUP6 PUSH2 0x17DE JUMP JUMPDEST DUP5 MSTORE SWAP4 DUP6 ADD SWAP4 SWAP3 DUP6 ADD SWAP3 PUSH2 0x188F JUMP JUMPDEST DUP1 SWAP7 POP POP POP POP POP POP POP SWAP3 POP SWAP3 SWAP1 POP JUMP JUMPDEST PUSH1 0x20 DUP1 DUP3 MSTORE DUP3 MLOAD DUP3 DUP3 ADD DUP2 SWAP1 MSTORE PUSH1 0x0 SWAP2 SWAP1 DUP5 DUP3 ADD SWAP1 PUSH1 0x40 DUP6 ADD SWAP1 DUP5 JUMPDEST DUP2 DUP2 LT ISZERO PUSH2 0x18F7 JUMPI DUP4 MLOAD DUP4 MSTORE SWAP3 DUP5 ADD SWAP3 SWAP2 DUP5 ADD SWAP2 PUSH1 0x1 ADD PUSH2 0x18DB JUMP JUMPDEST POP SWAP1 SWAP7 SWAP6 POP POP POP POP POP POP JUMP JUMPDEST PUSH1 0x0 DUP1 PUSH1 0x0 DUP1 PUSH1 0x0 PUSH1 0x80 DUP7 DUP9 SUB SLT ISZERO PUSH2 0x191B JUMPI PUSH1 0x0 DUP1 REVERT JUMPDEST DUP6 CALLDATALOAD SWAP5 POP PUSH1 0x20 DUP7 ADD CALLDATALOAD SWAP4 POP PUSH1 0x40 DUP7 ADD CALLDATALOAD PUSH8 0xFFFFFFFFFFFFFFFF DUP1 DUP3 GT ISZERO PUSH2 0x1941 JUMPI PUSH1 0x0 DUP1 REVERT JUMPDEST DUP2 DUP9 ADD SWAP2 POP DUP9 PUSH1 0x1F DUP4 ADD SLT PUSH2 0x1955 JUMPI PUSH1 0x0 DUP1 REVERT JUMPDEST DUP2 CALLDATALOAD DUP2 DUP2 GT ISZERO PUSH2 0x1964 JUMPI PUSH1 0x0 DUP1 REVERT JUMPDEST DUP10 PUSH1 0x20 DUP3 PUSH1 0x5 SHL DUP6 ADD ADD GT ISZERO PUSH2 0x1979 JUMPI PUSH1 0x0 DUP1 REVERT JUMPDEST PUSH1 0x20 DUP4 ADD SWAP6 POP DUP1 SWAP5 POP POP POP POP PUSH1 0x60 DUP7 ADD CALLDATALOAD PUSH2 0x1993 DUP2 PUSH2 0x17C9 JUMP JUMPDEST DUP1 SWAP2 POP POP SWAP3 SWAP6 POP SWAP3 SWAP6 SWAP1 SWAP4 POP JUMP JUMPDEST PUSH1 0x0 DUP1 PUSH1 0x40 DUP4 DUP6 SUB SLT ISZERO PUSH2 0x19B4 JUMPI PUSH1 0x0 DUP1 REVERT JUMPDEST DUP3 CALLDATALOAD PUSH2 0x19BF DUP2 PUSH2 0x17C9 JUMP JUMPDEST SWAP2 POP PUSH1 0x20 DUP4 ADD CALLDATALOAD PUSH2 0x19CF DUP2 PUSH2 0x17C9 JUMP JUMPDEST DUP1 SWAP2 POP POP SWAP3 POP SWAP3 SWAP1 POP JUMP JUMPDEST PUSH1 0x0 DUP1 PUSH1 0x0 DUP1 PUSH1 0x0 DUP1 PUSH1 0xC0 DUP8 DUP10 SUB SLT ISZERO PUSH2 0x19F3 JUMPI PUSH1 0x0 DUP1 REVERT JUMPDEST DUP7 CALLDATALOAD PUSH2 0x19FE DUP2 PUSH2 0x17C9 JUMP JUMPDEST SWAP6 POP PUSH1 0x20 DUP8 ADD CALLDATALOAD PUSH2 0x1A0E DUP2 PUSH2 0x17C9 JUMP JUMPDEST SWAP5 POP PUSH1 0x40 DUP8 ADD CALLDATALOAD SWAP4 POP PUSH1 0x60 DUP8 ADD CALLDATALOAD SWAP3 POP PUSH1 0x80 DUP8 ADD CALLDATALOAD SWAP2 POP PUSH1 0xA0 DUP8 ADD CALLDATALOAD PUSH2 0x1A33 DUP2 PUSH2 0x17C9 JUMP JUMPDEST DUP1 SWAP2 POP POP SWAP3 SWAP6 POP SWAP3 SWAP6 POP SWAP3 SWAP6 JUMP JUMPDEST PUSH1 0x0 DUP1 PUSH1 0x0 DUP1 PUSH1 0x0 DUP1 PUSH1 0x0 PUSH1 0xE0 DUP9 DUP11 SUB SLT ISZERO PUSH2 0x1A5C JUMPI PUSH1 0x0 DUP1 REVERT JUMPDEST DUP8 CALLDATALOAD PUSH2 0x1A67 DUP2 PUSH2 0x17C9 JUMP JUMPDEST SWAP7 POP PUSH1 0x20 DUP9 ADD CALLDATALOAD PUSH2 0x1A77 DUP2 PUSH2 0x17C9 JUMP JUMPDEST SWAP6 POP PUSH1 0x40 DUP9 ADD CALLDATALOAD SWAP5 POP PUSH1 0x60 DUP9 ADD CALLDATALOAD SWAP4 POP PUSH1 0x80 DUP9 ADD CALLDATALOAD SWAP3 POP PUSH1 0xA0 DUP9 ADD CALLDATALOAD SWAP2 POP PUSH1 0xC0 DUP9 ADD CALLDATALOAD PUSH2 0x1AA3 DUP2 PUSH2 0x17C9 JUMP JUMPDEST DUP1 SWAP2 POP POP SWAP3 SWAP6 SWAP9 SWAP2 SWAP5 SWAP8 POP SWAP3 SWAP6 POP JUMP JUMPDEST PUSH1 0x0 PUSH1 0x20 DUP3 DUP5 SUB SLT ISZERO PUSH2 0x1AC5 JUMPI PUSH1 0x0 DUP1 REVERT JUMPDEST DUP2 CALLDATALOAD PUSH2 0x1AD0 DUP2 PUSH2 0x17C9 JUMP JUMPDEST SWAP4 SWAP3 POP POP POP JUMP JUMPDEST PUSH1 0x20 DUP1 DUP3 MSTORE PUSH1 0x25 SWAP1 DUP3 ADD MSTORE PUSH32 0x4469616D6F6E64526F757465723A20494E53554646494349454E545F4C495155 PUSH1 0x40 DUP3 ADD MSTORE PUSH5 0x4944495459 PUSH1 0xD8 SHL PUSH1 0x60 DUP3 ADD MSTORE PUSH1 0x80 ADD SWAP1 JUMP JUMPDEST PUSH4 0x4E487B71 PUSH1 0xE0 SHL PUSH1 0x0 MSTORE PUSH1 0x11 PUSH1 0x4 MSTORE PUSH1 0x24 PUSH1 0x0 REVERT JUMPDEST PUSH1 0x0 DUP3 PUSH2 0x1B4F JUMPI PUSH4 0x4E487B71 PUSH1 0xE0 SHL PUSH1 0x0 MSTORE PUSH1 0x12 PUSH1 0x4 MSTORE PUSH1 0x24 PUSH1 0x0 REVERT JUMPDEST POP DIV SWAP1 JUMP JUMPDEST DUP2 DUP2 SUB DUP2 DUP2 GT ISZERO PUSH2 0xAA7 JUMPI PUSH2 0xAA7 PUSH2 0x1B1C JUMP JUMPDEST PUSH4 0x4E487B71 PUSH1 0xE0 SHL PUSH1 0x0 MSTORE PUSH1 0x32 PUSH1 0x4 MSTORE PUSH1 0x24 PUSH1 0x0 REVERT JUMPDEST PUSH1 0x0 DUP2 PUSH2 0x1B8C JUMPI PUSH2 0x1B8C PUSH2 0x1B1C JUMP JUMPDEST POP PUSH1 0x0 NOT ADD SWAP1 JUMP JUMPDEST PUSH1 0x20 DUP1 DUP3 MSTORE PUSH1 0x29 SWAP1 DUP3 ADD MSTORE PUSH32 0x4469616D6F6E64526F757465723A20494E53554646494349454E545F4F555450 PUSH1 0x40 DUP3 ADD MSTORE PUSH9 0x155517D05353D55395 PUSH1 0xBA SHL PUSH1 0x60 DUP3 ADD MSTORE PUSH1 0x80 ADD SWAP1 JUMP JUMPDEST PUSH1 0x0 PUSH1 0x20 DUP3 DUP5 SUB SLT ISZERO PUSH2 0x1BEF JUMPI PUSH1 0x0 DUP1 REVERT JUMPDEST DUP2 MLOAD PUSH2 0x1AD0 DUP2 PUSH2 0x17C9 JUMP JUMPDEST PUSH1 0x0 PUSH1 0x20 DUP3 DUP5 SUB SLT ISZERO PUSH2 0x1C0C JUMPI PUSH1 0x0 DUP1 REVERT JUMPDEST DUP2 MLOAD DUP1 ISZERO ISZERO DUP2 EQ PUSH2 0x1AD0 JUMPI PUSH1 0x0 DUP1 REVERT JUMPDEST PUSH1 0x0 DUP1 PUSH1 0x40 DUP4 DUP6 SUB SLT ISZERO PUSH2 0x1C2F JUMPI PUSH1 0x0 DUP1 REVERT JUMPDEST POP POP DUP1 MLOAD PUSH1 0x20 SWAP1 SWAP2 ADD MLOAD SWAP1 SWAP3 SWAP1 SWAP2 POP JUMP JUMPDEST PUSH1 0x20 DUP1 DUP3 MSTORE PUSH1 0x24 SWAP1 DUP3 ADD MSTORE PUSH32 0x4469616D6F6E64526F757465723A20494E53554646494349454E545F415F414D PUSH1 0x40 DUP3 ADD MSTORE PUSH4 0x13D55395 PUSH1 0xE2 SHL PUSH1 0x60 DUP3 ADD MSTORE PUSH1 0x80 ADD SWAP1 JUMP JUMPDEST PUSH1 0x20 DUP1 DUP3 MSTORE PUSH1 0x24 SWAP1 DUP3 ADD MSTORE PUSH32 0x4469616D6F6E64526F757465723A20494E53554646494349454E545F425F414D PUSH1 0x40 DUP3 ADD MSTORE PUSH4 0x13D55395 PUSH1 0xE2 SHL PUSH1 0x60 DUP3 ADD MSTORE PUSH1 0x80 ADD SWAP1 JUMP JUMPDEST PUSH1 0x0 PUSH1 0x20 DUP3 DUP5 SUB SLT ISZERO PUSH2 0x1CDA JUMPI PUSH1 0x0 DUP1 REVERT JUMPDEST POP MLOAD SWAP2 SWAP1 POP JUMP JUMPDEST DUP1 DUP3 ADD DUP1 DUP3 GT ISZERO PUSH2 0xAA7 JUMPI PUSH2 0xAA7 PUSH2 0x1B1C JUMP JUMPDEST PUSH1 0x0 PUSH1 0x1 DUP3 ADD PUSH2 0x1D06 JUMPI PUSH2 0x1D06 PUSH2 0x1B1C JUMP JUMPDEST POP PUSH1 0x1 ADD SWAP1 JUMP JUMPDEST DUP1 MLOAD PUSH1 0x1 PUSH1 0x1 PUSH1 0x70 SHL SUB DUP2 AND DUP2 EQ PUSH2 0x17E9 JUMPI PUSH1 0x0 DUP1 REVERT JUMPDEST PUSH1 0x0 DUP1 PUSH1 0x0 PUSH1 0x60 DUP5 DUP7 SUB SLT ISZERO PUSH2 0x1D39 JUMPI PUSH1 0x0 DUP1 REVERT JUMPDEST PUSH2 0x1D42 DUP5 PUSH2 0x1D0D JUMP JUMPDEST SWAP3 POP PUSH2 0x1D50 PUSH1 0x20 DUP6 ADD PUSH2 0x1D0D JUMP JUMPDEST SWAP2 POP PUSH1 0x40 DUP5 ADD MLOAD PUSH4 0xFFFFFFFF DUP2 AND DUP2 EQ PUSH2 0x1D69 JUMPI PUSH1 0x0 DUP1 REVERT JUMPDEST DUP1 SWAP2 POP POP SWAP3 POP SWAP3 POP SWAP3 JUMP JUMPDEST DUP1 DUP3 MUL DUP2 ISZERO DUP3 DUP3 DIV DUP5 EQ OR PUSH2 0xAA7 JUMPI PUSH2 0xAA7 PUSH2 0x1B1C JUMP JUMPDEST PUSH1 0x0 JUMPDEST DUP4 DUP2 LT ISZERO PUSH2 0x1DA6 JUMPI DUP2 DUP2 ADD MLOAD DUP4 DUP3 ADD MSTORE PUSH1 0x20 ADD PUSH2 0x1D8E JUMP JUMPDEST POP POP PUSH1 0x0 SWAP2 ADD MSTORE JUMP JUMPDEST PUSH1 0x0 DUP3 MLOAD PUSH2 0x1DC1 DUP2 DUP5 PUSH1 0x20 DUP8 ADD PUSH2 0x1D8B JUMP JUMPDEST SWAP2 SWAP1 SWAP2 ADD SWAP3 SWAP2 POP POP JUMP JUMPDEST DUP5 DUP2 MSTORE DUP4 PUSH1 0x20 DUP3 ADD MSTORE PUSH1 0x1 DUP1 PUSH1 0xA0 SHL SUB DUP4 AND PUSH1 0x40 DUP3 ADD MSTORE PUSH1 0x80 PUSH1 0x60 DUP3 ADD MSTORE PUSH1 0x0 DUP3 MLOAD DUP1 PUSH1 0x80 DUP5 ADD MSTORE PUSH2 0x1E04 DUP2 PUSH1 0xA0 DUP6 ADD PUSH1 0x20 DUP8 ADD PUSH2 0x1D8B JUMP JUMPDEST PUSH1 0x1F ADD PUSH1 0x1F NOT AND SWAP2 SWAP1 SWAP2 ADD PUSH1 0xA0 ADD SWAP6 SWAP5 POP POP POP POP POP JUMP JUMPDEST PUSH4 0x4E487B71 PUSH1 0xE0 SHL PUSH1 0x0 MSTORE PUSH1 0x1 PUSH1 0x4 MSTORE PUSH1 0x24 PUSH1 0x0 REVERT INVALID LOG2 PUSH5 0x6970667358 0x22 SLT KECCAK256 0xAC 0xD0 0xF 0xC7 SWAP1 0xAD 0xBA GAS 0xCE 0xC5 COINBASE 0x1F 0xB6 PUSH17 0x6E394BCDC1F1A337359EEEF5CC93220924 0x4E PUSH5 0x736F6C6343 STOP ADDMOD GT STOP CALLER "},"methodIdentifiers":{"WETH()":"ad5c4648","addLiquidity(address,address,uint256,uint256,uint256,uint256,address)":"ca3d6539","factory()":"c45a0155","getAmountIn(uint256,uint256,uint256)":"85f8c259","getAmountOut(uint256,uint256,uint256)":"054d50d4","getAmountsIn(uint256,address[])":"1f00ca74","getAmountsOut(uint256,address[])":"d06ca61f","getReserves(address,address)":"d52bb6f4","owner()":"8da5cb5b","pairFor(address,address)":"96ed28f9","quote(uint256,uint256,uint256)":"ad615dec","removeLiquidity(address,address,uint256,uint256,uint256,address)":"c0e3ee6b","renounceOwnership()":"715018a6","swapExactTokensForTokens(uint256,uint256,address[],address)":"472b43f3","swapTokensForExactTokens(uint256,uint256,address[],address)":"42712a67","transferOwnership(address)":"f2fde38b"}}}}}