{
  "_format": "hh-sol-artifact-1",
  "contractName": "DiamondRouter",
  "sourceName": "contracts/DiamondRouter.sol",
  "abi": [
    {
      "inputs": [
        {
          "internalType": "address",
          "name": "_factory",
          "type": "address"
        },
        {
          "internalType": "address",
          "name": "_WETH",
          "type": "address"
        }
      ],
      "stateMutability": "nonpayable",
      "type": "constructor"
    },
    {
      "anonymous": false,
      "inputs": [
        {
          "indexed": true,
          "internalType": "address",
          "name": "provider",
          "type": "address"
        },
        {
          "indexed": true,
          "internalType": "address",
          "name": "tokenA",
          "type": "address"
        },
        {
          "indexed": true,
          "internalType": "address",
          "name": "tokenB",
          "type": "address"
        },
        {
          "indexed": false,
          "internalType": "uint256",
          "name": "amountA",
          "type": "uint256"
        },
        {
          "indexed": false,
          "internalType": "uint256",
          "name": "amountB",
          "type": "uint256"
        },
        {
          "indexed": false,
          "internalType": "uint256",
          "name": "liquidity",
          "type": "uint256"
        }
      ],
      "name": "LiquidityAdded",
      "type": "event"
    },
    {
      "anonymous": false,
      "inputs": [
        {
          "indexed": true,
          "internalType": "address",
          "name": "provider",
          "type": "address"
        },
        {
          "indexed": true,
          "internalType": "address",
          "name": "tokenA",
          "type": "address"
        },
        {
          "indexed": true,
          "internalType": "address",
          "name": "tokenB",
          "type": "address"
        },
        {
          "indexed": false,
          "internalType": "uint256",
          "name": "amountA",
          "type": "uint256"
        },
        {
          "indexed": false,
          "internalType": "uint256",
          "name": "amountB",
          "type": "uint256"
        },
        {
          "indexed": false,
          "internalType": "uint256",
          "name": "liquidity",
          "type": "uint256"
        }
      ],
      "name": "LiquidityRemoved",
      "type": "event"
    },
    {
      "anonymous": false,
      "inputs": [
        {
          "indexed": true,
          "internalType": "address",
          "name": "previousOwner",
          "type": "address"
        },
        {
          "indexed": true,
          "internalType": "address",
          "name": "newOwner",
          "type": "address"
        }
      ],
      "name": "OwnershipTransferred",
      "type": "event"
    },
    {
      "anonymous": false,
      "inputs": [
        {
          "indexed": true,
          "internalType": "address",
          "name": "sender",
          "type": "address"
        },
        {
          "indexed": false,
          "internalType": "uint256",
          "name": "amountIn",
          "type": "uint256"
        },
        {
          "indexed": false,
          "internalType": "uint256",
          "name": "amountOut",
          "type": "uint256"
        },
        {
          "indexed": true,
          "internalType": "address",
          "name": "tokenIn",
          "type": "address"
        },
        {
          "indexed": true,
          "internalType": "address",
          "name": "tokenOut",
          "type": "address"
        }
      ],
      "name": "Swap",
      "type": "event"
    },
    {
      "inputs": [],
      "name": "WETH",
      "outputs": [
        {
          "internalType": "address",
          "name": "",
          "type": "address"
        }
      ],
      "stateMutability": "view",
      "type": "function"
    },
    {
      "inputs": [
        {
          "internalType": "address",
          "name": "tokenA",
          "type": "address"
        },
        {
          "internalType": "address",
          "name": "tokenB",
          "type": "address"
        },
        {
          "internalType": "uint256",
          "name": "amountADesired",
          "type": "uint256"
        },
        {
          "internalType": "uint256",
          "name": "amountBDesired",
          "type": "uint256"
        },
        {
          "internalType": "uint256",
          "name": "amountAMin",
          "type": "uint256"
        },
        {
          "internalType": "uint256",
          "name": "amountBMin",
          "type": "uint256"
        },
        {
          "internalType": "address",
          "name": "to",
          "type": "address"
        }
      ],
      "name": "addLiquidity",
      "outputs": [
        {
          "internalType": "uint256",
          "name": "amountA",
          "type": "uint256"
        },
        {
          "internalType": "uint256",
          "name": "amountB",
          "type": "uint256"
        },
        {
          "internalType": "uint256",
          "name": "liquidity",
          "type": "uint256"
        }
      ],
      "stateMutability": "nonpayable",
      "type": "function"
    },
    {
      "inputs": [],
      "name": "factory",
      "outputs": [
        {
          "internalType": "address",
          "name": "",
          "type": "address"
        }
      ],
      "stateMutability": "view",
      "type": "function"
    },
    {
      "inputs": [
        {
          "internalType": "uint256",
          "name": "amountOut",
          "type": "uint256"
        },
        {
          "internalType": "uint256",
          "name": "reserveIn",
          "type": "uint256"
        },
        {
          "internalType": "uint256",
          "name": "reserveOut",
          "type": "uint256"
        }
      ],
      "name": "getAmountIn",
      "outputs": [
        {
          "internalType": "uint256",
          "name": "amountIn",
          "type": "uint256"
        }
      ],
      "stateMutability": "pure",
      "type": "function"
    },
    {
      "inputs": [
        {
          "internalType": "uint256",
          "name": "amountIn",
          "type": "uint256"
        },
        {
          "internalType": "uint256",
          "name": "reserveIn",
          "type": "uint256"
        },
        {
          "internalType": "uint256",
          "name": "reserveOut",
          "type": "uint256"
        }
      ],
      "name": "getAmountOut",
      "outputs": [
        {
          "internalType": "uint256",
          "name": "amountOut",
          "type": "uint256"
        }
      ],
      "stateMutability": "pure",
      "type": "function"
    },
    {
      "inputs": [
        {
          "internalType": "uint256",
          "name": "amountOut",
          "type": "uint256"
        },
        {
          "internalType": "address[]",
          "name": "path",
          "type": "address[]"
        }
      ],
      "name": "getAmountsIn",
      "outputs": [
        {
          "internalType": "uint256[]",
          "name": "amounts",
          "type": "uint256[]"
        }
      ],
      "stateMutability": "view",
      "type": "function"
    },
    {
      "inputs": [
        {
          "internalType": "uint256",
          "name": "amountIn",
          "type": "uint256"
        },
        {
          "internalType": "address[]",
          "name": "path",
          "type": "address[]"
        }
      ],
      "name": "getAmountsOut",
      "outputs": [
        {
          "internalType": "uint256[]",
          "name": "amounts",
          "type": "uint256[]"
        }
      ],
      "stateMutability": "view",
      "type": "function"
    },
    {
      "inputs": [
        {
          "internalType": "address",
          "name": "tokenA",
          "type": "address"
        },
        {
          "internalType": "address",
          "name": "tokenB",
          "type": "address"
        }
      ],
      "name": "getReserves",
      "outputs": [
        {
          "internalType": "uint256",
          "name": "reserveA",
          "type": "uint256"
        },
        {
          "internalType": "uint256",
          "name": "reserveB",
          "type": "uint256"
        }
      ],
      "stateMutability": "view",
      "type": "function"
    },
    {
      "inputs": [],
      "name": "owner",
      "outputs": [
        {
          "internalType": "address",
          "name": "",
          "type": "address"
        }
      ],
      "stateMutability": "view",
      "type": "function"
    },
    {
      "inputs": [
        {
          "internalType": "address",
          "name": "tokenA",
          "type": "address"
        },
        {
          "internalType": "address",
          "name": "tokenB",
          "type": "address"
        }
      ],
      "name": "pairFor",
      "outputs": [
        {
          "internalType": "address",
          "name": "pair",
          "type": "address"
        }
      ],
      "stateMutability": "view",
      "type": "function"
    },
    {
      "inputs": [
        {
          "internalType": "uint256",
          "name": "amountA",
          "type": "uint256"
        },
        {
          "internalType": "uint256",
          "name": "reserveA",
          "type": "uint256"
        },
        {
          "internalType": "uint256",
          "name": "reserveB",
          "type": "uint256"
        }
      ],
      "name": "quote",
      "outputs": [
        {
          "internalType": "uint256",
          "name": "amountB",
          "type": "uint256"
        }
      ],
      "stateMutability": "pure",
      "type": "function"
    },
    {
      "inputs": [
        {
          "internalType": "address",
          "name": "tokenA",
          "type": "address"
        },
        {
          "internalType": "address",
          "name": "tokenB",
          "type": "address"
        },
        {
          "internalType": "uint256",
          "name": "liquidity",
          "type": "uint256"
        },
        {
          "internalType": "uint256",
          "name": "amountAMin",
          "type": "uint256"
        },
        {
          "internalType": "uint256",
          "name": "amountBMin",
          "type": "uint256"
        },
        {
          "internalType": "address",
          "name": "to",
          "type": "address"
        }
      ],
      "name": "removeLiquidity",
      "outputs": [
        {
          "internalType": "uint256",
          "name": "amountA",
          "type": "uint256"
        },
        {
          "internalType": "uint256",
          "name": "amountB",
          "type": "uint256"
        }
      ],
      "stateMutability": "nonpayable",
      "type": "function"
    },
    {
      "inputs": [],
      "name": "renounceOwnership",
      "outputs": [],
      "stateMutability": "nonpayable",
      "type": "function"
    },
    {
      "inputs": [
        {
          "internalType": "uint256",
          "name": "amountIn",
          "type": "uint256"
        },
        {
          "internalType": "uint256",
          "name": "amountOutMin",
          "type": "uint256"
        },
        {
          "internalType": "address[]",
          "name": "path",
          "type": "address[]"
        },
        {
          "internalType": "address",
          "name": "to",
          "type": "address"
        }
      ],
      "name": "swapExactTokensForTokens",
      "outputs": [
        {
          "internalType": "uint256[]",
          "name": "amounts",
          "type": "uint256[]"
        }
      ],
      "stateMutability": "nonpayable",
      "type": "function"
    },
    {
      "inputs": [
        {
          "internalType": "uint256",
          "name": "amountOut",
          "type": "uint256"
        },
        {
          "internalType": "uint256",
          "name": "amountInMax",
          "type": "uint256"
        },
        {
          "internalType": "address[]",
          "name": "path",
          "type": "address[]"
        },
        {
          "internalType": "address",
          "name": "to",
          "type": "address"
        }
      ],
      "name": "swapTokensForExactTokens",
      "outputs": [
        {
          "internalType": "uint256[]",
          "name": "amounts",
          "type": "uint256[]"
        }
      ],
      "stateMutability": "nonpayable",
      "type": "function"
    },
    {
      "inputs": [
        {
          "internalType": "address",
          "name": "newOwner",
          "type": "address"
        }
      ],
      "name": "transferOwnership",
      "outputs": [],
      "stateMutability": "nonpayable",
      "type": "function"
    }
  ],
  "bytecode": "0x60c06040523480156200001157600080fd5b5060405162001f9b38038062001f9b8339810160408190526200003491620000c8565b6200003f336200005b565b600180556001600160a01b039182166080521660a05262000100565b600080546001600160a01b038381166001600160a01b0319831681178455604051919092169283917f8be0079c531659141344cd1fd0a4f28419497f9722a3daafe3b4186f6b6457e09190a35050565b80516001600160a01b0381168114620000c357600080fd5b919050565b60008060408385031215620000dc57600080fd5b620000e783620000ab565b9150620000f760208401620000ab565b90509250929050565b60805160a051611e676200013460003960006101cb01526000818161022d01528181610a370152610d4c0152611e676000f3fe608060405234801561001057600080fd5b50600436106101005760003560e01c8063ad5c464811610097578063ca3d653911610066578063ca3d65391461024f578063d06ca61f1461027d578063d52bb6f414610290578063f2fde38b146102a357600080fd5b8063ad5c4648146101c6578063ad615dec146101ed578063c0e3ee6b14610200578063c45a01551461022857600080fd5b8063715018a6116100d3578063715018a61461017157806385f8c2591461017b5780638da5cb5b1461018e57806396ed28f9146101b357600080fd5b8063054d50d4146101055780631f00ca741461012b57806342712a671461014b578063472b43f31461015e575b600080fd5b610118610113366004611787565b6102b6565b6040519081526020015b60405180910390f35b61013e6101393660046117ee565b610396565b60405161012291906118bf565b61013e610159366004611903565b61052a565b61013e61016c366004611903565b6107ac565b610179610965565b005b610118610189366004611787565b610979565b6000546001600160a01b03165b6040516001600160a01b039091168152602001610122565b61019b6101c13660046119a1565b610a0d565b61019b7f000000000000000000000000000000000000000000000000000000000000000081565b6101186101fb366004611787565b610aad565b61021361020e3660046119da565b610b52565b60408051928352602083019190915201610122565b61019b7f000000000000000000000000000000000000000000000000000000000000000081565b61026261025d366004611a41565b610cfc565b60408051938452602084019290925290820152606001610122565b61013e61028b3660046117ee565b610ec0565b61021361029e3660046119a1565b611035565b6101796102b1366004611ab3565b611121565b600080841161031d5760405162461bcd60e51b815260206004820152602860248201527f4469616d6f6e64526f757465723a20494e53554646494349454e545f494e50556044820152671517d05353d5539560c21b60648201526084015b60405180910390fd5b60008311801561032d5750600082115b6103495760405162461bcd60e51b815260040161031490611ad7565b6000610357856103e561119a565b90506000610365828561119a565b9050600061037f83610379886103e861119a565b906111a6565b905061038b8183611b32565b979650505050505050565b60606002825110156103ea5760405162461bcd60e51b815260206004820152601b60248201527f4469616d6f6e64526f757465723a20494e56414c49445f5041544800000000006044820152606401610314565b815167ffffffffffffffff811115610404576104046117b3565b60405190808252806020026020018201604052801561042d578160200160208202803683370190505b5090508281600183516104409190611b54565b8151811061045057610450611b67565b60200260200101818152505060006001835161046c9190611b54565b90505b8015610523576000806104be85610487600186611b54565b8151811061049757610497611b67565b60200260200101518685815181106104b1576104b1611b67565b6020026020010151611035565b915091506104e68484815181106104d7576104d7611b67565b60200260200101518383610979565b846104f2600186611b54565b8151811061050257610502611b67565b6020026020010181815250505050808061051b90611b7d565b91505061046f565b5092915050565b60606105346111b2565b6105718685858080602002602001604051908101604052809392919081815260200183836020028082843760009201919091525061039692505050565b9050848160008151811061058757610587611b67565b602002602001015111156105eb5760405162461bcd60e51b815260206004820152602560248201527f4469616d6f6e64526f757465723a204558434553534956455f494e5055545f416044820152641353d5539560da1b6064820152608401610314565b61068a8484600081811061060157610601611b67565b90506020020160208101906106169190611ab3565b3361066a8787600081811061062d5761062d611b67565b90506020020160208101906106429190611ab3565b8888600181811061065557610655611b67565b90506020020160208101906101c19190611ab3565b8460008151811061067d5761067d611b67565b602002602001015161120b565b6106c98185858080602002602001604051908101604052809392919081815260200183836020028082843760009201919091525087925061132f915050565b83836106d6600182611b54565b8181106106e5576106e5611b67565b90506020020160208101906106fa9190611ab3565b6001600160a01b03168484600081811061071657610716611b67565b905060200201602081019061072b9190611ab3565b6001600160a01b0316336001600160a01b03167f053d794b2310b8d186a24ae24a65ee066983a52a6efa6bd3df09a7601a3cb4f38460008151811061077257610772611b67565b60200260200101518a604051610792929190918252602082015260400190565b60405180910390a46107a360018055565b95945050505050565b60606107b66111b2565b6107f386858580806020026020016040519081016040528093929190818152602001838360200280828437600092019190915250610ec092505050565b90508481600183516108059190611b54565b8151811061081557610815611b67565b6020026020010151101561083b5760405162461bcd60e51b815260040161031490611b94565b6108518484600081811061060157610601611b67565b6108908185858080602002602001604051908101604052809392919081815260200183836020028082843760009201919091525087925061132f915050565b838361089d600182611b54565b8181106108ac576108ac611b67565b90506020020160208101906108c19190611ab3565b6001600160a01b0316848460008181106108dd576108dd611b67565b90506020020160208101906108f29190611ab3565b6001600160a01b0316336001600160a01b03167f053d794b2310b8d186a24ae24a65ee066983a52a6efa6bd3df09a7601a3cb4f38985600187516109369190611b54565b8151811061094657610946611b67565b6020026020010151604051610792929190918252602082015260400190565b61096d6114f5565b610977600061154f565b565b600080841161099a5760405162461bcd60e51b815260040161031490611b94565b6000831180156109aa5750600082115b6109c65760405162461bcd60e51b815260040161031490611ad7565b60006109de6103e86109d8868861119a565b9061119a565b905060006109f26103e56109d8868961159f565b9050610a0360016103798385611b32565b9695505050505050565b60405163e6a4390560e01b81526001600160a01b03838116600483015282811660248301526000917f00000000000000000000000000000000000000000000000000000000000000009091169063e6a4390590604401602060405180830381865afa158015610a80573d6000803e3d6000fd5b505050506040513d601f19601f82011682018060405250810190610aa49190611bdd565b90505b92915050565b6000808411610b095760405162461bcd60e51b815260206004820152602260248201527f4469616d6f6e64526f757465723a20494e53554646494349454e545f414d4f55604482015261139560f21b6064820152608401610314565b600083118015610b195750600082115b610b355760405162461bcd60e51b815260040161031490611ad7565b82610b40858461119a565b610b4a9190611b32565b949350505050565b600080610b5d6111b2565b6000610b698989610a0d565b6040516323b872dd60e01b81523360048201526001600160a01b03821660248201819052604482018a90529192506323b872dd906064016020604051808303816000875af1158015610bbf573d6000803e3d6000fd5b505050506040513d601f19601f82011682018060405250810190610be39190611bfa565b5060405163226bf2d160e21b81526001600160a01b0385811660048301528216906389afcb449060240160408051808303816000875af1158015610c2b573d6000803e3d6000fd5b505050506040513d601f19601f82011682018060405250810190610c4f9190611c1c565b909350915085831015610c745760405162461bcd60e51b815260040161031490611c40565b84821015610c945760405162461bcd60e51b815260040161031490611c84565b60408051848152602081018490529081018890526001600160a01b03808a1691908b169033907fd765e08eef31c0983ecca03ecd166297ac485ecd5dd69e291c848f0a020333c19060600160405180910390a450610cf160018055565b965096945050505050565b6000806000610d096111b2565b6000610d158b8b610a0d565b90506001600160a01b038116610dbc576040516364e329cb60e11b81526001600160a01b038c811660048301528b811660248301527f0000000000000000000000000000000000000000000000000000000000000000169063c9c65396906044016020604051808303816000875af1158015610d95573d6000803e3d6000fd5b505050506040513d601f19601f82011682018060405250810190610db99190611bdd565b90505b610dca8b8b8b8b8b8b6115ab565b9094509250610ddb8b33838761120b565b610de78a33838661120b565b6040516335313c2160e11b81526001600160a01b038681166004830152821690636a627842906024016020604051808303816000875af1158015610e2f573d6000803e3d6000fd5b505050506040513d601f19601f82011682018060405250810190610e539190611cc8565b60408051868152602081018690529081018290529092506001600160a01b03808c1691908d169033907f43c967b388d3a4ccad3f7ab80167852e322e5a3fde9893f530252281b2ae8b709060600160405180910390a450610eb360018055565b9750975097945050505050565b6060600282511015610f145760405162461bcd60e51b815260206004820152601b60248201527f4469616d6f6e64526f757465723a20494e56414c49445f5041544800000000006044820152606401610314565b815167ffffffffffffffff811115610f2e57610f2e6117b3565b604051908082528060200260200182016040528015610f57578160200160208202803683370190505b5090508281600081518110610f6e57610f6e611b67565b60200260200101818152505060005b60018351610f8b9190611b54565b81101561052357600080610fd0858481518110610faa57610faa611b67565b602002602001015186856001610fc09190611ce1565b815181106104b1576104b1611b67565b91509150610ff8848481518110610fe957610fe9611b67565b602002602001015183836102b6565b84611004856001611ce1565b8151811061101457611014611b67565b6020026020010181815250505050808061102d90611cf4565b915050610f7d565b6000806000611044858561169a565b50905060006110538686610a0d565b90506001600160a01b0381166110715760008093509350505061111a565b600080826001600160a01b0316630902f1ac6040518163ffffffff1660e01b8152600401606060405180830381865afa1580156110b2573d6000803e3d6000fd5b505050506040513d601f19601f820116820180604052508101906110d69190611d24565b506001600160701b031691506001600160701b03169150836001600160a01b0316886001600160a01b03161461110d578082611110565b81815b9096509450505050505b9250929050565b6111296114f5565b6001600160a01b03811661118e5760405162461bcd60e51b815260206004820152602660248201527f4f776e61626c653a206e6577206f776e657220697320746865207a65726f206160448201526564647265737360d01b6064820152608401610314565b6111978161154f565b50565b6000610aa48284611d74565b6000610aa48284611ce1565b6002600154036112045760405162461bcd60e51b815260206004820152601f60248201527f5265656e7472616e637947756172643a207265656e7472616e742063616c6c006044820152606401610314565b6002600155565b604080516001600160a01b0385811660248301528481166044830152606480830185905283518084039091018152608490920183526020820180516001600160e01b03166323b872dd60e01b179052915160009283929088169161126f9190611daf565b6000604051808303816000865af19150503d80600081146112ac576040519150601f19603f3d011682016040523d82523d6000602084013e6112b1565b606091505b50915091508180156112db5750805115806112db5750808060200190518101906112db9190611bfa565b6113275760405162461bcd60e51b815260206004820152601e60248201527f4469616d6f6e64526f757465723a205452414e534645525f4641494c454400006044820152606401610314565b505050505050565b60005b600183516113409190611b54565b8110156114ef5760008084838151811061135c5761135c611b67565b6020026020010151858460016113729190611ce1565b8151811061138257611382611b67565b602002602001015191509150600061139a838361169a565b5090506000876113ab866001611ce1565b815181106113bb576113bb611b67565b60200260200101519050600080836001600160a01b0316866001600160a01b0316146113e9578260006113ed565b6000835b91509150600060028a516114019190611b54565b881061140d578861143a565b61143a868b61141d8b6002611ce1565b8151811061142d5761142d611b67565b6020026020010151610a0d565b90506114468787610a0d565b6001600160a01b031663022c0d9f84848460006040519080825280601f01601f191660200182016040528015611483576020820181803683370190505b506040518563ffffffff1660e01b81526004016114a39493929190611dcb565b600060405180830381600087803b1580156114bd57600080fd5b505af11580156114d1573d6000803e3d6000fd5b505050505050505050505080806114e790611cf4565b915050611332565b50505050565b6000546001600160a01b031633146109775760405162461bcd60e51b815260206004820181905260248201527f4f776e61626c653a2063616c6c6572206973206e6f7420746865206f776e65726044820152606401610314565b600080546001600160a01b038381166001600160a01b0319831681178455604051919092169283917f8be0079c531659141344cd1fd0a4f28419497f9722a3daafe3b4186f6b6457e09190a35050565b6000610aa48284611b54565b60008060006115ba8989610a0d565b90506001600160a01b0381166115d65786869250925050610cf1565b6000806115e38b8b611035565b915091508160001480156115f5575080155b1561160857888894509450505050610cf1565b60006116158a8484610aad565b905088811161164c578681101561163e5760405162461bcd60e51b815260040161031490611c84565b8995509350610cf192505050565b60006116598a8486610aad565b90508a81111561166b5761166b611e1b565b8881101561168b5760405162461bcd60e51b815260040161031490611c40565b9550889450610cf19350505050565b600080826001600160a01b0316846001600160a01b0316036117095760405162461bcd60e51b815260206004820152602260248201527f4469616d6f6e64526f757465723a204944454e544943414c5f41444452455353604482015261455360f01b6064820152608401610314565b826001600160a01b0316846001600160a01b03161061172957828461172c565b83835b90925090506001600160a01b03821661111a5760405162461bcd60e51b815260206004820152601b60248201527f4469616d6f6e64526f757465723a205a45524f5f4144445245535300000000006044820152606401610314565b60008060006060848603121561179c57600080fd5b505081359360208301359350604090920135919050565b634e487b7160e01b600052604160045260246000fd5b6001600160a01b038116811461119757600080fd5b80356117e9816117c9565b919050565b6000806040838503121561180157600080fd5b8235915060208084013567ffffffffffffffff8082111561182157600080fd5b818601915086601f83011261183557600080fd5b813581811115611847576118476117b3565b8060051b604051601f19603f8301168101818110858211171561186c5761186c6117b3565b60405291825284820192508381018501918983111561188a57600080fd5b938501935b828510156118af576118a0856117de565b8452938501939285019261188f565b8096505050505050509250929050565b6020808252825182820181905260009190848201906040850190845b818110156118f7578351835292840192918401916001016118db565b50909695505050505050565b60008060008060006080868803121561191b57600080fd5b8535945060208601359350604086013567ffffffffffffffff8082111561194157600080fd5b818801915088601f83011261195557600080fd5b81358181111561196457600080fd5b8960208260051b850101111561197957600080fd5b6020830195508094505050506060860135611993816117c9565b809150509295509295909350565b600080604083850312156119b457600080fd5b82356119bf816117c9565b915060208301356119cf816117c9565b809150509250929050565b60008060008060008060c087890312156119f357600080fd5b86356119fe816117c9565b95506020870135611a0e816117c9565b945060408701359350606087013592506080870135915060a0870135611a33816117c9565b809150509295509295509295565b600080600080600080600060e0888a031215611a5c57600080fd5b8735611a67816117c9565b96506020880135611a77816117c9565b955060408801359450606088013593506080880135925060a0880135915060c0880135611aa3816117c9565b8091505092959891949750929550565b600060208284031215611ac557600080fd5b8135611ad0816117c9565b9392505050565b60208082526025908201527f4469616d6f6e64526f757465723a20494e53554646494349454e545f4c495155604082015264494449545960d81b606082015260800190565b634e487b7160e01b600052601160045260246000fd5b600082611b4f57634e487b7160e01b600052601260045260246000fd5b500490565b81810381811115610aa757610aa7611b1c565b634e487b7160e01b600052603260045260246000fd5b600081611b8c57611b8c611b1c565b506000190190565b60208082526029908201527f4469616d6f6e64526f757465723a20494e53554646494349454e545f4f555450604082015268155517d05353d5539560ba1b606082015260800190565b600060208284031215611bef57600080fd5b8151611ad0816117c9565b600060208284031215611c0c57600080fd5b81518015158114611ad057600080fd5b60008060408385031215611c2f57600080fd5b505080516020909101519092909150565b60208082526024908201527f4469616d6f6e64526f757465723a20494e53554646494349454e545f415f414d60408201526313d5539560e21b606082015260800190565b60208082526024908201527f4469616d6f6e64526f757465723a20494e53554646494349454e545f425f414d60408201526313d5539560e21b606082015260800190565b600060208284031215611cda57600080fd5b5051919050565b80820180821115610aa757610aa7611b1c565b600060018201611d0657611d06611b1c565b5060010190565b80516001600160701b03811681146117e957600080fd5b600080600060608486031215611d3957600080fd5b611d4284611d0d565b9250611d5060208501611d0d565b9150604084015163ffffffff81168114611d6957600080fd5b809150509250925092565b8082028115828204841417610aa757610aa7611b1c565b60005b83811015611da6578181015183820152602001611d8e565b50506000910152565b60008251611dc1818460208701611d8b565b9190910192915050565b84815283602082015260018060a01b03831660408201526080606082015260008251806080840152611e048160a0850160208701611d8b565b601f01601f19169190910160a00195945050505050565b634e487b7160e01b600052600160045260246000fdfea2646970667358221220acd00fc790adba5acec5411fb6706e394bcdc1f1a337359eeef5cc932209244e64736f6c63430008110033",
  "linkReferences": {},
  "deployedLinkReferences": {}
}