{
  "_format": "hh-sol-artifact-1",
  "contractName": "DiamondFactory",
  "sourceName": "contracts/DiamondFactory.sol",
  "abi": [
    {
      "anonymous": false,
      "inputs": [
        {
          "indexed": true,
          "internalType": "address",
          "name": "previousOwner",
          "type": "address"
        },
        {
          "indexed": true,
          "internalType": "address",
          "name": "newOwner",
          "type": "address"
        }
      ],
      "name": "OwnershipTransferred",
      "type": "event"
    },
    {
      "anonymous": false,
      "inputs": [
        {
          "indexed": true,
          "internalType": "address",
          "name": "token0",
          "type": "address"
        },
        {
          "indexed": true,
          "internalType": "address",
          "name": "token1",
          "type": "address"
        },
        {
          "indexed": false,
          "internalType": "address",
          "name": "pair",
          "type": "address"
        },
        {
          "indexed": false,
          "internalType": "uint256",
          "name": "",
          "type": "uint256"
        }
      ],
      "name": "PairCreated",
      "type": "event"
    },
    {
      "inputs": [
        {
          "internalType": "uint256",
          "name": "",
          "type": "uint256"
        }
      ],
      "name": "allPairs",
      "outputs": [
        {
          "internalType": "address",
          "name": "",
          "type": "address"
        }
      ],
      "stateMutability": "view",
      "type": "function"
    },
    {
      "inputs": [],
      "name": "allPairsLength",
      "outputs": [
        {
          "internalType": "uint256",
          "name": "",
          "type": "uint256"
        }
      ],
      "stateMutability": "view",
      "type": "function"
    },
    {
      "inputs": [
        {
          "internalType": "address",
          "name": "tokenA",
          "type": "address"
        },
        {
          "internalType": "address",
          "name": "tokenB",
          "type": "address"
        }
      ],
      "name": "createPair",
      "outputs": [
        {
          "internalType": "address",
          "name": "pair",
          "type": "address"
        }
      ],
      "stateMutability": "nonpayable",
      "type": "function"
    },
    {
      "inputs": [],
      "name": "feeTo",
      "outputs": [
        {
          "internalType": "address",
          "name": "",
          "type": "address"
        }
      ],
      "stateMutability": "view",
      "type": "function"
    },
    {
      "inputs": [
        {
          "internalType": "address",
          "name": "",
          "type": "address"
        },
        {
          "internalType": "address",
          "name": "",
          "type": "address"
        }
      ],
      "name": "getPair",
      "outputs": [
        {
          "internalType": "address",
          "name": "",
          "type": "address"
        }
      ],
      "stateMutability": "view",
      "type": "function"
    },
    {
      "inputs": [],
      "name": "owner",
      "outputs": [
        {
          "internalType": "address",
          "name": "",
          "type": "address"
        }
      ],
      "stateMutability": "view",
      "type": "function"
    },
    {
      "inputs": [],
      "name": "protocolFeeDenominator",
      "outputs": [
        {
          "internalType": "uint256",
          "name": "",
          "type": "uint256"
        }
      ],
      "stateMutability": "view",
      "type": "function"
    },
    {
      "inputs": [],
      "name": "renounceOwnership",
      "outputs": [],
      "stateMutability": "nonpayable",
      "type": "function"
    },
    {
      "inputs": [
        {
          "internalType": "address",
          "name": "_feeTo",
          "type": "address"
        }
      ],
      "name": "setFeeTo",
      "outputs": [],
      "stateMutability": "nonpayable",
      "type": "function"
    },
    {
      "inputs": [
        {
          "internalType": "uint256",
          "name": "_protocolFeeDenominator",
          "type": "uint256"
        }
      ],
      "name": "setProtocolFeeDenominator",
      "outputs": [],
      "stateMutability": "nonpayable",
      "type": "function"
    },
    {
      "inputs": [
        {
          "internalType": "address",
          "name": "newOwner",
          "type": "address"
        }
      ],
      "name": "transferOwnership",
      "outputs": [],
      "stateMutability": "nonpayable",
      "type": "function"
    }
  ],
  "bytecode": "0x6080604052600560045534801561001557600080fd5b5061001f33610024565b610074565b600080546001600160a01b038381166001600160a01b0319831681178455604051919092169283917f8be0079c531659141344cd1fd0a4f28419497f9722a3daafe3b4186f6b6457e09190a35050565b612b6c806100836000396000f3fe608060405234801561001057600080fd5b50600436106100a95760003560e01c806375adcf2c1161007157806375adcf2c1461011a5780638da5cb5b1461012d578063c9c653961461013e578063e6a4390514610151578063f2fde38b14610185578063f46901ed1461019857600080fd5b8063017e7e58146100ae5780631e3dd18b146100de5780632ff7042a146100f1578063574f2ba314610108578063715018a614610110575b600080fd5b6003546100c1906001600160a01b031681565b6040516001600160a01b0390911681526020015b60405180910390f35b6100c16100ec3660046106c1565b6101ab565b6100fa60045481565b6040519081526020016100d5565b6002546100fa565b6101186101d5565b005b6101186101283660046106c1565b6101e9565b6000546001600160a01b03166100c1565b6100c161014c3660046106f6565b610257565b6100c161015f3660046106f6565b60016020908152600092835260408084209091529082529020546001600160a01b031681565b610118610193366004610729565b610567565b6101186101a6366004610729565b6105e0565b600281815481106101bb57600080fd5b6000918252602090912001546001600160a01b0316905081565b6101dd61060a565b6101e76000610664565b565b6101f161060a565b600081116102525760405162461bcd60e51b815260206004820152602360248201527f4469616d6f6e64466163746f72793a20494e56414c49445f44454e4f4d494e416044820152622a27a960e91b60648201526084015b60405180910390fd5b600455565b6000816001600160a01b0316836001600160a01b0316036102c65760405162461bcd60e51b815260206004820152602360248201527f4469616d6f6e64466163746f72793a204944454e544943414c5f41444452455360448201526253455360e81b6064820152608401610249565b600080836001600160a01b0316856001600160a01b0316106102e95783856102ec565b84845b90925090506001600160a01b0382166103475760405162461bcd60e51b815260206004820152601c60248201527f4469616d6f6e64466163746f72793a205a45524f5f41444452455353000000006044820152606401610249565b6001600160a01b038281166000908152600160209081526040808320858516845290915290205416156103bc5760405162461bcd60e51b815260206004820152601b60248201527f4469616d6f6e64466163746f72793a20504149525f45584953545300000000006044820152606401610249565b6000604051806020016103ce906106b4565b601f1982820381018352601f9091011660408190526bffffffffffffffffffffffff19606086811b8216602084015285901b166034820152909150600090604801604051602081830303815290604052805190602001209050808251602084016000f560405163485cc95560e01b81526001600160a01b03868116600483015285811660248301529196509086169063485cc95590604401600060405180830381600087803b15801561048057600080fd5b505af1158015610494573d6000803e3d6000fd5b505050506001600160a01b0384811660008181526001602081815260408084208987168086529083528185208054978d166001600160a01b0319988916811790915584845282862087875284528286208054891682179055600280549586018155958690527f405787fa12a823e0f2b7631cc41b3ba8828b3321ca811111fa75cd3aa3bb5ace9094018054909716841790965592548351928352908201527f0d3648bd0f6ba80134a33ba9275ac585d9d315f0ad8355cddefde31afa28d0e9910160405180910390a35050505092915050565b61056f61060a565b6001600160a01b0381166105d45760405162461bcd60e51b815260206004820152602660248201527f4f776e61626c653a206e6577206f776e657220697320746865207a65726f206160448201526564647265737360d01b6064820152608401610249565b6105dd81610664565b50565b6105e861060a565b600380546001600160a01b0319166001600160a01b0392909216919091179055565b6000546001600160a01b031633146101e75760405162461bcd60e51b815260206004820181905260248201527f4f776e61626c653a2063616c6c6572206973206e6f7420746865206f776e65726044820152606401610249565b600080546001600160a01b038381166001600160a01b0319831681178455604051919092169283917f8be0079c531659141344cd1fd0a4f28419497f9722a3daafe3b4186f6b6457e09190a35050565b6123eb8061074c83390190565b6000602082840312156106d357600080fd5b5035919050565b80356001600160a01b03811681146106f157600080fd5b919050565b6000806040838503121561070957600080fd5b610712836106da565b9150610720602084016106da565b90509250929050565b60006020828403121561073b57600080fd5b610744826106da565b939250505056fe60806040523480156200001157600080fd5b50604051806040016040528060118152602001702234b0b6b7b7323d102628102a37b5b2b760791b815250604051806040016040528060078152602001660444d445a2d4c560cc1b81525081600390816200006d919062000141565b5060046200007c828262000141565b5050600160055550600680546001600160a01b031916331790556200020d565b634e487b7160e01b600052604160045260246000fd5b600181811c90821680620000c757607f821691505b602082108103620000e857634e487b7160e01b600052602260045260246000fd5b50919050565b601f8211156200013c57600081815260208120601f850160051c81016020861015620001175750805b601f850160051c820191505b81811015620001385782815560010162000123565b5050505b505050565b81516001600160401b038111156200015d576200015d6200009c565b62000175816200016e8454620000b2565b84620000ee565b602080601f831160018114620001ad5760008415620001945750858301515b600019600386901b1c1916600185901b17855562000138565b600085815260208120601f198616915b82811015620001de57888601518255948401946001909101908401620001bd565b5085821015620001fd5787850151600019600388901b60f8161c191681555b5050505050600190811b01905550565b6121ce806200021d6000396000f3fe608060405234801561001057600080fd5b50600436106101735760003560e01c80636a627842116100de578063a9059cbb11610097578063c45a015511610071578063c45a015514610350578063d21220a714610363578063dd62ed3e14610376578063fff6cae91461038957600080fd5b8063a9059cbb14610321578063ba9a7a5614610334578063bc25cf771461033d57600080fd5b80636a6278421461029957806370a08231146102ac5780637464fc3d146102d557806389afcb44146102de57806395d89b4114610306578063a457c2d71461030e57600080fd5b806323b872dd1161013057806323b872dd1461023f578063313ce567146102525780633950935114610261578063485cc955146102745780635909c0d5146102875780635a3d54931461029057600080fd5b8063022c0d9f1461017857806306fdde031461018d5780630902f1ac146101ab578063095ea7b3146101df5780630dfe16811461020257806318160ddd1461022d575b600080fd5b61018b610186366004611e3f565b610391565b005b61019561088b565b6040516101a29190611ef9565b60405180910390f35b6101b361091d565b604080516001600160701b03948516815293909216602084015263ffffffff16908201526060016101a2565b6101f26101ed366004611f2c565b610947565b60405190151581526020016101a2565b600754610215906001600160a01b031681565b6040516001600160a01b0390911681526020016101a2565b6002545b6040519081526020016101a2565b6101f261024d366004611f58565b610961565b604051601281526020016101a2565b6101f261026f366004611f2c565b610985565b61018b610282366004611f99565b6109a7565b610231600a5481565b610231600b5481565b6102316102a7366004611fd2565b610a28565b6102316102ba366004611fd2565b6001600160a01b031660009081526020819052604090205490565b610231600c5481565b6102f16102ec366004611fd2565b610ce0565b604080519283526020830191909152016101a2565b610195611034565b6101f261031c366004611f2c565b611043565b6101f261032f366004611f2c565b6110be565b6102316103e881565b61018b61034b366004611fd2565b6110cc565b600654610215906001600160a01b031681565b600854610215906001600160a01b031681565b610231610384366004611f99565b6111c6565b61018b6111f1565b6103996112fb565b60008511806103a85750600084115b6104095760405162461bcd60e51b815260206004820152602760248201527f4469616d6f6e64506169723a20494e53554646494349454e545f4f555450555460448201526617d05353d5539560ca1b60648201526084015b60405180910390fd5b60008061041461091d565b5091509150816001600160701b0316871080156104395750806001600160701b031686105b6104915760405162461bcd60e51b815260206004820152602360248201527f4469616d6f6e64506169723a20494e53554646494349454e545f4c495155494460448201526249545960e81b6064820152608401610400565b60075460085460009182916001600160a01b039182169190811690891682148015906104cf5750806001600160a01b0316896001600160a01b031614155b61051b5760405162461bcd60e51b815260206004820152601760248201527f4469616d6f6e64506169723a20494e56414c49445f544f0000000000000000006044820152606401610400565b8a1561052c5761052c828a8d611354565b891561053d5761053d818a8c611354565b86156105aa57604051637d80065360e11b81526001600160a01b038a169063fb000ca6906105779033908f908f908e908e90600401611fef565b600060405180830381600087803b15801561059157600080fd5b505af11580156105a5573d6000803e3d6000fd5b505050505b6040516370a0823160e01b81523060048201526001600160a01b038316906370a0823190602401602060405180830381865afa1580156105ee573d6000803e3d6000fd5b505050506040513d601f19601f82011682018060405250810190610612919061203b565b6040516370a0823160e01b81523060048201529094506001600160a01b038216906370a0823190602401602060405180830381865afa158015610659573d6000803e3d6000fd5b505050506040513d601f19601f8201168201806040525081019061067d919061203b565b92505050600089856001600160701b0316610698919061206a565b83116106a55760006106c2565b6106b88a6001600160701b03871661206a565b6106c2908461206a565b905060006106d98a6001600160701b03871661206a565b83116106e6576000610703565b6106f98a6001600160701b03871661206a565b610703908461206a565b905060008211806107145750600081115b61076f5760405162461bcd60e51b815260206004820152602660248201527f4469616d6f6e64506169723a20494e53554646494349454e545f494e5055545f604482015265105353d5539560d21b6064820152608401610400565b600061079161077f846003611468565b61078b876103e8611468565b9061147b565b905060006107a361077f846003611468565b90506107c8620f42406107c26001600160701b038b8116908b16611468565b90611468565b6107d28383611468565b10156108115760405162461bcd60e51b815260206004820152600e60248201526d4469616d6f6e64506169723a204b60901b6044820152606401610400565b505061081f84848888611487565b60408051838152602081018390529081018c9052606081018b90526001600160a01b038a169033907fd78ad95fa46c994b6551d0da85fc275fe613ce37657fb8d5e3d130840159d8229060800160405180910390a35050505050506108846001600555565b5050505050565b60606003805461089a9061207d565b80601f01602080910402602001604051908101604052809291908181526020018280546108c69061207d565b80156109135780601f106108e857610100808354040283529160200191610913565b820191906000526020600020905b8154815290600101906020018083116108f657829003601f168201915b5050505050905090565b6009546001600160701b0380821692600160701b830490911691600160e01b900463ffffffff1690565b6000336109558185856116bb565b60019150505b92915050565b60003361096f8582856117e0565b61097a85858561185a565b506001949350505050565b60003361095581858561099883836111c6565b6109a291906120b1565b6116bb565b6006546001600160a01b031633146109fa5760405162461bcd60e51b81526020600482015260166024820152752234b0b6b7b7322830b4b91d102327a92124a22222a760511b6044820152606401610400565b600780546001600160a01b039384166001600160a01b03199182161790915560088054929093169116179055565b6000610a326112fb565b600080610a3d61091d565b506007546040516370a0823160e01b81523060048201529294509092506000916001600160a01b03909116906370a0823190602401602060405180830381865afa158015610a8f573d6000803e3d6000fd5b505050506040513d601f19601f82011682018060405250810190610ab3919061203b565b6008546040516370a0823160e01b81523060048201529192506000916001600160a01b03909116906370a0823190602401602060405180830381865afa158015610b01573d6000803e3d6000fd5b505050506040513d601f19601f82011682018060405250810190610b25919061203b565b90506000610b3c836001600160701b03871661147b565b90506000610b53836001600160701b03871661147b565b90506000610b6187876119fe565b90506000610b6e60025490565b905080600003610ba457610b906103e861078b610b8b8787611468565b611bb0565b9850610b9f60006103e8611c1f565b610beb565b610be86001600160701b038916610bbb8684611468565b610bc591906120da565b6001600160701b038916610bd98685611468565b610be391906120da565b611cde565b98505b60008911610c4e5760405162461bcd60e51b815260206004820152602a60248201527f4469616d6f6e64506169723a20494e53554646494349454e545f4c495155494460448201526912551657d3525395115160b21b6064820152608401610400565b610c588a8a611c1f565b610c6486868a8a611487565b8115610c8e57600954610c8a906001600160701b0380821691600160701b900416611468565b600c555b604080518581526020810185905233917f4c209b5fc8ad50758f13e2e1088ba56a560dff690a1c6fef26394f4c03821c4f910160405180910390a25050505050505050610cdb6001600555565b919050565b600080610ceb6112fb565b600080610cf661091d565b506007546008546040516370a0823160e01b81523060048201529395509193506001600160a01b039081169291169060009083906370a0823190602401602060405180830381865afa158015610d50573d6000803e3d6000fd5b505050506040513d601f19601f82011682018060405250810190610d74919061203b565b6040516370a0823160e01b81523060048201529091506000906001600160a01b038416906370a0823190602401602060405180830381865afa158015610dbe573d6000803e3d6000fd5b505050506040513d601f19601f82011682018060405250810190610de2919061203b565b30600090815260208190526040812054919250610dff88886119fe565b90506000610e0c60025490565b905080610e198487611468565b610e2391906120da565b9a5080610e308486611468565b610e3a91906120da565b995060008b118015610e4c575060008a115b610eab5760405162461bcd60e51b815260206004820152602a60248201527f4469616d6f6e64506169723a20494e53554646494349454e545f4c495155494460448201526912551657d0955493915160b21b6064820152608401610400565b610eb53084611cf4565b610ec0878d8d611354565b610ecb868d8c611354565b6040516370a0823160e01b81523060048201526001600160a01b038816906370a0823190602401602060405180830381865afa158015610f0f573d6000803e3d6000fd5b505050506040513d601f19601f82011682018060405250810190610f33919061203b565b6040516370a0823160e01b81523060048201529095506001600160a01b038716906370a0823190602401602060405180830381865afa158015610f7a573d6000803e3d6000fd5b505050506040513d601f19601f82011682018060405250810190610f9e919061203b565b9350610fac85858b8b611487565b8115610fd657600954610fd2906001600160701b0380821691600160701b900416611468565b600c555b604080518c8152602081018c90526001600160a01b038e169133917fdccd412f0b1252819cb1fd330b93224ca42612892bb3f4f789976e6d81936496910160405180910390a350505050505050505061102f6001600555565b915091565b60606004805461089a9061207d565b6000338161105182866111c6565b9050838110156110b15760405162461bcd60e51b815260206004820152602560248201527f45524332303a2064656372656173656420616c6c6f77616e63652062656c6f77604482015264207a65726f60d81b6064820152608401610400565b61097a82868684036116bb565b60003361095581858561185a565b6110d46112fb565b6007546008546009546040516370a0823160e01b81523060048201526001600160a01b03938416939092169161116a9184918691611165916001600160701b039091169084906370a08231906024015b602060405180830381865afa158015611141573d6000803e3d6000fd5b505050506040513d601f19601f8201168201806040525081019061078b919061203b565b611354565b6009546040516370a0823160e01b81523060048201526111b7918391869161116591600160701b9091046001600160701b0316906001600160a01b038516906370a0823190602401611124565b50506111c36001600555565b50565b6001600160a01b03918216600090815260016020908152604080832093909416825291909152205490565b6111f96112fb565b6007546040516370a0823160e01b81523060048201526112ef916001600160a01b0316906370a0823190602401602060405180830381865afa158015611243573d6000803e3d6000fd5b505050506040513d601f19601f82011682018060405250810190611267919061203b565b6008546040516370a0823160e01b81523060048201526001600160a01b03909116906370a0823190602401602060405180830381865afa1580156112af573d6000803e3d6000fd5b505050506040513d601f19601f820116820180604052508101906112d3919061203b565b6009546001600160701b0380821691600160701b900416611487565b6112f96001600555565b565b60026005540361134d5760405162461bcd60e51b815260206004820152601f60248201527f5265656e7472616e637947756172643a207265656e7472616e742063616c6c006044820152606401610400565b6002600555565b604080516001600160a01b038481166024830152604480830185905283518084039091018152606490920183526020820180516001600160e01b031663a9059cbb60e01b17905291516000928392908716916113b091906120ee565b6000604051808303816000865af19150503d80600081146113ed576040519150601f19603f3d011682016040523d82523d6000602084013e6113f2565b606091505b509150915081801561141c57508051158061141c57508080602001905181019061141c919061210a565b6108845760405162461bcd60e51b815260206004820152601c60248201527f4469616d6f6e64506169723a205452414e534645525f4641494c4544000000006044820152606401610400565b6000611474828461212c565b9392505050565b6000611474828461206a565b6001600160701b0384118015906114a557506001600160701b038311155b6114e95760405162461bcd60e51b81526020600482015260156024820152744469616d6f6e64506169723a204f564552464c4f5760581b6044820152606401610400565b60006114fa64010000000042612143565b60095490915060009061151a90600160e01b900463ffffffff1683612157565b905060008163ffffffff1611801561153a57506001600160701b03841615155b801561154e57506001600160701b03831615155b15611623576001600160701b038416156115bb578063ffffffff16846001600160701b0316846001600160701b0316670de0b6b3a7640000611590919061212c565b61159a91906120da565b6115a4919061212c565b600a60008282546115b591906120b1565b90915550505b6001600160701b03831615611623578063ffffffff16836001600160701b0316856001600160701b0316670de0b6b3a76400006115f8919061212c565b61160291906120da565b61160c919061212c565b600b600082825461161d91906120b1565b90915550505b6009805463ffffffff8416600160e01b026001600160e01b036001600160701b03898116600160701b9081026001600160e01b03199095168c83161794909417918216831794859055604080519382169282169290921783529290930490911660208201527f1c411e9a96e071241c2f21f7726b17ae89e3cab4c78be50e062b03a9fffbbad1910160405180910390a1505050505050565b6001600160a01b03831661171d5760405162461bcd60e51b8152602060048201526024808201527f45524332303a20617070726f76652066726f6d20746865207a65726f206164646044820152637265737360e01b6064820152608401610400565b6001600160a01b03821661177e5760405162461bcd60e51b815260206004820152602260248201527f45524332303a20617070726f766520746f20746865207a65726f206164647265604482015261737360f01b6064820152608401610400565b6001600160a01b0383811660008181526001602090815260408083209487168084529482529182902085905590518481527f8c5be1e5ebec7d5bd14f71427d1e84f3dd0314c0f7b2291e5b200ac8c7c3b92591015b60405180910390a3505050565b60006117ec84846111c6565b9050600019811461185457818110156118475760405162461bcd60e51b815260206004820152601d60248201527f45524332303a20696e73756666696369656e7420616c6c6f77616e63650000006044820152606401610400565b61185484848484036116bb565b50505050565b6001600160a01b0383166118be5760405162461bcd60e51b815260206004820152602560248201527f45524332303a207472616e736665722066726f6d20746865207a65726f206164604482015264647265737360d81b6064820152608401610400565b6001600160a01b0382166119205760405162461bcd60e51b815260206004820152602360248201527f45524332303a207472616e7366657220746f20746865207a65726f206164647260448201526265737360e81b6064820152608401610400565b6001600160a01b038316600090815260208190526040902054818110156119985760405162461bcd60e51b815260206004820152602660248201527f45524332303a207472616e7366657220616d6f756e7420657863656564732062604482015265616c616e636560d01b6064820152608401610400565b6001600160a01b03848116600081815260208181526040808320878703905593871680835291849020805487019055925185815290927fddf252ad1be2c89b69c2b068fc378daa952ba7f163c4a11628f55a4df523b3ef910160405180910390a3611854565b600080600660009054906101000a90046001600160a01b03166001600160a01b031663017e7e586040518163ffffffff1660e01b8152600401602060405180830381865afa158015611a54573d6000803e3d6000fd5b505050506040513d601f19601f82011682018060405250810190611a78919061217b565b600c546001600160a01b038216158015945091925090611b9c578015611b97576000611ab3610b8b6001600160701b03888116908816611468565b90506000611ac083611bb0565b905080821115611b94576000611ae1611ad9848461147b565b6002546107c2565b90506000611b7083611b6a600660009054906101000a90046001600160a01b03166001600160a01b0316632ff7042a6040518163ffffffff1660e01b8152600401602060405180830381865afa158015611b3f573d6000803e3d6000fd5b505050506040513d601f19601f82011682018060405250810190611b63919061203b565b8790611468565b90611e1e565b90506000611b7e82846120da565b90508015611b9057611b908782611c1f565b5050505b50505b611ba8565b8015611ba8576000600c555b505092915050565b60006003821115611c115750806000611bca6002836120da565b611bd59060016120b1565b90505b81811015611c0b57905080600281611bf081866120da565b611bfa91906120b1565b611c0491906120da565b9050611bd8565b50919050565b8115610cdb57506001919050565b6001600160a01b038216611c755760405162461bcd60e51b815260206004820152601f60248201527f45524332303a206d696e7420746f20746865207a65726f2061646472657373006044820152606401610400565b8060026000828254611c8791906120b1565b90915550506001600160a01b038216600081815260208181526040808320805486019055518481527fddf252ad1be2c89b69c2b068fc378daa952ba7f163c4a11628f55a4df523b3ef910160405180910390a35050565b6000818310611ced5781611474565b5090919050565b6001600160a01b038216611d545760405162461bcd60e51b815260206004820152602160248201527f45524332303a206275726e2066726f6d20746865207a65726f206164647265736044820152607360f81b6064820152608401610400565b6001600160a01b03821660009081526020819052604090205481811015611dc85760405162461bcd60e51b815260206004820152602260248201527f45524332303a206275726e20616d6f756e7420657863656564732062616c616e604482015261636560f01b6064820152608401610400565b6001600160a01b0383166000818152602081815260408083208686039055600280548790039055518581529192917fddf252ad1be2c89b69c2b068fc378daa952ba7f163c4a11628f55a4df523b3ef91016117d3565b600061147482846120b1565b6001600160a01b03811681146111c357600080fd5b600080600080600060808688031215611e5757600080fd5b85359450602086013593506040860135611e7081611e2a565b9250606086013567ffffffffffffffff80821115611e8d57600080fd5b818801915088601f830112611ea157600080fd5b813581811115611eb057600080fd5b896020828501011115611ec257600080fd5b9699959850939650602001949392505050565b60005b83811015611ef0578181015183820152602001611ed8565b50506000910152565b6020815260008251806020840152611f18816040850160208701611ed5565b601f01601f19169190910160400192915050565b60008060408385031215611f3f57600080fd5b8235611f4a81611e2a565b946020939093013593505050565b600080600060608486031215611f6d57600080fd5b8335611f7881611e2a565b92506020840135611f8881611e2a565b929592945050506040919091013590565b60008060408385031215611fac57600080fd5b8235611fb781611e2a565b91506020830135611fc781611e2a565b809150509250929050565b600060208284031215611fe457600080fd5b813561147481611e2a565b60018060a01b038616815284602082015283604082015260806060820152816080820152818360a0830137600081830160a090810191909152601f909201601f19160101949350505050565b60006020828403121561204d57600080fd5b5051919050565b634e487b7160e01b600052601160045260246000fd5b8181038181111561095b5761095b612054565b600181811c9082168061209157607f821691505b602082108103611c0b57634e487b7160e01b600052602260045260246000fd5b8082018082111561095b5761095b612054565b634e487b7160e01b600052601260045260246000fd5b6000826120e9576120e96120c4565b500490565b60008251612100818460208701611ed5565b9190910192915050565b60006020828403121561211c57600080fd5b8151801515811461147457600080fd5b808202811582820484141761095b5761095b612054565b600082612152576121526120c4565b500690565b63ffffffff82811682821603908082111561217457612174612054565b5092915050565b60006020828403121561218d57600080fd5b815161147481611e2a56fea26469706673582212203fb0a109400bdb19ac0713e9c9dda3c15d68cb87816043e6a4e9b556e73d56c964736f6c63430008110033a264697066735822122060a72b4bb0875d228e78994913f7571d2c37833cb05e6c63cb774013a98f020c64736f6c63430008110033",
  "linkReferences": {},
  "deployedLinkReferences": {}
}